:020000040802F0
:1000E000000005243D700208796E0208816E020846
:1000F000896E0208916E0208996E020800000000E5
:10010000000000000000000000000000A16E0208D6
:10011000AF6E020800000000BD6E0208CB6E020840
:1001200091700208917002089170020891700208A3
:100130009170020891700208917002089170020893
:100140009170020891700208917002089170020883
:100150009170020891700208917002089170020873
:100160009170020891700208917002089170020863
:100170009170020891700208917002089170020853
:100180009170020891700208917002089170020843
:100190009170020891700208917002089170020833
:1001A0009170020891700208917002089170020823
:1001B00091700208D96E02089170020891700208CD
:1001C000917002089170020800000000917002080E
:1001D00091700208917002089170020891700208F3
:1001E00091700208917002089170020891700208E3
:1001F00091700208917002089170020891700208D3
:1002000091700208917002089170020891700208C2
:1002100091700208917002089170020891700208B2
:1002200000000000000000000000000000000000CE
:100230009170020891700208917002089170020892
:100240009170020891700208917002089170020882
:10025000917002089170020891700208000000007D
:100260009170020891700208917002089170020862
:100270009170020891700208917002089170020852
:10028000917002089170020891700208000000004D
:100290009170020891700208917002089170020832
:1002A0009170020891700208000000000000000038
:1002B0000000000000000000917002080000000033
:1002C000000000000000000000000000000000002E
:1002D0000000000000000000917002089170020808
:1002E00091700208917002080000000091700208ED
:1002F00091700208917002089170020891700208D2
:1003000091700208000000009170020800000000D7
:1003100091700208917002080000000091700208BC
:1003200091700208917002089170020891700208A1
:100330009170020891700208917002089170020891
:100340009170020891700208917002089170020881
:10035000917002089170020891700208000000007C
:100360009170020891700208917002089170020861
:100370000000000091700208917002080000000067
:10038000000000009170020891700208917002084C
:100390009170020891700208917002089170020831
:0C03A00091700208917002089170020830
:1003AC0010B5054C237833B9044B13B10448AFF3A3
:1003BC0000800123237010BD1000002400000000F9
:1003CC00EC70020808B5034B1BB103490348AFF3AB
:1003DC00008008BD0000000014000024EC7002082E
:1003EC00034613F8012B002AFBD1181A0138704769
:1003FC0053B94AB9002908BF00281CBF4FF0FF3180
:10040C004FF0FF3000F088B9ADF1080C6DE904CE67
:10041C0000F006F8DDF804E0DDE9022304B07047D3
:10042C002DE9F047089D8E4604468846002B4AD19C
:10043C008A42174662D9B2FA82F64EB1C6F120034F
:10044C0001FA06F820FA03F3B74043EA0808B4406F
:10045C004FEA174E1FFA87FCB8FBFEF1230C0EFB7C
:10046C00118843EA084301FB0CF29A4209D9FB18A4
:10047C0001F1FF3080F0EA809A4240F2E7800239C5
:10048C003B449A1AA3B2B2FBFEF00EFB102243EAD5
:10049C00024300FB0CFC9C4509D9FB1800F1FF3210
:1004AC0080F0D6809C4540F2D3803B44023840EA31
:1004BC000140A3EB0C0300211DB1F3400022C5E960
:1004CC000032BDE8F0878B4205D90DB1C5E90001BA
:1004DC0000210846F5E7B3FA83F1002946D17345AC
:1004EC0002D3824200F20581841A6EEB03020120D2
:1004FC009046002DE5D0C5E90048E2E7002A00F05F
:10050C009080B2FA82F6002E40F0A4808A1A030C76
:10051C004FEA174E80B2BCB20121B2FBFEFC0EFBBF
:10052C001C2243EA024304FB0CF29A4207D9FB1843
:10053C000CF1FF3802D29A4200F2E080C4469B1ABA
:10054C00B3FBFEF20EFB123340EA034302FB04F44E
:10055C009C4207D9FB1802F1FF3002D29C4200F2F8
:10056C00CA8002461B1B42EA0C40A5E7C1F12006DB
:10057C008B4022FA06F71F430EFA01F420FA06F319
:10058C002EFA06FE4FEA1749234300FA01F81FFA28
:10059C0087FCBEFBF9F01C0C09FB10EE44EA0E4480
:1005AC0000FB0CFEA64502FA01F209D93C1900F138
:1005BC00FF3A80F09C80A64540F2998002383C447A
:1005CC00A4EB0E041FFA83FEB4FBF9F309FB1344EE
:1005DC004EEA044403FB0CFCA44508D93C1903F176
:1005EC00FF3E80F08280A4457FD9023B3C4443EA25
:1005FC000040A4EB0C04A0FB02EC64457346E146FE
:10060C0062D35FD05DB1B8EB030264EB090404FA6A
:10061C0006F622FA01F31E43CC40C5E90064002122
:10062C004FE7B1FBF2FC010C41EA0E4180B240EA0B
:10063C0001423B4638463C46B846BE462026B1FBF6
:10064C00F7F1A2EB080241EA0C4166E7014618E714
:10065C0010462CE7C6F120022EFA02F3B740B14047
:10066C0020FA02F24FEA174E0A43B3FBFEF8BCB273
:10067C000EFB1833110C41EA034108FB04F9B0409E
:10068C0089454FEA104380B23ED9791808F1FF3CF6
:10069C0001D289451FD8A1EB0901B1FBFEF909FB79
:1006AC0004F80EFB191192B242EA0142424529D2DA
:1006BC00BA1809F1FF31C4D24245C2D2A9F10201E4
:1006CC003A44BEE7F0459DD2BEEB02036CEB070C3F
:1006DC000138E14696E7A7EB09094944A8F1020C59
:1006EC00B1FBFEF909FB04F8DBE773467FE75046E4
:1006FC0066E70846FDE63B44023A33E7ACF1020CF0
:10070C003B441CE749469CE7A1EB0901C446B1FBFD
:10071C00FEF909FB04F8C4E7704700BF80B582B04E
:10072C0000AF032000F05CF902F0F0F80246154B24
:10073C009B691B0A03F00F031349CB5C03F01F03E7
:10074C0022FA03F37B600F4B9B6903F00F030E4AF5
:10075C00D35C03F01F037A6822FA03F30B4A13608D
:10076C000B4A7B6813600F2000F014F80346002B33
:10077C0001D0012302E006F0EDFA002318460837F9
:10078C00BD4680BD00440258F47502080C000024DC
:10079C000800002480B582B000AF7860154B1B7840
:1007AC00002B01D1012321E0134B1A68114B1B784C
:1007BC0019464FF47A73B3FBF1F3B2FBF3F318461B
:1007CC0000F041F90346002B01D001230EE07B68B9
:1007DC000F2B0AD8002279684FF0FF3000F00BF98C
:1007EC00064A7B681360002300E001231846083793
:1007FC00BD4680BD04000024080000240000002435
:10080C0080B400AF064B1B781A46064B1B6813448A
:10081C00044A136000BFBD465DF8047B704700BFFF
:10082C00040000242C00002480B400AF034B1B6890
:10083C001846BD465DF8047B704700BF2C000024B1
:10084C0080B485B000AF78607B6803F00703FB6071
:10085C000B4BDB68BB60BA684FF6FF031340BB6001
:10086C00FB681A02BB681A43064B1343BB60044A6D
:10087C00BB68D36000BF1437BD465DF8047B70477E
:10088C0000ED00E00000FA0580B400AF044BDB681B
:10089C001B0A03F007031846BD465DF8047B70473E
:1008AC0000ED00E080B483B000AF0346FB80B7F9E5
:1008BC000630002B0BDBFB8803F01F020749B7F94E
:1008CC0006305B09012000FA02F241F8232000BF38
:1008DC000C37BD465DF8047B704700BF00E100E0BB
:1008EC0080B483B000AF03463960FB80B7F90630A3
:1008FC00002B0ADB3B68DAB20C49B7F9063012015F
:10090C00D2B20B4483F800230AE03B68DAB2084900
:10091C00FB8803F00F03043B1201D2B20B441A768E
:10092C0000BF0C37BD465DF8047B704700E100E06A
:10093C0000ED00E080B489B000AFF860B9607A6077
:10094C00FB6803F00703FB61FB69C3F10703042B8E
:10095C0028BF0423BB61FB690433062B02D9FB6956
:10096C00033B00E000237B614FF0FF32BB6902FACE
:10097C0003F3DA43BB681A407B699A404FF0FF31AE
:10098C007B6901FA03F3D9437B680B401343184688
:10099C002437BD465DF8047B7047000080B582B0FB
:1009AC0000AF78607B68013BB3F1807F01D30123FA
:1009BC000FE00A4A7B68013B53600F214FF0FF3078
:1009CC00FFF78EFF054B00229A60044B07221A603A
:1009DC00002318460837BD4680BD00BF10E000E07C
:1009EC0080B582B000AF78607868FFF729FF00BF50
:1009FC000837BD4680BD80B586B000AF0346B960F0
:100A0C007A60FB81FFF740FF78617A68B968786992
:100A1C00FFF790FF0246B7F90E3011461846FFF764
:100A2C005FFF00BF1837BD4680BD80B582B000AFF8
:100A3C000346FB80B7F906301846FFF733FF00BFBB
:100A4C000837BD4680BD80B582B000AF786078684D
:100A5C00FFF7A4FF034618460837BD4680BD0000CB
:100A6C0080B400AFBFF35F8F00BF074B5B6A064AD1
:100A7C0023F480335362054B00225A6000BFBD46FD
:100A8C005DF8047B704700BF00ED00E090ED00E0E6
:100A9C0080B483B000AF78600B4A7B6843F00103ED
:100AAC0053600A4B5B6A094A43F480335362BFF3C9
:100ABC004F8F00BFBFF36F8F00BF00BF0C37BD4619
:100ACC005DF8047B704700BF90ED00E000ED00E0A6
:100ADC0080B483B000AF78607B685A781B4B9A6007
:100AEC001A4B1B69194A23F001031361174A7B68DF
:100AFC005B68D3607B681B7B1A077B68DB7A1B0601
:100B0C001A437B689B7ADB041A437B685B7B9B04F0
:100B1C001A437B689B7B5B041A437B68DB7B1B045F
:100B2C001A437B685B7A1B021A437B681B7A5B0057
:100B3C0013437A6812781146044A0B43136100BFC1
:100B4C000C37BD465DF8047B704700BF90ED00E0AC
:100B5C0080B586B000AF7860FFF766FE38617B68C1
:100B6C00002B01D10123DCE27B6893F83530DBB23A
:100B7C00022B08D07B6880225A657B68002283F8A0
:100B8C0034200123CDE27B681B68764A93424AD01D
:100B9C007B681B68744A934245D07B681B68734A18
:100BAC00934240D07B681B68714A93423BD07B6870
:100BBC001B68704A934236D07B681B686E4A93421E
:100BCC0031D07B681B686D4A93422CD07B681B68C4
:100BDC006B4A934227D07B681B686A4A934222D0A7
:100BEC007B681B68684A93421DD07B681B68674A08
:100BFC00934218D07B681B68654A934213D07B687C
:100C0C001B68644A93420ED07B681B68624A93420D
:100C1C0009D07B681B68614A934204D07B681B68CF
:100C2C005F4A934201D1012300E00023002B13D033
:100C3C007B681B681A687B681B6822F01E021A60AE
:100C4C007B681B685A697B681B6822F080025A61BA
:100C5C007B681B687B610AE07B681B681A687B6891
:100C6C001B6822F00E021A607B681B687B617B6834
:100C7C001B683C4A934272D07B681B683A4A934289
:100C8C006DD07B681B68394A934268D07B681B68BF
:100C9C00374A934263D07B681B68364A93425ED0D6
:100CAC007B681B68344A934259D07B681B68334A73
:100CBC00934254D07B681B68314A93424FD07B6877
:100CCC001B68304A93424AD07B681B682E4A934279
:100CDC0045D07B681B682D4A934240D07B681B68CB
:100CEC002B4A93423BD07B681B682A4A934236D0EE
:100CFC007B681B68284A934231D07B681B68274A63
:100D0C0093422CD07B681B68254A934227D07B6882
:100D1C001B68244A934222D07B681B68224A934268
:100D2C001DD07B681B68214A934218D07B681B68D6
:100D3C001F4A934213D07B681B681E4A93420ED005
:100D4C007B681B681C4A934209D07B681B681B4A52
:100D5C00934204D07B681B68194A934232D1012319
:100D6C0031E000BF10000240280002404000024069
:100D7C00580002407000024088000240A00002406F
:100D8C00B800024010040240280402404004024013
:100D9C00580402407004024088040240A00402403F
:100DAC00B8040240085402581C54025830540258DB
:100DBC0044540258585402586C54025880540258E7
:100DCC00945402580023002B07D07B681B6E1A68C2
:100DDC007B681B6E22F480721A607B681B686D4AFC
:100DEC0093424AD07B681B686B4A934245D07B6820
:100DFC001B686A4A934240D07B681B68684A9342DE
:100E0C003BD07B681B68674A934236D07B681B6873
:100E1C00654A934231D07B681B68644A93422CD05C
:100E2C007B681B68624A934227D07B681B68614AC7
:100E3C00934222D07B681B685F4A93421DD07B682B
:100E4C001B685E4A934218D07B681B685C4A9342CD
:100E5C0013D07B681B685B4A93420ED07B681B687F
:100E6C00594A934209D07B681B68584A934204D074
:100E7C007B681B68564A934208D17B681B681A68CA
:100E8C007B681B6822F001021A6007E07B681B6814
:100E9C001A687B681B6822F001021A6013E0FFF7E6
:100EAC00C3FC02463B69D31A052B0CD97B68202264
:100EBC005A657B68032283F835207B68002283F80F
:100ECC00342001232DE17B691B6803F00103002B07
:100EDC00E5D17B681B682F4A93424AD07B681B681C
:100EEC002D4A934245D07B681B682C4A934240D0D4
:100EFC007B681B682A4A93423BD07B681B68294A53
:100F0C00934236D07B681B68274A934231D07B686A
:100F1C001B68264A93422CD07B681B68244A934258
:100F2C0027D07B681B68234A934222D07B681B68BE
:100F3C00214A93421DD07B681B68204A934218D0EB
:100F4C007B681B681E4A934213D07B681B681D4A42
:100F5C0093420ED07B681B681B4A934209D07B6876
:100F6C001B681A4A934204D07B681B68184A934248
:100F7C0001D1012300E00023002B2BD07B689B6D5B
:100F8C00BB607B68DB6D03F01F033F229A40BB689C
:100F9C009A602AE010000240280002404000024003
:100FAC00580002407000024088000240A00002403D
:100FBC00B8000240100402402804024040040240E1
:100FCC00580402407004024088040240A00402400D
:100FDC00B80402407B689B6DFB607B68DB6D03F0A3
:100FEC001F0301229A40FB685A607B681B684F4ABA
:100FFC00934272D07B681B684D4A93426DD07B68DC
:10100C001B684C4A934268D07B681B684A4A9342DF
:10101C0063D07B681B68494A93425ED07B681B682F
:10102C00474A934259D07B681B68464A934254D036
:10103C007B681B68444A93424FD07B681B68434AC9
:10104C0093424AD07B681B68414A934245D07B68E7
:10105C001B68404A934240D07B681B683E4A9342CF
:10106C003BD07B681B683D4A934236D07B681B683B
:10107C003B4A934231D07B681B683A4A93422CD04E
:10108C007B681B68384A934227D07B681B68374AB9
:10109C00934222D07B681B68354A93421DD07B68F3
:1010AC001B68344A934218D07B681B68324A9342BF
:1010BC0013D07B681B68314A93420ED07B681B6847
:1010CC002F4A934209D07B681B682E4A934204D066
:1010DC007B681B682C4A934201D1012300E000235A
:1010EC00002B15D07B685B6E7A68926E5A607B68B9
:1010FC00DB6E002B0CD07B68DB6E1A687B68DB6EBA
:10110C0022F480721A607B681B6F7A68526F5A6087
:10111C007B68012283F835207B68002283F8342019
:10112C00002318461837BD4680BD00BF1000024092
:10113C00280002404000024058000240700002406B
:10114C0088000240A0000240B80002401004024097
:10115C00280402404004024058040240700402403B
:10116C0088040240A0040240B8040240085402580B
:10117C001C540258305402584454025858540258C3
:10118C006C540258805402589454025880B584B060
:10119C0000AF78607B68002B01D1012337E27B68BC
:1011AC0093F83530DBB2022B04D07B6880225A6571
:1011BC0001232CE27B681B685C4A93424AD07B6813
:1011CC001B685B4A934245D07B681B68594A934223
:1011DC0040D07B681B68584A93423BD07B681B68A5
:1011EC00564A934236D07B681B68554A934231D09D
:1011FC007B681B68534A93422CD07B681B68524A0D
:10120C00934227D07B681B68504A934222D07B685C
:10121C001B684F4A93421DD07B681B684D4A934212
:10122C0018D07B681B684C4A934213D07B681B68B0
:10123C004A4A93420ED07B681B68494A934209D0B4
:10124C007B681B68474A934204D07B681B68464AFC
:10125C00934201D1012300E00023002B00F0868093
:10126C007B68042283F835207B681B682F4A9342E5
:10127C004AD07B681B682E4A934245D07B681B681A
:10128C002C4A934240D07B681B682B4A93423BD03C
:10129C007B681B68294A934236D07B681B68284AB6
:1012AC00934231D07B681B68264A93422CD07B68D2
:1012BC001B68254A934227D07B681B68234A9342BC
:1012CC0022D07B681B68224A93421DD07B681B6826
:1012DC00204A934218D07B681B681F4A934213D054
:1012EC007B681B681D4A93420ED07B681B681C4AA6
:1012FC00934209D07B681B681A4A934204D07B68DE
:10130C001B68194A934208D17B681B681A687B6872
:10131C001B6822F001021A6078E17B681B681A686E
:10132C007B681B6822F001021A606FE1100002401A
:10133C002800024040000240580002407000024069
:10134C0088000240A0000240B80002401004024095
:10135C002804024040040240580402407004024039
:10136C0088040240A0040240B80402407B681B6859
:10137C001A687B681B6822F00E021A607B681B6877
:10138C006C4A93424AD07B681B686B4A934245D0A7
:10139C007B681B68694A934240D07B681B68684A2B
:1013AC0093423BD07B681B68664A934236D07B687D
:1013BC001B68654A934231D07B681B68634A934231
:1013CC002CD07B681B68624A934227D07B681B68D1
:1013DC00604A934222D07B681B685F4A93421DD0BF
:1013EC007B681B685D4A934218D07B681B685C4A1B
:1013FC00934213D07B681B685A4A93420ED07B6889
:10140C001B68594A934209D07B681B68574A934220
:10141C0004D07B681B68564A934208D17B681B68D2
:10142C001A687B681B6822F001021A6007E07B686F
:10143C001B681A687B681B6822F001021A607B68C3
:10144C001B683C4A934272D07B681B683A4A9342B1
:10145C006DD07B681B68394A934268D07B681B68E7
:10146C00374A934263D07B681B68364A93425ED0FE
:10147C007B681B68344A934259D07B681B68334A9B
:10148C00934254D07B681B68314A93424FD07B689F
:10149C001B68304A93424AD07B681B682E4A9342A1
:1014AC0045D07B681B682D4A934240D07B681B68F3
:1014BC002B4A93423BD07B681B682A4A934236D016
:1014CC007B681B68284A934231D07B681B68274A8B
:1014DC0093422CD07B681B68254A934227D07B68AB
:1014EC001B68244A934222D07B681B68224A934291
:1014FC001DD07B681B68214A934218D07B681B68FF
:10150C001F4A934213D07B681B681E4A93420ED02D
:10151C007B681B681C4A934209D07B681B681B4A7A
:10152C00934204D07B681B68194A934232D1012341
:10153C0031E000BF10000240280002404000024091
:10154C00580002407000024088000240A000024097
:10155C00B80002401004024028040240400402403B
:10156C00580402407004024088040240A004024067
:10157C00B8040240085402581C5402583054025803
:10158C0044540258585402586C540258805402580F
:10159C00945402580023002B28D07B681B6E1A68C9
:1015AC007B681B6E22F480721A607B689B6DFB60FB
:1015BC007B68DB6D03F01F0301229A40FB685A60C5
:1015CC007B685B6E7A68926E5A607B68DB6E002B70
:1015DC000CD07B68DB6E1A687B68DB6E22F4807241
:1015EC001A607B681B6F7A68526F5A607B680122A5
:1015FC0083F835207B68002283F834207B681B6DD0
:10160C00002B03D07B681B6D786898470023184625
:10161C001037BD4680BD00BF80B58AB000AFF86002
:10162C00B9607A60BB683B627B68FB610823FB7620
:10163C002F4B1B7D012B01D1022354E02C4B01229B
:10164C001A75BB68B3F1006F16D3BB68B3F1016FA9
:10165C0012D201237B6100BF254B00229A6179696C
:10166C004CF2503000F082F8034687F8273097F898
:10167C002730002B32D101E0012334E01D4BDB6815
:10168C001C4A43F00203D360BFF36F8F00BFBFF35C
:10169C004F8F00BFFB691A683B6A1A603B6A0433C0
:1016AC003B62FB690433FB61FB7E013BFB76FB7EFB
:1016BC00002BEFD1BFF36F8F00BFBFF34F8F00BF75
:1016CC0079694CF2503000F051F8034687F8273016
:1016DC00084BDB68074A23F00203D360044B00225B
:1016EC001A7597F8273018462837BD4680BD00BFBD
:1016FC00300000240020005280B400AF0C4BDB689B
:10170C0003F00103002B0DD0094B0A4A5A60084B19
:10171C00094A5A60064BDB6803F00103002B01D029
:10172C00012300E000231846BD465DF8047B70479A
:10173C000020005223016745AB89EFCD80B400AF88
:10174C00094BDB68084A43F00103D360064BDB68A6
:10175C0003F00103002B01D1012300E00023184604
:10176C00BD465DF8047B70470020005280B586B002
:10177C0000AF7860396004233B6100237B61FFF785
:10178C0053F8F86010E07B68B3F1FF3F0CD0FFF723
:10179C004BF80246FB68D31A7A689A4202D37B68EC
:1017AC00002B01D103232DE0184B1A693B69134020
:1017BC003A699A42E7D03B68012B04D1134B1A6962
:1017CC00134B13407B617B6923F00043002B0AD041
:1017DC00104B9A697B6913430E4A93610B4A7B69E0
:1017EC00536101230EE03B68012B0AD1074B1B69A7
:1017FC0003F48033B3F5803F03D1044B4FF48032B4
:10180C005A61002318461837BD4680BD002000528F
:10181C000000EE173000002480B584B000AF786073
:10182C0039600023FB733F4B1B7D012B01D102233D
:10183C0074E03C4B01221A753A4B00229A617B688A
:10184C005B6803F00103002B09D001214CF25030EE
:10185C00FFF78CFF0346002B01D00123FB73FB7BAE
:10186C00002B57D17B681B68012B1ED17B681A6932
:10187C007B685B681946104600F05AF87B685B6819
:10188C0003F00103002B45D001214CF25030FFF73F
:10189C006DFF0346002B01D00123FB73224BDB6849
:1018AC00214A23F00803D36034E03B684FF0FF3249
:1018BC001A607B689B68BB6024E07B6859687B6816
:1018CC001B691A46B86800F057F87B685B6803F030
:1018DC000103002B0CD001214CF25030FFF746FFD6
:1018EC000346FB73104BDA680F49104B1340CB6067
:1018FC00FB7B002B03D03B68BA681A600AE0BB681C
:10190C000133BB607B68DA687B689B681344BA68F8
:10191C009A42D2D3034B00221A75FB7B1846103720
:10192C00BD4680BD3000002400200052FBF8FFFFB4
:10193C0080B483B000AF786039603B6803F001037A
:10194C00002B11D00B4BDB680A4A23F03003D36019
:10195C00084BDA6807497B681343CB60054BDB689F
:10196C00044A43F08803D36000BF0C37BD465DF8D2
:10197C00047B70470020005280B485B000AFF86043
:10198C00B9607A60BB6803F00103002B10D00B4BDD
:10199C00DB680A4A23F4E663D360084BDA68FB6819
:1019AC0019027B680B431343044A43F08403D3604E
:1019BC0000BF1437BD465DF8047B70470020005211
:1019CC0080B489B000AF786039600023FB61864B2E
:1019DC007B618CE13B681A680121FB6901FA03F316
:1019EC0013403B613B69002B00F07E813B685B68D8
:1019FC0003F00303012B05D03B685B6803F0030382
:101A0C00022B30D17B689B68BB61FB695B000322B6
:101A1C0002FA03F3DB43BA691340BB613B68DA6833
:101A2C00FB695B0002FA03F3BA691343BB617B6881
:101A3C00BA699A607B685B68BB610122FB6902FA38
:101A4C0003F3DB43BA691340BB613B685B681B095A
:101A5C0003F00102FB6902FA03F3BA691343BB6199
:101A6C007B68BA695A603B685B6803F00303032B1D
:101A7C0017D07B68DB68BB61FB695B00032202FA51
:101A8C0003F3DB43BA691340BB613B689A68FB699B
:101A9C005B0002FA03F3BA691343BB617B68BA6952
:101AAC00DA603B685B6803F00303022B23D1FB690C
:101ABC00DA087B68083253F82230BB61FB6903F00B
:101ACC0007039B000F2202FA03F3DB43BA691340AE
:101ADC00BB613B681A69FB6903F007039B0002FAC0
:101AEC0003F3BA691343BB61FB69DA087B680832FC
:101AFC00B96943F822107B681B68BB61FB695B000A
:101B0C00032202FA03F3DB43BA691340BB613B685F
:101B1C005B6803F00302FB695B0002FA03F3BA692A
:101B2C001343BB617B68BA691A603B685B6803F45A
:101B3C004033002B00F0D8802C4BD3F8F4302B4AD8
:101B4C0043F00203C2F8F430284BD3F8F43003F01E
:101B5C000203FB60FB68264AFB699B08023352F8C0
:101B6C002330BB61FB6903F003039B000F2202FAD5
:101B7C0003F3DB43BA691340BB617B681D4A934294
:101B8C004AD07B681C4A93422BD07B681B4A9342F9
:101B9C0025D07B681A4A93421FD07B68194A93421E
:101BAC0019D07B68184A934213D07B68174A93422A
:101BBC000DD07B68164A934207D07B68154A934236
:101BCC0001D1092329E00A2327E0072325E0062376
:101BDC0023E0052321E004231FE003231DE002235F
:101BEC001BE0012319E000BF80000058004402589C
:101BFC000004005800000258000402580008025863
:101C0C00000C025800100258001402580018025818
:101C1C00001C0258002402580023FA6902F0030247
:101C2C0092009340BA691343BB613849FB699B0826
:101C3C000233BA6941F823204FF0B0431B68BB61F3
:101C4C003B69DB43BA691340BB613B685B6803F4D7
:101C5C008013002B03D0BA693B691343BB614FF06F
:101C6C00B042BB6913604FF0B0435B68BB613B692A
:101C7C00DB43BA691340BB613B685B6803F4001338
:101C8C00002B03D0BA693B691343BB614FF0B042E0
:101C9C00BB6953607B695B68BB613B69DB43BA69B9
:101CAC001340BB613B685B6803F40033002B03D02B
:101CBC00BA693B691343BB617B69BA695A607B693A
:101CCC001B68BB613B69DB43BA691340BB613B6872
:101CDC005B6803F48033002B03D0BA693B69134370
:101CEC00BB617B69BA691A60FB690133FB613B68B4
:101CFC001A68FB6922FA03F3002B7FF46BAE00BF6A
:101D0C0000BF2437BD465DF8047B704700040058C3
:101D1C0080B483B000AF78600B467B8013467B7039
:101D2C007B78002B03D07A887B689A6103E07B88F0
:101D3C001A047B689A6100BF0C37BD465DF8047BC2
:101D4C00704780B485B000AF78600B467B807B68B1
:101D5C005B69FB607A88FB6813401A04FB68D94303
:101D6C007B880B401A437B689A6100BF1437BD46D1
:101D7C005DF8047B7047000080B584B000AF7860DC
:101D8C00194BDB6803F00403042B0AD0164BDB68F9
:101D9C0003F007037A689A4201D001231FE0002365
:101DAC001DE0114BDB6823F007020F497B681343DE
:101DBC00CB60FEF739FDF86009E0FEF735FD024611
:101DCC00FB68D31AB3F57A7F01D9012307E0064BE0
:101DDC005B6803F40053B3F5005FEED100231846A3
:101DEC001037BD4680BD00BF0048025880B58CB08E
:101DFC0000AF78607B68002B01D10123C8E37B68BE
:101E0C001B6803F00103002B00F08780884B1B69D3
:101E1C0003F03803FB62864B9B6ABB62FB6A102B98
:101E2C0007D0FB6A182B10D1BB6A03F00303022BFB
:101E3C000BD17F4B1B6803F40033002B6CD07B68F9
:101E4C005B68002B68D10123A2E37B685B68B3F568
:101E5C00803F06D1764B1B68754A43F48033136080
:101E6C002EE07B685B68002B0CD1714B1B68704AB1
:101E7C0023F4803313606E4B1B686D4A23F480236C
:101E8C0013601DE07B685B68B3F5A02F0CD1684B29
:101E9C001B68674A43F480231360654B1B68644AD4
:101EAC0043F4803313600BE0614B1B68604A23F4EE
:101EBC00803313605E4B1B685D4A23F480231360F0
:101ECC007B685B68002B13D0FEF7AEFC786208E0F1
:101EDC00FEF7AAFC02467B6AD31A642B01D90323B2
:101EEC0056E3534B1B6803F40033002BF0D014E083
:101EFC00FEF79AFC786208E0FEF796FC02467B6AD5
:101F0C00D31A642B01D9032342E3494B1B6803F416
:101F1C000033002BF0D100E000BF7B681B6803F09E
:101F2C000203002B00F08C80414B1B6903F038033B
:101F3C003B623F4B9B6AFB613B6A002B07D03B6AC1
:101F4C00182B37D1FB6903F00303002B32D1384B2C
:101F5C001B6803F00403002B05D07B68DB68002BA7
:101F6C0001D1012314E3324B1B6823F019027B6867
:101F7C00DB682F4913430B60FEF756FC786208E0D0
:101F8C00FEF752FC02467B6AD31A022B01D90323BB
:101F9C00FEE2274B1B6803F00403002BF0D0244B0C
:101FAC005B6823F0FE427B681B691B0620491343C8
:101FBC004B6045E07B68DB68002B26D01C4B1B6814
:101FCC0023F019027B68DB68194913430B60FEF799
:101FDC002BFC786208E0FEF727FC02467B6AD31ADA
:101FEC00022B01D90323D3E2114B1B6803F004032A
:101FFC00002BF0D00E4B5B6823F0FE427B681B6914
:10200C001B060B4913434B601AE0094B1B68084A2B
:10201C0023F001031360FEF707FC78620AE0FEF779
:10202C0003FC02467B6AD31A022B03D90323AFE2CB
:10203C0000440258964B1B6803F00403002BEED1AE
:10204C007B681B6803F01003002B6AD0904B1B6954
:10205C0003F03803BB618E4B9B6A7B61BB69082B19
:10206C0007D0BB69182B1BD17B6903F00303012B31
:10207C0016D1874B1B6803F48073002B05D07B684B
:10208C00DB69802B01D0012382E2814BDB6823F0DA
:10209C007C527B681B6A1B067D491343CB6040E076
:1020AC007B68DB69002B23D0794B1B68784A43F0A3
:1020BC0080031360FEF7B8FB786208E0FEF7B4FB10
:1020CC0002467B6AD31A022B01D9032360E2704BC0
:1020DC001B6803F48073002BF0D06D4BDB6823F08E
:1020EC007C527B681B6A1B0669491343CB6018E062
:1020FC00674B1B68664A23F080031360FEF794FB62
:10210C00786208E0FEF790FB02467B6AD31A022B3A
:10211C0001D903233CE25E4B1B6803F48073002B54
:10212C00F0D17B681B6803F00803002B36D07B686A
:10213C005B69002B19D0564B5B6F554A43F001037A
:10214C005367FEF771FB786208E0FEF76DFB024601
:10215C007B6AD31A022B01D9032319E24C4B5B6F18
:10216C0003F00203002BF0D018E0494B5B6F484A98
:10217C0023F001035367FEF757FB786208E0FEF784
:10218C0053FB02467B6AD31A022B01D90323FFE1CE
:10219C003F4B5B6F03F00203002BF0D17B681B6895
:1021AC0003F02003002B36D07B689B69002B19D0E1
:1021BC00374B1B68364A43F480531360FEF734FBED
:1021CC00786208E0FEF730FB02467B6AD31A022BDA
:1021DC0001D90323DCE12E4B1B6803F40053002BC5
:1021EC00F0D018E02A4B1B68294A23F48053136063
:1021FC00FEF71AFB786208E0FEF716FB02467B6AD4
:10220C00D31A022B01D90323C2E1214B1B6803F41F
:10221C000053002BF0D17B681B6803F00403002BE8
:10222C0000F086801B4B1B681A4A43F480731360C2
:10223C00FEF7FAFA786208E0FEF7F6FA02467B6AD5
:10224C00D31A642B01D90323A2E1124B1B6803F4AC
:10225C008073002BF0D07B689B68012B06D10C4B54
:10226C001B6F0B4A43F00103136732E07B689B68DA
:10227C00002B11D1064B1B6F054A23F0010313678A
:10228C00034B1B6F024A23F00403136721E000BFCA
:10229C0000440258004802587B689B68052B0CD1FF
:1022AC00834B1B6F824A43F004031367804B1B6FF5
:1022BC007F4A43F0010313670BE07D4B1B6F7C4A95
:1022CC0023F0010313677A4B1B6F794A23F0040345
:1022DC0013677B689B68002B15D0FEF7A5FA786214
:1022EC000AE0FEF7A1FA02467B6AD31A41F2883261
:1022FC00934201D903234BE16D4B1B6F03F0020397
:10230C00002BEED014E0FEF78FFA78620AE0FEF7AD
:10231C008BFA02467B6AD31A41F28832934201D976
:10232C00032335E1624B1B6F03F00203002BEED14C
:10233C007B685B6A002B00F02A815D4B1B6903F004
:10234C003803182B00F0BA807B685B6A022B40F0D4
:10235C009580574B1B68564A23F080731360FEF729
:10236C0063FA786208E0FEF75FFA02467B6AD31ADA
:10237C00022B01D903230BE14D4B1B6803F00073B7
:10238C00002BF0D14A4B9A6A4A4B13407A68916AF7
:10239C007A68D26A12010A43454913438B627B68FF
:1023AC001B6B013BC3F308027B685B6B013B5B025D
:1023BC009BB21A437B689B6B013B1B0403F4FE032B
:1023CC001A437B68DB6B013B1B0603F0FE43384969
:1023DC0013430B63364BDB6A354A23F00103D3629C
:1023EC00334B5A6B344B13407A68926CD2003049A1
:1023FC0013434B632E4BDB6A23F00C027B681B6C84
:10240C002B491343CB622A4BDB6A23F002027B6815
:10241C005B6C27491343CB62254BDB6A244A43F49C
:10242C008033D362224BDB6A214A43F40033D362FC
:10243C001F4BDB6A1E4A43F48023D3621C4BDB6ABE
:10244C001B4A43F00103D362194B1B68184A43F033
:10245C0080731360FEF7E8F9786208E0FEF7E4F9A0
:10246C0002467B6AD31A022B01D9032390E0104B4E
:10247C001B6803F00073002BF0D088E00C4B1B683A
:10248C000B4A23F080731360FEF7CEF9786208E0F4
:10249C00FEF7CAF902467B6AD31A022B01D9032331
:1024AC0076E0034B1B6803F00073002BF0D16EE059
:1024BC00004402580CFCFFFF0700FFFF364B9B6AE1
:1024CC003B61354B1B6BFB607B685B6A012B31D02E
:1024DC003B6903F003027B689B6A9A422AD13B69F1
:1024EC001B0903F03F027B68DB6A9A4222D1FB682E
:1024FC00C3F308027B681B6B013B9A421AD1FB6841
:10250C005B0A03F07F027B685B6B013B9A4211D143
:10251C00FB681B0C03F07F027B689B6B013B9A42B0
:10252C0008D1FB681B0E03F07F027B68DB6B013B61
:10253C009A4201D001232BE0174B5B6BDB08C3F3F2
:10254C000C033B617B689B6C3A699A421FD0124B1F
:10255C00DB6A114A23F00103D362FEF765F9786256
:10256C0000BFFEF761F902467B6A9342F9D00A4B31
:10257C005A6B0A4B13407A68926CD200064913438B
:10258C004B63054BDB6A044A43F00103D36200231F
:10259C0018463037BD4680BD004402580700FFFF87
:1025AC0080B586B000AF786039607B68002B01D1B4
:1025BC0001239CE18A4B1B6803F00F033A689A4293
:1025CC0010D9874B1B6823F00F0285493B681343D6
:1025DC000B60834B1B6803F00F033A689A4201D0DF
:1025EC00012384E17B681B6803F00403002B10D0EB
:1025FC007B681A697B4B9B6903F070039A4208D97C
:10260C00784B9B6923F070027B681B6975491343F7
:10261C008B617B681B6803F00803002B10D07B6870
:10262C005A69704BDB6903F070039A4208D96D4B01
:10263C00DB6923F070027B685B696A491343CB61E9
:10264C007B681B6803F01003002B10D07B689A6921
:10265C00644BDB6903F4E0639A4208D9614BDB6994
:10266C0023F4E0627B689B695E491343CB617B6812
:10267C001B6803F02003002B10D07B68DA69594BE0
:10268C001B6A03F070039A4208D9564B1B6A23F05D
:10269C0070027B68DB69534913430B627B681B68D0
:1026AC0003F00203002B10D07B68DA684D4B9B695A
:1026BC0003F00F039A4208D94A4B9B6923F00F028F
:1026CC007B68DB68474913438B617B681B6803F0AD
:1026DC000103002B55D0434B9B6923F470627B683C
:1026EC009B68404913438B617B685B68022B07D165
:1026FC003C4B1B6803F40033002B21D10123F6E083
:10270C007B685B68032B07D1364B1B6803F00073A7
:10271C00002B15D10123EAE07B685B68012B07D104
:10272C00304B1B6803F48073002B09D10123DEE0CE
:10273C002C4B1B6803F00403002B01D10123D6E0C2
:10274C00284B1B6923F007027B685B682549134300
:10275C000B61FEF769F878610AE0FEF765F802464E
:10276C007B69D31A41F28832934201D90323BEE02C
:10277C001C4B1B6903F038027B685B68DB009A42D8
:10278C00EBD17B681B6803F00203002B10D07B6835
:10279C00DA68144B9B6903F00F039A4208D2114B71
:1027AC009B6923F00F027B68DB680E4913438B6136
:1027BC000B4B1B6803F00F033A689A4214D2084B78
:1027CC001B6823F00F0206493B6813430B60044B54
:1027DC001B6803F00F033A689A4205D0012386E088
:1027EC0000200052004402587B681B6803F004036D
:1027FC00002B10D07B681A693F4B9B6903F0700368
:10280C009A4208D23C4B9B6923F070027B681B698F
:10281C00394913438B617B681B6803F00803002B59
:10282C0010D07B685A69344BDB6903F070039A4211
:10283C0008D2314BDB6923F070027B685B692E494F
:10284C001343CB617B681B6803F01003002B10D083
:10285C007B689A69284BDB6903F4E0639A4208D2DF
:10286C00254BDB6923F4E0627B689B6922491343A7
:10287C00CB617B681B6803F02003002B10D07B68B6
:10288C00DA691D4B1B6A03F070039A4208D21A4B8B
:10289C001B6A23F070027B68DB69174913430B62D8
:1028AC0000F034F80246144B9B691B0A03F00F032B
:1028BC001249CB5C03F01F0322FA03F33B610E4B6E
:1028CC009B6903F00F030D4AD35C03F01F033A69B5
:1028DC0022FA03F30A4A13600A4A3B6913600A4B53
:1028EC001B681846FDF756FF0346FB73FB7B184627
:1028FC001837BD4680BD00BF00440258F47502086D
:10290C000C000024080000240000002480B489B0CE
:10291C0000AFB34B1B6903F03803182B00F2558141
:10292C0001A252F823F000BF99290208D72B020804
:10293C00D72B0208D72B0208D72B0208D72B02085B
:10294C00D72B0208D72B0208BF290208D72B020865
:10295C00D72B0208D72B0208D72B0208D72B02083B
:10296C00D72B0208D72B0208C5290208D72B02083F
:10297C00D72B0208D72B0208D72B0208D72B02081B
:10298C00D72B0208D72B0208CB290208944B1B68C3
:10299C0003F02003002B09D0914B1B68DB0803F0DC
:1029AC000303904A22FA03F3BB6111E18D4BBB6127
:1029BC000EE18D4BBB610BE18C4BBB6108E1884B8D
:1029CC009B6A03F003037B61854B9B6A1B0903F035
:1029DC003F033B61824BDB6A03F00103FB60804BDE
:1029EC005B6BDB08C3F30C03FA6802FB03F307EE23
:1029FC00903AF8EE677AC7ED027A3B69002B00F04B
:102A0C00E1807B69022B00F083807B69022B00F252
:102A1C00A1807B69002B03D07B69012B56D099E0F8
:102A2C006F4B1B6803F02003002B2DD06C4B1B68E5
:102A3C00DB0803F003036B4A22FA03F37B607B6829
:102A4C0007EE903AF8EE676A3B6907EE903AF8EEBB
:102A5C00677A86EEA77A624B1B6BC3F3080307EE0B
:102A6C00903AF8EE676A97ED026ADFED615AC6EEAE
:102A7C00257A76EEA77AF7EE006A77EEA67A67EEFD
:102A8C00277AC7ED077A87E03B6907EE903AF8EEB4
:102A9C00677ADFED586A86EEA77A514B1B6BC3F34E
:102AAC00080307EE903AF8EE676A97ED026ADFEDDD
:102ABC00505AC6EE257A76EEA77AF7EE006A77EED4
:102ACC00A67A67EE277AC7ED077A65E03B6907EED1
:102ADC00903AF8EE677ADFED486A86EEA77A404BBB
:102AEC001B6BC3F3080307EE903AF8EE676A97ED99
:102AFC00026ADFED3F5AC6EE257A76EEA77AF7EE3C
:102B0C00006A77EEA67A67EE277AC7ED077A43E07C
:102B1C003B6907EE903AF8EE677ADFED386A86EE9D
:102B2C00A77A2F4B1B6BC3F3080307EE903AF8EE12
:102B3C00676A97ED026ADFED2E5AC6EE257A76EEBD
:102B4C00A77AF7EE006A77EEA67A67EE277AC7EDDA
:102B5C00077A21E03B6907EE903AF8EE677ADFEDF1
:102B6C00266A86EEA77A1E4B1B6BC3F3080307EE8F
:102B7C00903AF8EE676A97ED026ADFED1D5AC6EEE1
:102B8C00257A76EEA77AF7EE006A77EEA67A67EEEC
:102B9C00277AC7ED077A00BF114B1B6B5B0A03F05A
:102BAC007F0301333B603B6807EE903AB8EE677ADF
:102BBC00D7ED076AC6EE877AFCEEE77A17EE903A05
:102BCC00BB6105E00023BB6102E0074BBB6100BFAA
:102BDC00BB6918462437BD465DF8047B704700BFBF
:102BEC00004402580090D00300093D0040787D015C
:102BFC00000000460024744C0024744A20BCBE4BD8
:102C0C0080B582B000AFFFF781FE0246104B9B6986
:102C1C001B0A03F00F030F49CB5C03F01F0322FACE
:102C2C0003F37B600A4B9B6903F00F03094AD35CE7
:102C3C0003F01F037A6822FA03F3074A1360074A6A
:102C4C007B681360044B1B6818460837BD4680BD73
:102C5C0000440258F47502080C00002408000024FB
:102C6C0080B500AFFFF7CCFF0246064BDB691B09B2
:102C7C0003F007030449CB5C03F01F0322FA03F3B0
:102C8C00184680BD00440258F475020880B500AFA8
:102C9C00FFF7B6FF0246064BDB691B0A03F007037E
:102CAC000449CB5C03F01F0322FA03F3184680BDE2
:102CBC0000440258F47502082DE9B04FC6B000AFBD
:102CCC00C7F80401002387F81731002387F8163161
:102CDC00D7F80431D3E9002302F00064002554EA4C
:102CEC00050349D0D7F804315B6EB3F5401F2FD0E4
:102CFC00B3F5401F28D8B3F5001F1AD0B3F5001F49
:102D0C0022D8002B03D0B3F5801F07D01CE0AB4BAF
:102D1C00DB6AAA4A43F40033D3621AE0D7F80431D1
:102D2C0008330221184601F025FC034687F81731B9
:102D3C000FE0D7F8043128330221184601F0CCFCFF
:102D4C00034687F8173104E0012387F8173100E0B8
:102D5C0000BF97F81731002B0AD1984B1B6D23F449
:102D6C004011D7F804315B6E944A0B43136503E0B2
:102D7C0097F8173187F81631D7F80431D3E90023C7
:102D8C0002F480784FF0000958EA090347D0D7F8CD
:102D9C0004319B6D042B2AD801A252F823F000BFFA
:102DAC00C12D0208CF2D0208E52D0208032E0208C2
:102DBC00032E0208814BDB6A804A43F40033D36252
:102DCC001AE0D7F8043108330021184601F0D2FB81
:102DDC00034687F817310FE0D7F804312833002168
:102DEC00184601F079FC034687F8173104E00123FB
:102DFC0087F8173100E000BF97F81731002B0AD184
:102E0C006E4B1B6D23F00701D7F804319B6D6B4A99
:102E1C000B43136503E097F8173187F81631D7F891
:102E2C000431D3E9002302F4806A4FF0000B5AEA14
:102E3C000B035BD0D7F80431D3F8A430B3F5200FD3
:102E4C003BD0B3F5200F34D8B3F5000F37D0B3F522
:102E5C00000F2ED8B3F5C00F33D0B3F5C00F28D860
:102E6C00B3F5800F1AD0B3F5800F22D8002B03D006
:102E7C00B3F5001F07D01CE0504BDB6A4F4A43F4FC
:102E8C000033D3621EE0D7F8043108330021184612
:102E9C0001F070FB034687F8173113E0D7F80431C3
:102EAC0028330021184601F017FC034687F8173128
:102EBC0008E0012387F8173104E000BF02E000BFEF
:102ECC0000E000BF97F81731002B0BD13B4B9B6DEB
:102EDC0023F46001D7F80431D3F8A430374A0B43FC
:102EEC00936503E097F8173187F81631D7F804315A
:102EFC00D3E9002302F40063C7F8F8300023C7F8C5
:102F0C00FC30D7E93E120B4613435DD0D7F80431A1
:102F1C00D3F8A830B3F1A06F3BD0B3F1A06F34D885
:102F2C00B3F1806F37D0B3F1806F2ED8B3F1407FFF
:102F3C0033D0B3F1407F28D8B3F1007F1AD0B3F16E
:102F4C00007F22D8002B03D0B3F1807F07D01CE088
:102F5C001A4BDB6A194A43F40033D3621EE0D7F8EC
:102F6C00043108330021184601F004FB034687F8AE
:102F7C00173113E0D7F8043128330021184601F03B
:102F8C00ABFB034687F8173108E0012387F81731AC
:102F9C0004E000BF02E000BF00E000BF97F817316B
:102FAC00002B0DD1054B9B6D23F0E061D7F804315C
:102FBC00D3F8A830014A0B43936505E0004402584E
:102FCC0097F8173187F81631D7F80431D3E9002375
:102FDC0002F00073C7F8F0300023C7F8F430D7E9DB
:102FEC003C120B4613433AD0D7F80431DB6C302B30
:102FFC001FD0302B19D8202B0CD0202B15D8002B00
:10300C0019D0102B11D1AA4BDB6AA94A43F4003317
:10301C00D36211E0D7F8043108330221184601F0CD
:10302C00A9FA034687F8173106E0012387F8173110
:10303C0002E000BF00E000BF97F81731002B0AD167
:10304C009B4BDB6C23F03001D7F80431DB6C984AD6
:10305C000B43D36403E097F8173187F81631D7F890
:10306C000431D3E9002302F48053C7F8E83000237D
:10307C00C7F8EC30D7E93A120B46134351D0D7F8C6
:10308C000431DB6DB3F5804F35D0B3F5804F2ED8BE
:10309C00B3F5405F31D0B3F5405F28D8B3F5005F8E
:1030AC001AD0B3F5005F22D8002B03D0B3F5805FA4
:1030BC0007D01CE07E4BDB6A7D4A43F40033D362BD
:1030CC001CE0D7F8043108330021184601F052FAFD
:1030DC00034687F8173111E0D7F804312833002163
:1030EC00184601F0F9FA034687F8173106E0012378
:1030FC0087F8173102E000BF00E000BF97F81731E6
:10310C00002B0AD16A4B1B6D23F4E041D7F8043134
:10311C00DB6D674A0B43136503E097F8173187F8AB
:10312C001631D7F80431D3E9002302F40053C7F861
:10313C00E0300023C7F8E430D7E938120B461343CC
:10314C0053D0D7F804311B6EB3F5A02F33D0B3F5A1
:10315C00A02F2CD8B3F5802F2FD0B3F5802F26D8E5
:10316C00B3F5403F2BD0B3F5403F20D8B3F5003F2B
:10317C0012D0B3F5003F1AD8002B22D0B3F5803F04
:10318C0015D1D7F8043108330121184601F0F2F9B2
:10319C00034687F8173115E0D7F80431283301219D
:1031AC00184601F099FA034687F817310AE0012313
:1031BC0087F8173106E000BF04E000BF02E000BF53
:1031CC0000E000BF97F81731002B0AD1384B1B6D6C
:1031DC0023F4E021D7F804311B6E354A0B431365F9
:1031EC0003E097F8173187F81631D7F80431D3E993
:1031FC00002302F48043C7F8D8300023C7F8DC3032
:10320C00D7E936120B46134358D0D7F80431D3F80C
:10321C00AC30B3F1A04F33D0B3F1A04F2CD8B3F1F5
:10322C00804F2FD0B3F1804F26D8B3F1405F2BD015
:10323C00B3F1405F20D8B3F1005F12D0B3F1005F5F
:10324C001AD8002B22D0B3F1805F15D1D7F80431F6
:10325C0008330121184601F08DF9034687F8173120
:10326C0015E0D7F8043128330121184601F034FA5F
:10327C00034687F817310AE0012387F8173106E077
:10328C0000BF04E000BF02E000BF00E000BF97F801
:10329C001731002B0ED1064B9B6D23F0E041D7F874
:1032AC000431D3F8AC30024A0B43936506E000BFFF
:1032BC000044025897F8173187F81631D7F80431C3
:1032CC00D3E9002302F40043C7F8D0300023C7F839
:1032DC00D430D7E934120B46134337D0D7F8043126
:1032EC00DB6EB3F1005F0ED0B3F1005F16D8002B8C
:1032FC0018D0B3F1805F11D1C44BDB6AC34A43F4DD
:10330C000033D3620FE0D7F804310833012118469B
:10331C0001F030F9034687F8173104E0012387F8F0
:10332C00173100E000BF97F81731002B0AD1B74BCB
:10333C001B6D23F04051D7F80431DB6EB34A0B43BD
:10334C00136503E097F8173187F81631D7F8043175
:10335C00D3E9002302F08073C7F8C8300023C7F804
:10336C00CC30D7E932120B46134339D0D7F804319D
:10337C009B6C032B1CD801A252F823F0C533020816
:10338C0099330208A7330208C53302089F4BDB6A46
:10339C009E4A43F40033D3620FE0D7F8043108336C
:1033AC000221184601F0E6F8034687F8173104E0CD
:1033BC00012387F8173100E000BF97F81731002B75
:1033CC000AD1924BDB6C23F00301D7F804319B6CD0
:1033DC008E4A0B43D36403E097F8173187F8163104
:1033EC00D7F80431D3E9002302F48003C7F8C030C6
:1033FC000023C7F8C430D7E930120B46134300F052
:10340C009980834B1B68824A43F480731360FDF7E9
:10341C000BFAC7F810010BE0FDF706FA0246D7F8D5
:10342C001031D31A642B03D9032387F8173105E025
:10343C00774B1B6803F48073002BEDD097F8173192
:10344C00002B73D1714B1A6FD7F80431D3F8B0300D
:10345C00534003F44073002B15D06C4B1B6F23F4BB
:10346C004073C7F80C31694B1B6F684A43F48033C7
:10347C001367664B1B6F654A23F480331367634AEB
:10348C00D7F80C311367D7F80431D3F8B030B3F553
:10349C00807F18D1FDF7C8F9C7F810010DE0FDF7D2
:1034AC00C3F90246D7F81031D21A41F288339A4246
:1034BC0003D9032387F8173105E0544B1B6F03F036
:1034CC000203002BEBD097F81731002B29D1D7F83A
:1034DC000431D3F8B03003F44073B3F5407F0ED110
:1034EC004A4B1B6923F47C51D7F80431D3F8B03024
:1034FC001A09484B1340454A0B43136105E0434BF3
:10350C001B69424A23F47C531361404B196FD7F863
:10351C000431D3F8B030C3F30B033C4A0B431367AD
:10352C0008E097F8173187F8163103E097F8173150
:10353C0087F81631D7F80431D3E9002302F00103E0
:10354C00C7F8B8300023C7F8BC30D7E92E120B46A9
:10355C00134300F08F80D7F804319B6F282B71D860
:10356C0001A252F823F000BF593602085136020866
:10357C0051360208513602085136020851360208FB
:10358C005136020851360208253602085136020817
:10359C0051360208513602085136020851360208DB
:1035AC0051360208513602083B36020851360208E1
:1035BC0051360208513602085136020851360208BB
:1035CC0051360208513602085936020851360208A3
:1035DC00513602085136020851360208513602089B
:1035EC005136020851360208593602085136020883
:1035FC00513602085136020851360208513602087B
:10360C005136020851360208593602080044025855
:10361C0000480258CFFFFF00D7F8043108330121CE
:10362C00184600F0A7FF034687F817310FE0D7F8CC
:10363C00043128330121184601F04EF8034687F86F
:10364C00173104E0012387F8173100E000BF97F829
:10365C001731002B0AD1BF4B5B6D23F03801D7F823
:10366C0004319B6FBB4A0B43536503E097F817314A
:10367C0087F81631D7F80431D3E9002302F002039E
:10368C00C7F8B0300023C7F8B430D7E92C120B467A
:10369C00134341D0D7F804315B6F052B24D801A21A
:1036AC0052F823F0FD360208C9360208DF3602084C
:1036BC00FD360208FD360208FD360208D7F8043143
:1036CC0008330121184600F055FF034687F81731DF
:1036DC000FE0D7F8043128330121184600F0FCFF25
:1036EC00034687F8173104E0012387F8173100E00F
:1036FC0000BF97F81731002B0AD1964B5B6D23F066
:10370C000701D7F804315B6F924A0B43536503E012
:10371C0097F8173187F81631D7F80431D3E900231D
:10372C0002F00403C7F8A8300023C7F8AC30D7E97F
:10373C002A120B46134344D0D7F80431D3F89030F7
:10374C00052B25D801A252F823F000BFA53702089B
:10375C007137020887370208A5370208A537020817
:10376C00A5370208D7F8043108330121184600F0B8
:10377C0001FF034687F817310FE0D7F804312833DF
:10378C000121184600F0A8FF034687F8173104E022
:10379C00012387F8173100E000BF97F81731002B91
:1037AC000BD16C4B9B6D23F00701D7F80431D3F888
:1037BC009030684A0B43936503E097F8173187F80C
:1037CC001631D7F80431D3E9002302F02003C7F8EF
:1037DC00A0300023C7F8A430D7E928120B461343B6
:1037EC0055D0D7F80431D3F88C30B3F1A04F33D087
:1037FC00B3F1A04F2CD8B3F1804F2FD0B3F1804F41
:10380C0026D8B3F1405F2BD0B3F1405F20D8B3F191
:10381C00005F12D0B3F1005F1AD8002B22D0B3F1A5
:10382C00805F15D1D7F8043108330021184600F019
:10383C00A1FE034687F8173115E0D7F80431283379
:10384C000221184600F048FF034687F817310AE0BA
:10385C00012387F8173106E000BF04E000BF02E047
:10386C0000BF00E000BF97F81731002B0BD1394B8C
:10387C005B6D23F0E041D7F80431D3F88C30354A36
:10388C000B43536503E097F8173187F81631D7F8D7
:10389C000431D3E9002302F04003C7F89830002329
:1038AC00C7F89C30D7E926120B46134358D0D7F8EB
:1038BC000431D3F89830B3F5A05F33D0B3F5A05FE3
:1038CC002CD8B3F5805F2FD0B3F5805F26D8B3F535
:1038DC00406F2BD0B3F5406F20D8B3F5006F12D0EA
:1038EC00B3F5006F1AD8002B22D0B3F5806F15D129
:1038FC00D7F8043108330021184600F03BFE03468C
:10390C0087F8173115E0D7F804312833022118460F
:10391C0000F0E2FE034687F817310AE0012387F82E
:10392C00173106E000BF04E000BF02E000BF00E07A
:10393C0000BF97F81731002B0ED1064B9B6D23F46B
:10394C00E051D7F80431D3F89830024A0B43936511
:10395C0006E000BF0044025897F8173187F816317B
:10396C00D7F80431D3E9002302F08003C7F8903074
:10397C000023C7F89430D7E924120B46134355D0D3
:10398C00D7F80431D3F89C30B3F5204F33D0B3F5CE
:10399C00204F2CD8B3F5004F2FD0B3F5004F26D8BD
:1039AC00B3F5C04F2BD0B3F5C04F20D8B3F5804F33
:1039BC0012D0B3F5804F1AD8002B22D0B3F5005F8C
:1039CC0015D1D7F8043108330021184600F0D2FD88
:1039DC00034687F8173115E0D7F804312833022154
:1039EC00184600F079FE034687F817310AE00123E8
:1039FC0087F8173106E000BF04E000BF02E000BF0B
:103A0C0000E000BF97F81731002B0BD1A04B9B6D3A
:103A1C0023F46041D7F80431D3F89C309C4A0B4313
:103A2C00936503E097F8173187F81631D7F804310E
:103A3C00D3E9002302F00803C7F888300023C7F845
:103A4C008C30D7E922120B4613431ED0D7F8043121
:103A5C00D3F88030B3F5805F0CD1D7F8043128331C
:103A6C000221184600F038FE0346002B02D0012339
:103A7C0087F81631864B5B6D23F44051D7F804312F
:103A8C00D3F88030824A0B435365D7F80431D3E91D
:103A9C00002302F01003C7F880300023C7F88430ED
:103AAC00D7E920120B4613431ED0D7F80431D3F8B4
:103ABC009430B3F5807F0CD1D7F804312833022130
:103ACC00184600F009FE0346002B02D0012387F8AC
:103ADC0016316F4B9B6D23F44071D7F80431D3F83A
:103AEC0094306B4A0B439365D7F80431D3E9002328
:103AFC0002F40023BB670023FB67D7E91E120B46B9
:103B0C0013433ED0D7F80431D3F8A030B3F5003FBF
:103B1C0022D0B3F5003F1BD8002B03D0B3F5803F68
:103B2C000BD015E0D7F8043108330021184600F00B
:103B3C0021FD034687F817310FE0D7F804312833FD
:103B4C000221184600F0C8FD034687F8173104E03F
:103B5C00012387F8173100E000BF97F81731002BCD
:103B6C000BD14B4B9B6D23F44031D7F80431D3F878
:103B7C00A030474A0B43936503E097F8173187F859
:103B8C001631D7F80431D3E9002302F480233B67C4
:103B9C0000237B67D7E91C120B4613433BD0D7F8A5
:103BAC000431D3F88430B3F5401F1FD0B3F5401F58
:103BBC0018D8B3F5801F03D0B3F5001F07D011E060
:103BCC00334BDB6A324A43F40033D3620FE0D7F84D
:103BDC00043128330121184600F07EFD034687F896
:103BEC00173104E0012387F8173100E000BF97F884
:103BFC001731002B0BD1264B5B6D23F44011D7F8FA
:103C0C000431D3F88430224A0B43536503E097F810
:103C1C00173187F81631D7F80431D3E9002302F4B1
:103C2C008033BB660023FB66D7E91A120B4613439D
:103C3C0034D0D7F804311B6D002B03D0B3F5803F83
:103C4C0007D011E0124BDB6A114A43F40033D36204
:103C5C000EE0D7F8043108330221184600F08AFC34
:103C6C00034687F8173103E0012387F8173100BFAB
:103C7C0097F81731002B0DD1054BDB6C23F48031F9
:103C8C00D7F804311B6D024A0B43D36406E000BF26
:103C9C000044025897F8173187F81631D7F80431D9
:103CAC00D3E9002302F000533B6600237B66D7E97F
:103CBC0018120B4613430CD0D7F8043128330221C9
:103CCC00184600F009FD0346002B02D0012387F8AB
:103CDC001631D7F80431D3E9002302F40033BB6565
:103CEC000023FB65D7E916120B46134336D0D7F8E1
:103CFC000431DB6FB3F5407F18D0B3F5407F11D89A
:103D0C00B3F5007F14D0B3F5007F0BD8002B11D086
:103D1C00B3F5807F06D1B74BDB6AB64A43F4003368
:103D2C00D36208E0012387F8173104E000BF02E0FA
:103D3C0000BF00E000BF97F81731002B0AD1AD4B44
:103D4C005B6D23F44071D7F80431DB6FA94A0B4348
:103D5C00536503E097F8173187F81631D7F804311B
:103D6C00D3E9002302F480133B6500237B65D7E97C
:103D7C0014120B46134309D09E4B1B6D23F00041CC
:103D8C00D7F804311B6F9B4A0B431365D7F80431EA
:103D9C00D3E9002302F40013BB640023FB64D7E9CE
:103DAC0012120B46134309D0924B1B6D23F08071FA
:103DBC00D7F804319B6E8F4A0B431365D7F8043147
:103DCC00D3E9002302F080433B6400237B64D7E9F2
:103DDC0010120B4613430ED0864B1B69854A23F4F5
:103DEC0000431361834B1969D7F80431D3F8B4300D
:103DFC00804A0B431361D7F80431D3E9002302F056
:103E0C000043BB630023FB63D7E90E120B4613433D
:103E1C0009D0784BDB6C23F04051D7F804315B6D43
:103E2C00744A0B43D364D7F80431D3E9002302F46A
:103E3C0000033B6300237B63D7E90C120B4613434F
:103E4C000AD06C4B5B6D23F44001D7F80431D3F8E6
:103E5C008830684A0B435365D7F80431D3E9002303
:103E6C000021B96203F00103FB62D7E90A120B4689
:103E7C00134311D0D7F8043108330021184600F051
:103E8C0079FB034687F8173197F81731002B03D0CD
:103E9C0097F8173187F81631D7F80431D3E9002396
:103EAC000021396203F002037B62D7E908120B464A
:103EBC00134311D0D7F8043108330121184600F010
:103ECC0059FB034687F8173197F81731002B03D0AD
:103EDC0097F8173187F81631D7F80431D3E9002356
:103EEC000021B96103F00403FB61D7E906120B460C
:103EFC00134311D0D7F8043108330221184600F0CF
:103F0C0039FB034687F8173197F81731002B03D08C
:103F1C0097F8173187F81631D7F80431D3E9002315
:103F2C000021396103F008037B61D7E904120B46C9
:103F3C00134311D0D7F8043128330021184600F070
:103F4C00CBFB034687F8173197F81731002B03D0BA
:103F5C0097F8173187F81631D7F80431D3E90023D5
:103F6C000021B96003F01003FB60D7E902120B4685
:103F7C00134311D0D7F8043128330121184600F02F
:103F8C00ABFB034687F8173197F81731002B03D09A
:103F9C0097F8173187F81631D7F80431D3E9002395
:103FAC000021396003F020037B60D7E900120B4637
:103FBC00134311D0D7F8043128330221184600F0EE
:103FCC008BFB034687F8173197F81731002B03D07A
:103FDC0097F8173187F8163197F81631002B01D165
:103FEC00002300E00123184607F58C77BD46BDE899
:103FFC00B08F00BF0044025880B500AFFEF700FE42
:10400C000246064B1B6A1B0903F007030449CB5CF1
:10401C0003F01F0322FA03F3184680BD0044025834
:10402C00F475020880B489B000AF7860A14B9B6A2C
:10403C0003F00303BB619F4B9B6A1B0B03F03F0315
:10404C007B619C4BDB6A1B0903F001033B61994BC1
:10405C00DB6BDB08C3F30C033A6902FB03F307EEDB
:10406C00903AF8EE677AC7ED037A7B69002B00F083
:10407C001181BB69022B00F08380BB69022B00F21B
:10408C00A180BB69002B03D0BB69012B56D099E0F2
:10409C00884B1B6803F02003002B2DD0854B1B682D
:1040AC00DB0803F00303844A22FA03F3BB60BB680A
:1040BC0007EE903AF8EE676A7B6907EE903AF8EEF5
:1040CC00677A86EEA77A7B4B9B6BC3F3080307EEEC
:1040DC00903AF8EE676A97ED036ADFED785AC6EE10
:1040EC00257A76EEA77AF7EE006A77EEA67A67EE77
:1040FC00277AC7ED077A87E07B6907EE903AF8EEEE
:10410C00677ADFED6F6A86EEA77A6A4B9B6BC3F317
:10411C00080307EE903AF8EE676A97ED036ADFED55
:10412C00675AC6EE257A76EEA77AF7EE006A77EE36
:10413C00A67A67EE277AC7ED077A65E07B6907EE0A
:10414C00903AF8EE677ADFED5F6A86EEA77A594B04
:10415C009B6BC3F3080307EE903AF8EE676A97ED92
:10416C00036ADFED565AC6EE257A76EEA77AF7EE9D
:10417C00006A77EEA67A67EE277AC7ED077A43E0F6
:10418C007B6907EE903AF8EE677ADFED4F6A86EEC0
:10419C00A77A484B9B6BC3F3080307EE903AF8EEF3
:1041AC00676A97ED036ADFED455AC6EE257A76EE1F
:1041BC00A77AF7EE006A77EEA67A67EE277AC7ED54
:1041CC00077A21E07B6907EE903AF8EE677ADFED2B
:1041DC003D6A86EEA77A374B9B6BC3F3080307EE59
:1041EC00903AF8EE676A97ED036ADFED345AC6EE43
:1041FC00257A76EEA77AF7EE006A77EEA67A67EE66
:10420C00277AC7ED077A00BF2A4B9B6B5B0A03F03A
:10421C007F0307EE903AF8EE677AB7EE007A37EE46
:10422C00877AD7ED076AC6EE877AFCEEE77A17EE47
:10423C00902A7B681A601F4B9B6B1B0C03F07F034F
:10424C0007EE903AF8EE677AB7EE007A37EE877A97
:10425C00D7ED076AC6EE877AFCEEE77A17EE902A5E
:10426C007B685A60134B9B6B1B0E03F07F0307EEAE
:10427C00903AF8EE677AB7EE007A37EE877AD7ED98
:10428C00076AC6EE877AFCEEE77A17EE902A7B680F
:10429C009A6008E07B6800221A607B6800225A60F2
:1042AC007B6800229A6000BF2437BD465DF8047B12
:1042BC00704700BF004402580090D0030000004635
:1042CC000024744C0024744A20BCBE4B80B489B0CA
:1042DC0000AF7860A14B9B6A03F00303BB619F4B5B
:1042EC009B6A1B0D03F03F037B619C4BDB6A1B0A33
:1042FC0003F001033B61994B5B6CDB08C3F30C03CC
:10430C003A6902FB03F307EE903AF8EE677AC7EDD1
:10431C00037A7B69002B00F01181BB69022B00F042
:10432C008380BB69022B00F2A180BB69002B03D0F8
:10433C00BB69012B56D099E0884B1B6803F0200316
:10434C00002B2DD0854B1B68DB0803F00303844A3C
:10435C0022FA03F3BB60BB6807EE903AF8EE676A8B
:10436C007B6907EE903AF8EE677A86EEA77A7B4B7C
:10437C001B6CC3F3080307EE903AF8EE676A97EDEF
:10438C00036ADFED785AC6EE257A76EEA77AF7EE59
:10439C00006A77EEA67A67EE277AC7ED077A87E090
:1043AC007B6907EE903AF8EE677ADFED6F6A86EE7E
:1043BC00A77A6A4B1B6CC3F3080307EE903AF8EE2E
:1043CC00676A97ED036ADFED675AC6EE257A76EEDB
:1043DC00A77AF7EE006A77EEA67A67EE277AC7ED32
:1043EC00077A65E07B6907EE903AF8EE677ADFEDC5
:1043FC005F6A86EEA77A594B1B6CC3F3080307EE72
:10440C00903AF8EE676A97ED036ADFED565AC6EEFE
:10441C00257A76EEA77AF7EE006A77EEA67A67EE43
:10442C00277AC7ED077A43E07B6907EE903AF8EEFE
:10443C00677ADFED4F6A86EEA77A484B1B6CC3F3A5
:10444C00080307EE903AF8EE676A97ED036ADFED22
:10445C00455AC6EE257A76EEA77AF7EE006A77EE25
:10446C00A67A67EE277AC7ED077A21E07B6907EE1B
:10447C00903AF8EE677ADFED3D6A86EEA77A374B15
:10448C001B6CC3F3080307EE903AF8EE676A97EDDE
:10449C00036ADFED345AC6EE257A76EEA77AF7EE8C
:1044AC00006A77EEA67A67EE277AC7ED077A00BF27
:1044BC002A4B1B6C5B0A03F07F0307EE903AF8EE75
:1044CC00677AB7EE007A37EE877AD7ED076AC6EED1
:1044DC00877AFCEEE77A17EE902A7B681A601F4BFE
:1044EC001B6C1B0C03F07F0307EE903AF8EE677A17
:1044FC00B7EE007A37EE877AD7ED076AC6EE877A81
:10450C00FCEEE77A17EE902A7B685A60134B1B6C13
:10451C001B0E03F07F0307EE903AF8EE677AB7EEC6
:10452C00007A37EE877AD7ED076AC6EE877AFCEE0B
:10453C00E77A17EE902A7B689A6008E07B68002285
:10454C001A607B6800225A607B6800229A6000BF68
:10455C002437BD465DF8047B704700BF0044025809
:10456C000090D003000000460024744C0024744AD0
:10457C0020BCBE4B80B584B000AF7860396000239E
:10458C00FB73534B9B6A03F00303032B01D10123F1
:10459C0099E04F4B1B684E4A23F080631360FCF785
:1045AC0043F9B86008E0FCF73FF90246BB68D31A40
:1045BC00022B01D9032386E0454B1B6803F00063F3
:1045CC00002BF0D1424B9B6A23F47C327B681B6836
:1045DC001B033F4913438B627B685B68013BC3F34E
:1045EC0008027B689B68013B5B029BB21A437B68A9
:1045FC00DB68013B1B0403F4FE031A437B681B6955
:10460C00013B1B0603F0FE43314913438B63304BD4
:10461C00DB6A23F0C0027B685B692D491343CB62D4
:10462C002B4BDB6A23F020027B689B6928491343E0
:10463C00CB62274BDB6A264A23F01003D362244B50
:10464C00DA6B244B13407A68D269D20020491343A9
:10465C00CB631F4BDB6A1E4A43F01003D3623B68EB
:10466C00002B06D11A4BDB6A194A43F40023D362A0
:10467C000FE03B68012B06D1154BDB6A144A43F45F
:10468C008013D36205E0124BDB6A114A43F400132A
:10469C00D3620F4B1B680E4A43F080631360FCF728
:1046AC00C3F8B86008E0FCF7BFF80246BB68D31A41
:1046BC00022B01D9032306E0054B1B6803F00063B2
:1046CC00002BF0D0FB7B18461037BD4680BD00BFD9
:1046DC00004402580700FFFF80B584B000AF78603B
:1046EC0039600023FB73534B9B6A03F00303032BCA
:1046FC0001D1012399E04F4B1B684E4A23F08053A4
:10470C001360FCF791F8B86008E0FCF78DF80246EE
:10471C00BB68D31A022B01D9032386E0454B1B68D7
:10472C0003F00053002BF0D1424B9B6A23F07C72B8
:10473C007B681B681B053F4913438B627B685B6876
:10474C00013BC3F308027B689B68013B5B029BB295
:10475C001A437B68DB68013B1B0403F4FE031A431A
:10476C007B681B69013B1B0603F0FE433149134375
:10477C000B64304BDB6A23F440627B685B692D4928
:10478C001343CB622B4BDB6A23F400727B689B696F
:10479C0028491343CB62274BDB6A264A23F48073E8
:1047AC00D362244B5A6C244B13407A68D269D200E2
:1047BC00204913434B641F4BDB6A1E4A43F480733E
:1047CC00D3623B68002B06D11A4BDB6A194A43F4BF
:1047DC008003D3620FE03B68012B06D1154BDB6ADB
:1047EC00144A43F40003D36205E0124BDB6A114A0E
:1047FC0043F08073D3620F4B1B680E4A43F0805317
:10480C001360FCF711F8B86008E0FCF70DF80246ED
:10481C00BB68D31A022B01D9032306E0054B1B6896
:10482C0003F00053002BF0D0FB7B18461037BD462D
:10483C0080BD00BF004402580700FFFF80B582B066
:10484C0000AF78607B68002B01D1012342E07B68CC
:10485C00D3F88830002B06D17B68002283F88420A3
:10486C00786802F091FA7B682422C3F888207B6870
:10487C001B681A687B681B6822F001021A607B684F
:10488C009B6A002B02D0786801F0E0FB786800F09E
:10489C0071FD0346012B01D101231BE07B681B68D2
:1048AC005A687B681B6822F490425A607B681B68CC
:1048BC009A687B681B6822F02A029A607B681B68E6
:1048CC001A687B681B6842F001021A60786801F074
:1048DC005FFC034618460837BD4680BD80B58AB0DC
:1048EC0002AFF860B9603B601346FB80FB68D3F8FD
:1048FC008830202B7BD1BB68002B02D0FB88002B8F
:10490C0001D1012374E0FB680022C3F89020FB68FE
:10491C002122C3F88820FBF787FF7861FB68FA88AF
:10492C00A3F85420FB68FA88A3F85620FB689B6810
:10493C00B3F5805F08D1FB681B69002B04D1002301
:10494C00FB61BB68BB6103E0BB68FB610023BB611F
:10495C0030E03B6800937B6900228021F86801F00D
:10496C00C1FC0346002B05D0FB682022C3F888202D
:10497C0003233DE0FB69002B0BD1BB691B881A4656
:10498C00FB681B68C2F308029A62BB690233BB6105
:10499C0007E0FB691A78FB681B689A62FB690133B4
:1049AC00FB61FB68B3F856309BB2013B9AB2FB68D3
:1049BC00A3F85620FB68B3F856309BB2002BC8D135
:1049CC003B6800937B6900224021F86801F08AFC67
:1049DC000346002B05D0FB682022C3F88820032354
:1049EC0006E0FB682022C3F88820002300E00223A5
:1049FC0018462037BD4680BD80B58AB002AFF8603E
:104A0C00B9603B601346FB80FB68D3F88C30202BDD
:104A1C0040F0B580BB68002B02D0FB88002B01D185
:104A2C000123ADE0FB680022C3F89020FB68222232
:104A3C00C3F88C20FB680022DA66FBF7F5FE786180
:104A4C00FB68FA88A3F85C20FB68FA88A3F85E2060
:104A5C00FB689B68B3F5805F0ED1FB681B69002B6C
:104A6C0005D1FB6840F2FF12A3F860202DE0FB6833
:104A7C00FF22A3F8602028E0FB689B68002B0DD177
:104A8C00FB681B69002B04D1FB68FF22A3F8602094
:104A9C001BE0FB687F22A3F8602016E0FB689B6894
:104AAC00B3F1805F0DD1FB681B69002B04D1FB684F
:104ABC007F22A3F8602008E0FB683F22A3F8602067
:104ACC0003E0FB680022A3F86020FB68B3F86030B9
:104ADC007B82FB689B68B3F5805F08D1FB681B6920
:104AEC00002B04D10023FB61BB68BB6103E0BB68F6
:104AFC00FB610023BB6136E03B6800937B690022BD
:104B0C002021F86801F0EEFB0346002B05D0FB6872
:104B1C002022C3F88C20032332E0FB69002B0CD13C
:104B2C00FB681B685B6A9AB27B8A13409AB2BB69BA
:104B3C001A80BB690233BB610CE0FB681B685B6AC3
:104B4C00DAB27B8ADBB21340DAB2FB691A70FB690A
:104B5C000133FB61FB68B3F85E309BB2013B9AB248
:104B6C00FB68A3F85E20FB68B3F85E309BB2002BA9
:104B7C00C2D1FB682022C3F88C20002300E0022362
:104B8C0018462037BD4680BD80B5BAB000AF7860FE
:104B9C007B681B68DB69C7F8E4307B681B681B68A3
:104BAC00C7F8E0307B681B689B68C7F8DC30D7F827
:104BBC00E42040F60F031340C7F8D830D7F8D830AC
:104BCC00002B1BD1D7F8E43003F02003002B15D0B9
:104BDC00D7F8E03003F02003002B05D1D7F8DC30F8
:104BEC0003F08053002B09D07B685B6F002B00F027
:104BFC0093837B685B6F786898478DE3D7F8D830E0
:104C0C00002B00F02381D7F8DC208D4B1340002BB8
:104C1C0006D1D7F8E0208B4B1340002B00F0168107
:104C2C00D7F8E43003F00103002B11D0D7F8E030B3
:104C3C0003F48073002B0BD07B681B6801221A6273
:104C4C007B68D3F8903043F001027B68C3F8902066
:104C5C00D7F8E43003F00203002B11D0D7F8DC3086
:104C6C0003F00103002B0BD07B681B6802221A6235
:104C7C007B68D3F8903043F004027B68C3F8902033
:104C8C00D7F8E43003F00403002B11D0D7F8DC3054
:104C9C0003F00103002B0BD07B681B6804221A6203
:104CAC007B68D3F8903043F002027B68C3F8902005
:104CBC00D7F8E43003F00803002B17D0D7F8E03016
:104CCC0003F02003002B05D1D7F8DC205C4B1340FC
:104CDC00002B0BD07B681B6808221A627B68D3F808
:104CEC00903043F008027B68C3F89020D7F8E4308A
:104CFC0003F40063002B12D0D7F8E03003F080638C
:104D0C00002B0CD07B681B684FF400621A627B6826
:104D1C00D3F8903043F020027B68C3F890207B6876
:104D2C00D3F89030002B00F0F982D7F8E43003F080
:104D3C002003002B13D0D7F8E03003F02003002B16
:104D4C0005D1D7F8DC3003F08053002B07D07B68FB
:104D5C005B6F002B03D07B685B6F786898477B6830
:104D6C00D3F89030C7F8D4307B681B689B6803F08D
:104D7C004003402B05D0D7F8D43003F02803002B88
:104D8C0054D0786801F01CFB7B681B689B6803F0AF
:104D9C004003402B46D17B681B680833C7F89C3016
:104DAC00D7F89C3053E8003FC7F89830D7F89830C4
:104DBC0023F04003C7F8D0307B681B680833D7F862
:104DCC00D020C7F8A820C7F8A430D7F8A410D7F87B
:104DDC00A82041E80023C7F8A030D7F8A030002B5A
:104DEC00D9D17B68D3F88030002B17D07B68D3F8EF
:104DFC008030154A1A657B68D3F880301846FCF76A
:104E0C00C5F90346002B19D07B68D3F880301B6D95
:104E1C007A68D2F88020104698470FE0786800F046
:104E2C0093FA0BE0786800F08FFA07E0786800F0EE
:104E3C008BFA7B680022C3F890206FE200BF6DE212
:104E4C000100001020010004996402087B68DB6EED
:104E5C00012B40F00382D7F8E43003F01003002B51
:104E6C0000F0FC81D7F8E03003F01003002B00F0C9
:104E7C00F5817B681B6810221A627B681B689B6833
:104E8C0003F04003402B40F06D817B68D3F88030F9
:104E9C001B68A44A934268D07B68D3F880301B68A7
:104EAC00A14A934261D07B68D3F880301B689F4A3B
:104EBC0093425AD07B68D3F880301B689C4A93424B
:104ECC0053D07B68D3F880301B689A4A93424CD0FD
:104EDC007B68D3F880301B68974A934245D07B6837
:104EEC00D3F880301B68954A93423ED07B68D3F848
:104EFC0080301B68924A934237D07B68D3F880305D
:104F0C001B68904A934230D07B68D3F880301B6882
:104F1C008D4A934229D07B68D3F880301B688B4A2A
:104F2C00934222D07B68D3F880301B68884A934226
:104F3C001BD07B68D3F880301B68864A934214D010
:104F4C007B68D3F880301B68834A93420DD07B6812
:104F5C00D3F880301B68814A934206D07B68D3F823
:104F6C0080301B687E4A934206D17B68D3F8803030
:104F7C001B685B689BB205E07B68D3F880301B68CC
:104F8C005B689BB2A7F8BE30B7F8BE30002B00F0C0
:104F9C00AD807B68B3F85C30B7F8BE209A4280F0E5
:104FAC00A5807B68B7F8BE20A3F85E207B68D3F899
:104FBC008030DB69B3F5807F00F087807B681B68ED
:104FCC00C7F88830D7F8883053E8003FC7F88430EA
:104FDC00D7F8843023F48073C7F8B8307B681B682B
:104FEC001A46D7F8B830C7F89430C7F89020D7F8DD
:104FFC009010D7F8942041E80023C7F88C30D7F8EC
:10500C008C30002BDAD17B681B6808337B677B6F95
:10501C0053E8003F3B673B6F23F00103C7F8B43004
:10502C007B681B680833D7F8B420C7F88020FB676F
:10503C00F96FD7F8802041E80023BB67BB6F002BCA
:10504C00E1D17B681B6808333B663B6E53E8003F3D
:10505C00FB65FB6D23F04003C7F8B0307B681B6821
:10506C000833D7F8B020FA66BB66B96EFA6E41E821
:10507C0000237B667B6E002BE3D17B682022C3F878
:10508C008C207B680022DA667B681B68FB64FB6CF7
:10509C0053E8003FBB64BB6C23F01003C7F8AC3083
:1050AC007B681B681A46D7F8AC30BB657A65796D9E
:1050BC00BA6D41E800233B653B6D002BE4D17B6866
:1050CC00D3F880301846FBF743FD7B6802221A6741
:1050DC007B68B3F85C207B68B3F85E309BB2D31A64
:1050EC009BB21946786800F039F919E17B68B3F87E
:1050FC005C30B7F8BE209A4240F012817B68D3F83E
:10510C008030DB69B3F5807F40F00A817B68022236
:10511C001A677B68B3F85C301946786800F01EF9A2
:10512C00FEE000BF10000240280002404000024098
:10513C00580002407000024088000240A00002406B
:10514C00B80002401004024028040240400402400F
:10515C00580402407004024088040240A00402403B
:10516C00B80402407B68B3F85C207B68B3F85E300F
:10517C009BB2D31AA7F8CE307B68B3F85E309BB2E3
:10518C00002B00F0CF80B7F8CE30002B00F0CA8097
:10519C007B681B68BB63BB6B53E8003F7B637B6B1B
:1051AC0023F49073C7F8C8307B681B681A46D7F88D
:1051BC00C8307B643A64396C7A6C41E80023FB6339
:1051CC00FB6B002BE4D17B681B6808337B627B6A2A
:1051DC0053E8003F3B623A6A554B1340C7F8C43062
:1051EC007B681B680833D7F8C4203A63FB62F96A02
:1051FC003A6B41E80023BB62BB6A002BE3D17B68AE
:10520C002022C3F88C207B680022DA667B6800229F
:10521C005A677B681B683B613B6953E8003FFB6046
:10522C00FB6823F01003C7F8C0307B681B681A4674
:10523C00D7F8C030FB61BA61B969FA6941E800235B
:10524C007B617B69002BE4D17B6802221A67B7F87B
:10525C00CE301946786800F081F863E0D7F8E43076
:10526C0003F48013002B0ED0D7F8DC3003F480034A
:10527C00002B08D07B681B684FF480121A62786888
:10528C0001F041F951E0D7F8E43003F08003002B32
:10529C0014D0D7F8E03003F08003002B05D1D7F8F9
:1052AC00DC3003F40003002B08D07B689B6F002BD1
:1052BC003AD07B689B6F7868984735E0D7F8E43034
:1052CC0003F04003002B09D0D7F8E03003F0400383
:1052DC00002B03D0786801F0EBF826E0D7F8E43027
:1052EC0003F40003002B09D0D7F8E03003F080431F
:1052FC00002B03D0786801F01AF916E0D7F8E430E7
:10530C0003F08073002B10D0D7F8E030002B0CDAB0
:10531C00786801F002F908E000BF06E000BF04E085
:10532C0000BF02E000BF00E000BFE837BD4680BD13
:10533C00FEFFFFEF80B483B000AF786000BF0C3786
:10534C00BD465DF8047B704780B483B000AF7860D5
:10535C0000BF0C37BD465DF8047B704780B483B04A
:10536C0000AF78600B467B8000BF0C37BD465DF804
:10537C00047B70472DE9B04F92B000AF78610023E9
:10538C0087F842307B699A687B691B691A437B6991
:10539C005B691A437B69DB6913437B647B691B681C
:1053AC001A68BE4B13407A691268796C0B43136010
:1053BC007B691B685B6823F440517B69DA687B6905
:1053CC001B680A435A607B699B697B647B691B6819
:1053DC00B34A934204D07B691B6A7A6C13437B6497
:1053EC007B691B689A68AF4B13407A691268796CB9
:1053FC000B4393607B691B68DB6A23F00F017B69AD
:10540C005A6A7B691B680A43DA627B691B68A64A85
:10541C00934277D1A54B5B6D03F03803282B6DD8E5
:10542C0001A252F823F000BFD95402080955020812
:10543C0009550208095502080955020809550208C0
:10544C000955020809550208E154020809550208D9
:10545C0009550208095502080955020809550208A0
:10546C000955020809550208E954020809550208B1
:10547C000955020809550208095502080955020880
:10548C000955020809550208F15402080955020889
:10549C000955020809550208095502080955020860
:1054AC000955020809550208F95402080955020861
:1054BC000955020809550208095502080955020840
:1054CC00095502080955020801550208012387F8FD
:1054DC00433026E3042387F8433022E3082387F87C
:1054EC0043301EE3102387F843301AE3202387F858
:1054FC00433016E3402387F8433012E3802387F8C8
:10550C0043300EE37B691B68694A934230D1674B89
:10551C005B6D03F00703052B26D801A252F823F08C
:10552C00455502084D550208555502085D550208AF
:10553C00655502086D550208002387F84330F0E2E8
:10554C00042387F84330ECE2082387F84330E8E281
:10555C00102387F84330E4E2202387F84330E0E25D
:10556C00402387F84330DCE2802387F84330D8E2CD
:10557C007B691B684F4A934230D14C4B5B6D03F0F7
:10558C000703052B26D801A252F823F0B1550208C7
:10559C00B9550208C1550208C9550208D15502086F
:1055AC00D9550208002387F84330BAE2042387F860
:1055BC004330B6E2082387F84330B2E2102387F871
:1055CC004330AEE2202387F84330AAE2402387F829
:1055DC004330A6E2802387F84330A2E27B691B6844
:1055EC00354A934230D1314B5B6D03F00703052BE9
:1055FC0026D801A252F823F01D560208255602089F
:10560C002D560208355602083D560208455602082A
:10561C00002387F8433084E2042387F8433080E288
:10562C00082387F843307CE2102387F8433078E274
:10563C00202387F8433074E2402387F8433070E22C
:10564C00802387F843306CE27B691B681B4A9342CA
:10565C0042D1164B5B6D03F00703052B38D801A222
:10566C0052F823F0895602089156020899560208FE
:10567C00A1560208CD560208D5560208002387F819
:10568C0043304EE2042387F843304AE2082387F87C
:10569C00433046E2102387F8433042E2F369FFCFF0
:1056AC00000C0058FFF4FF11001001400044025898
:1056BC000044004000480040004C004000500040B6
:1056CC00202387F843302CE2402387F8433028E22C
:1056DC00802387F8433024E27B691B68B14A9342EC
:1056EC0076D1B14B5B6D03F03803282B6CD801A23B
:1056FC0052F823F0A5570208D5570208D5570208CF
:10570C00D5570208D5570208D5570208D5570208B5
:10571C00D5570208AD570208D5570208D5570208CD
:10572C00D5570208D5570208D5570208D557020895
:10573C00D5570208B5570208D5570208D5570208A5
:10574C00D5570208D5570208D5570208D557020875
:10575C00D5570208BD570208D5570208D55702087D
:10576C00D5570208D5570208D5570208D557020855
:10577C00D5570208C5570208D5570208D557020855
:10578C00D5570208D5570208D5570208D557020835
:10579C00D5570208CD570208012387F84330C0E1E2
:1057AC00042387F84330BCE1082387F84330B8E181
:1057BC00102387F84330B4E1202387F84330B0E15D
:1057CC00402387F84330ACE1802387F84330A8E1CD
:1057DC007B691B68754A934230D1734B5B6D03F048
:1057EC000703052B26D801A252F823F01158020802
:1057FC001958020821580208295802083158020881
:10580C0039580208002387F843308AE1042387F8CB
:10581C00433086E1082387F8433082E1102387F870
:10582C0043307EE1202387F843307AE1402387F828
:10583C00433076E1802387F8433072E17B691B6843
:10584C005B4A934230D1584B5B6D03F00703052B39
:10585C0026D801A252F823F07D5802088558020878
:10586C008D580208955802089D580208A558020840
:10587C00002387F8433054E1042387F8433050E188
:10588C00082387F843304CE1102387F8433048E174
:10589C00202387F8433044E1402387F8433040E12C
:1058AC00802387F843303CE17B691B68414A934273
:1058BC0040F082803C4B5B6D03F03803282B6DD895
:1058CC0001A252F823F000BF79590208A959020825
:1058DC00A9590208A9590208A9590208A95902088C
:1058EC00A9590208A959020881590208A9590208A4
:1058FC00A9590208A9590208A9590208A95902086C
:10590C00A9590208A959020889590208A95902087B
:10591C00A9590208A9590208A9590208A95902084B
:10592C00A9590208A959020891590208A959020853
:10593C00A9590208A9590208A9590208A95902082B
:10594C00A9590208A959020899590208A95902082B
:10595C00A9590208A9590208A9590208A95902080B
:10596C00A9590208A9590208A1590208012387F86C
:10597C004330D6E0042387F84330D2E0082387F87D
:10598C004330CEE0102387F84330CAE0202387F859
:10599C004330C6E0402387F84330C2E0802387F8C9
:1059AC004330BEE00014014000440258007800402F
:1059BC00007C0040001801407B691B68AD4A934293
:1059CC0076D1AD4B5B6D03F03803282B6CD801A25C
:1059DC0052F823F0855A0208B55A0208B55A020843
:1059EC00B55A0208B55A0208B55A0208B55A020847
:1059FC00B55A02088D5A0208B55A0208B55A02085F
:105A0C00B55A0208B55A0208B55A0208B55A020826
:105A1C00B55A0208955A0208B55A0208B55A020836
:105A2C00B55A0208B55A0208B55A0208B55A020806
:105A3C00B55A02089D5A0208B55A0208B55A02080E
:105A4C00B55A0208B55A0208B55A0208B55A0208E6
:105A5C00B55A0208A55A0208B55A0208B55A0208E6
:105A6C00B55A0208B55A0208B55A0208B55A0208C6
:105A7C00B55A0208AD5A0208012387F8433050E0AA
:105A8C00042387F843304CE0082387F8433048E080
:105A9C00102387F8433044E0202387F8433040E05C
:105AAC00402387F843303CE0802387F8433038E0CC
:105ABC007B691B68714A934230D16F4B9B6D03F02D
:105ACC000703052B26D801A252F823F0F15A02083D
:105ADC00F95A0208015B0208095B0208115B020813
:105AEC00195B0208022387F843301AE0042387F875
:105AFC00433016E0082387F8433012E0102387F870
:105B0C0043300EE0202387F843300AE0402387F827
:105B1C00433006E0802387F8433002E0802387F887
:105B2C0043307B691B68554A934240F0F88097F8E4
:105B3C004330202B46DC022B75DB023B1E2B72D82C
:105B4C0001A252F823F000BFD75B0208335C0208B5
:105B5C00DF5B0208335C0208335C0208335C02082A
:105B6C00EF5B0208335C0208335C0208335C02080A
:105B7C00335C0208335C0208335C0208335C0208B5
:105B8C00FF5B0208335C0208335C0208335C0208DA
:105B9C00335C0208335C0208335C0208335C020895
:105BAC00335C0208335C0208335C0208335C020885
