:020000040800F2
:100000000000052409230008751E00087D1E000855
:10001000851E00088D1E0008951E000800000000C7
:100020000000000000000000000000009D1E00080D
:10003000AB1E000800000000B91E0008C71E000823
:100040005D2300085D2300085D2300085D23000890
:100050005D2300085D2300085D2300085D23000880
:100060005D2300085D2300085D2300085D23000870
:100070005D2300085D2300085D2300085D23000860
:100080005D2300085D2300085D2300085D23000850
:100090005D2300085D2300085D2300085D23000840
:1000A0005D230008D51E00085D2300085D230008BD
:1000B0005D2300085D2300085D2300085D23000820
:1000C0005D2300085D2300085D2300085D23000810
:1000D0005D230008E91E00085D2300085D23000879
:1000E0005D2300085D230008000000005D23000878
:1000F0005D2300085D2300085D2300085D230008E0
:100100005D2300085D2300085D2300085D230008CF
:100110005D2300085D230008FD1E00085D23000824
:100120005D2300085D2300085D2300085D230008AF
:100130005D2300085D2300085D2300085D2300089F
:1001400000000000000000000000000000000000AF
:100150005D2300085D2300085D2300085D2300087F
:100160005D2300085D2300085D2300085D2300086F
:100170005D2300085D2300085D23000800000000E7
:100180005D2300085D2300085D2300085D2300084F
:100190005D2300085D2300085D2300085D2300083F
:1001A0005D2300085D2300085D23000800000000B7
:1001B0005D2300085D2300085D2300085D2300081F
:1001C0005D2300085D23000800000000000000001F
:1001D00000000000000000005D2300080000000097
:1001E000000000000000000000000000000000000F
:1001F00000000000000000005D2300085D230008EF
:100200005D2300085D230008000000005D23000856
:100210005D2300085D2300085D2300085D230008BE
:100220005D230008000000005D23000800000000BE
:100230005D2300085D230008000000005D23000826
:100240005D2300085D2300085D2300085D2300088E
:100250005D2300085D2300085D2300085D2300087E
:100260005D2300085D2300085D2300085D2300086E
:100270005D2300085D2300085D23000800000000E6
:100280005D2300085D2300085D2300085D2300084E
:10029000000000005D2300085D230008000000004E
:1002A000000000005D2300085D2300085D230008B6
:1002B0005D2300085D2300085D2300085D2300081E
:0C02C0005D2300085D2300085D2300089A
:1002D00010B5054C237833B9044B13B10448AFF380
:1002E00000800123237010BDAC000024000000003A
:1002F000E060010808B5034B1BB103490348AFF3A5
:10030000008008BD00000000B0000024E06001088B
:10031000034613F8012B002AFBD1181A0138704745
:1003200001F0FF01102A2BDB10F0070F08D010F8A6
:10033000013B013A8B422DD010F0070F42B3F6D1AA
:10034000F0B441EA012141EA014122F007047FF0C3
:1003500000070023F0E80256083C85EA010586EA1A
:10036000010685FA47F5A3FA87F586FA47F6A5FA56
:1003700087F68EB9EED1F0BC01F0FF0102F0070262
:1003800032B110F8013B013A83EA010313B1F8D10D
:100390000020704701387047002D06BF35460338EE
:1003A000073815F0010F07D1013015F4807F02BF27
:1003B000013015F4C03F0130F0BC0138704700BF78
:1003C00053B94AB9002908BF00281CBF4FF0FF31BC
:1003D0004FF0FF3000F088B9ADF1080C6DE904CEA4
:1003E00000F006F8DDF804E0DDE9022304B0704710
:1003F0002DE9F047089D8E4604468846002B4AD1D9
:100400008A42174662D9B2FA82F64EB1C6F120038B
:1004100001FA06F820FA03F3B74043EA0808B440AB
:100420004FEA174E1FFA87FCB8FBFEF1230C0EFBB8
:10043000118843EA084301FB0CF29A4209D9FB18E0
:1004400001F1FF3080F0EA809A4240F2E780023901
:100450003B449A1AA3B2B2FBFEF00EFB102243EA11
:10046000024300FB0CFC9C4509D9FB1800F1FF324C
:1004700080F0D6809C4540F2D3803B44023840EA6D
:100480000140A3EB0C0300211DB1F3400022C5E99C
:100490000032BDE8F0878B4205D90DB1C5E90001F6
:1004A00000210846F5E7B3FA83F1002946D17345E8
:1004B00002D3824200F20581841A6EEB030201200E
:1004C0009046002DE5D0C5E90048E2E7002A00F09B
:1004D0009080B2FA82F6002E40F0A4808A1A030CB3
:1004E0004FEA174E80B2BCB20121B2FBFEFC0EFBFC
:1004F0001C2243EA024304FB0CF29A4207D9FB1880
:100500000CF1FF3802D29A4200F2E080C4469B1AF6
:10051000B3FBFEF20EFB123340EA034302FB04F48A
:100520009C4207D9FB1802F1FF3002D29C4200F234
:10053000CA8002461B1B42EA0C40A5E7C1F1200617
:100540008B4022FA06F71F430EFA01F420FA06F355
:100550002EFA06FE4FEA1749234300FA01F81FFA64
:1005600087FCBEFBF9F01C0C09FB10EE44EA0E44BC
:1005700000FB0CFEA64502FA01F209D93C1900F174
:10058000FF3A80F09C80A64540F2998002383C44B6
:10059000A4EB0E041FFA83FEB4FBF9F309FB13442A
:1005A0004EEA044403FB0CFCA44508D93C1903F1B2
:1005B000FF3E80F08280A4457FD9023B3C4443EA61
:1005C0000040A4EB0C04A0FB02EC64457346E1463A
:1005D00062D35FD05DB1B8EB030264EB090404FAA7
:1005E00006F622FA01F31E43CC40C5E9006400215F
:1005F0004FE7B1FBF2FC010C41EA0E4180B240EA48
:1006000001423B4638463C46B846BE462026B1FB32
:10061000F7F1A2EB080241EA0C4166E7014618E750
:1006200010462CE7C6F120022EFA02F3B740B14083
:1006300020FA02F24FEA174E0A43B3FBFEF8BCB2AF
:100640000EFB1833110C41EA034108FB04F9B040DA
:1006500089454FEA104380B23ED9791808F1FF3C32
:1006600001D289451FD8A1EB0901B1FBFEF909FBB5
:1006700004F80EFB191192B242EA0142424529D216
:10068000BA1809F1FF31C4D24245C2D2A9F1020120
:100690003A44BEE7F0459DD2BEEB02036CEB070C7B
:1006A0000138E14696E7A7EB09094944A8F1020C95
:1006B000B1FBFEF909FB04F8DBE773467FE7504620
:1006C00066E70846FDE63B44023A33E7ACF1020C2C
:1006D0003B441CE749469CE7A1EB0901C446B1FB3A
:1006E000FEF909FB04F8C4E7704700BF80B487B087
:1006F00000AFF860B9607A60BB68002B01D10023BD
:100700001DE0FB68DB43FB6000237B6111E0BA68FE
:100710007B6913441B781A46FB685340DBB20B4AD3
:1007200052F82320FB681B0A5340FB607B690133AE
:100730007B617A697B689A42E9D3FB68DB431846A0
:100740001C37BD465DF8047B704700BF4865010853
:1007500080B582B000AF786039603A68796800206F
:10076000FFF7C4FF034618460837BD4680BD0000AA
:1007700080B588B000AF07F10C0300221A605A6000
:100780009A60DA601A61234BD3F8E030214A43F0D3
:100790008003C2F8E0301F4BD3F8E03003F0800351
:1007A000BB60BB681B4BD3F8E0301A4A43F002032E
:1007B000C2F8E030174BD3F8E03003F002037B605F
:1007C0007B68144BD3F8E030124A43F00103C2F8BF
:1007D000E030104BD3F8E03003F001033B603B689E
:1007E00001224FF400410C4803F04EF84FF400434F
:1007F000FB6001233B6100237B610023BB6107F1A8
:100800000C031946044802F097FE00BF2037BD468E
:1008100080BD00BF004402580000025880B483B07D
:1008200000AF00237B6014E07B68DA000E4B1344BA
:10083000D3E900010D4A7B68DB001344D3E90023B0
:10084000994208BF904201D0002306E07B68013343
:100850007B607B68032BE7DD012318460C37BD4620
:100860005DF8047B704700BF00000E0810000024F4
:1008700080B483B000AF00237B6014E07B68DA00B3
:100880000E4B1344D3E900010D4A7B68DB0013448F
:10089000D3E90023994208BF904201D0002306E02B
:1008A0007B6801337B607B68032BE7DD01231846FF
:1008B0000C37BD465DF8047B704700BF20000E0872
:1008C00010000024F0B482B000AF4FF000001249D5
:1008D000124A914217DA51F8043B51F8044B51F88F
:1008E000045B51F8046BB3F1FF3F09D1B4F1FF3F52
:1008F00006D1B5F1FF3F03D1B6F1FF3F00D1E8E7E4
:1009000000F10100E5E7844663467B607B6818469A
:100910000837BD46F0BC704700000208FFFF05081D
:10092000F0B482B000AF4FF000001249124A914279
:1009300017DA51F8043B51F8044B51F8045B51F8B5
:10094000046BB3F1FF3F09D1B4F1FF3F06D1B5F11C
:10095000FF3F03D1B6F1FF3F00D1E8E700F101000E
:10096000E5E7844663467B607B6818460837BD46EA
:10097000F0BC704700000608FFFF090880B588B08A
:1009800000AF03460A46FB711346BB7102F070FCD0
:100990000023BB600023FB602023FB6101233B613C
:1009A000FB797B61BB79BB6107F1080207F10C039E
:1009B0001146184602F0ECFC0346002B03D102F06E
:1009C00079FC012302E002F075FC00231846203771
:1009D000BD4680BD80B586B000AF78607B681B786F
:1009E00001337B617B69043B19467868FFF7B0FEF1
:1009F00038610023BB607B69043B7A6813441B6841
:100A0000BB60BB683A699A420CD0084BFB60F8683F
:100A1000FFF77EFC03469AB24FF0FF33F9680448B3
:100A200006F0B4F800BF1837BD4680BDF860010875
:100A30009402002480B588B000AF78607B681B7892
:100A40000133FB61FB69043B19467868FFF780FEC0
:100A5000B8610023FB60FB69043B7A6813441B68A0
:100A6000FB60FB68BA699A420DD10F4B3B61386954
:100A7000FFF74EFC03469AB24FF0FF3339690B483B
:100A800006F084F80CE00A4B7B617869FFF740FCC4
:100A900003469AB24FF0FF337969044806F076F8BE
:100AA00000BF2037BD4680BD0861010894020024C4
:100AB000F860010880B400AF034B00221A6000BF49
:100AC000BD465DF8047B7047F40100242DE9904396
:100AD000ADF23C5D02AF07F5A663A3F22C5318609C
:100AE00007F5A663A3F58B631F335B095C0107F56C
:100AF0007D73184608F0BCF907F57D738022D24952
:100B0000184608F0B5FB07F5A663A3F22C531B6843
:100B10001B780133C7F82035D7F820351A1F07F5A1
:100B2000A663A3F22C5311461868FFF711FEC7F80D
:100B30001C05D7F82035043B07F5A662A2F22C521B
:100B4000126813441B681A4607F5A663A3F5A07341
:100B50001A6007F5A663A3F5A0731B68D7F81C25D8
:100B60009A4207D04FF0FF330C22B849B84806F03C
:100B70000DF85FE207F5A663A3F22C531B6802335E
:100B80001B681A4607F5A663A3F5A2731A6007F55A
:100B9000A663A3F22C531B6806331A7807F5A663E5
:100BA000A3F245131A7007F5A663A3F22C531B6832
:100BB0000733C7F8183507F5A663A3F5A2731B68BA
:100BC000A44A934208D007F5A663A3F5A2731B6855
:100BD000A14A934240F05F81D7F818351B681A4646
:100BE00007F5A663A3F543731A60D7F818350433E5
:100BF0001B681A4607F5A663A3F544731A6007F548
:100C0000A663A3F544731B68B3F57A3F09D94FF087
:100C1000FF33182291498E4805F0B8FFFFF74AFFCD
:100C200008E2D7F818350833C7F8143507F5A66376
:100C3000A3F54673D7F818251068516803C3D7F891
:100C400018351B681A4607F5A663A3F547731A60A3
:100C500007F5A663A3F5A2731B68E033C4F8E4307C
:100C600007F5A663A3F547731B68C4F8E0307C4B17
:100C7000C7F82C351CE0D7F82C351B68C7F80C35A5
:100C800007F5A663A3F547731B68D7F80C259A42AE
:100C900009D34FF0FF33182272496D4805F076FFF3
:100CA000FFF708FFC6E1D7F82C352033C7F82C35FD
:100CB000D7F82C35D3E90023B3F1FF3F08BFB2F1D9
:100CC000FF3FD8D107F10C0207F506700023082179
:100CD00014F020FD07F12C0318460DF0F3F807F18E
:100CE0002C030321184610F00DFB07F12C03883369
:100CF00020225D49184609F02FFF5C4907F12C03BB
:100D000094332022184609F027FF07F12C03A03363
:100D10000121184609F08CFC07F50273184609F00A
:100D200046FA07F5FE73184609F041FA07F5027313
:100D30002022D7F81415184609F00EFFD7F81435FD
:100D400003F1200107F5FE732022184609F004FF85
:100D500007F12C0303F1880207F10C0107F12C00C5
:100D600007F5FE73019307F50273009313462022E3
:100D70000DF090F8C7F8100507F50273184609F052
:100D800029FA07F5FE73184609F024FA07F12C0337
:100D900018460DF0A2F8D7F81035002B09D04FF007
:100DA000FF331C2232492A4805F0F0FEFFF782FE8D
:100DB00040E14022FF21204614F0DCFDD4E9382335
:100DC000C4E9002302F054FA254BC7F82835D7F8B8
:100DD0002835D3F80080D3F8049042464B46C7E943
:100DE0007C23D7E97C23B3F1FF3F08BFB2F1FF3F7B
:100DF00005D0D7F828352033C7F82835E7E700BFF6
:100E0000D7F8283503F01F03002B07D04FF0FF332E
:100E1000162218490E4805F0B9FE0BE123461A4682
:100E2000D7F82815012002F0B3F90346002B25D08E
:100E300002F040FA4FF0FF330E220F49044805F04C
:100E4000A5FEFFF737FEF5E088690108F8600108A4
:100E50009402002400000208000006081461010842
:100E60008076010830610108486901086869010855
:100E70004C6101086C6101088461010802F01AFAF2
:100E80006F4B01221A604FF0FF331A226D496E48F2
:100E900005F07CFECEE06A4B1B68012B07D04FF0BB
:100EA000FF331E226949684805F070FEC2E007F56D
:100EB000A663A3F5A2731B68B3F1006F17D307F500
:100EC000A663A3F245131B781A4607F5A663A3F59C
:100ED000A2731B681344B3F1026F08D807F5A66329
:100EE000A3F5A2731B6803F01F03002B07D04FF07C
:100EF000FF3311225649544805F048FE9AE007F5A1
:100F00004273E022FF21184614F034FD07F5A66372
:100F1000A3F245131B781A4607F54273D7F8181544
:100F2000184614F06BFD07F57D7007F50A73019301
:100F300007F542730093474BE022002109F0A7F820
:100F40000346002B07D04FF0FF33112242493E48A1
:100F500005F01CFE6EE0BFF34F8F00BFBFF36F8F35
:100F600000BF3E4B5B693D4A23F4003353613B4B6A
:100F70000022C3F85022BFF34F8F00BFBFF36F8F23
:100F800000BF00BF02F074F90346002B07D04FF0FA
:100F9000FF330F2232492C4805F0F8FD4AE0E022E9
:100FA000FF21204614F0E6FC07F5A663A3F24513E3
:100FB0001B781A4607F50A731946204614F01EFDE1
:100FC0000023C7F8243522E007F5A663A3F5A27332
:100FD0001A68D7F82435D118D7F82435DB08DB0098
:100FE00023441A46012002F0D3F80346002B09D00F
:100FF00002F060F94FF0FF330E221A49124805F053
:10100000C5FD17E0D7F824352033C7F8243507F598
:10101000A663A3F245131B781A46D7F824359342EA
:10102000D2D302F047F94FF0FF330A220E490648A7
:1010300005F0ACFD07F23457BD46BDE8908300BF14
:10104000F40100249461010894020024B0610108B5
:10105000CC61010800000024E061010800ED00E01F
:10106000F4610108846101080462010880B58CB054
:1010700000AF78607B681B780133FB62FB6A043B3E
:1010800019467868FFF764FBB86200233B61FB6A8E
:10109000043B7A6813441B683B613B69BA6A9A4215
:1010A00071D10023FB607B6802331B68FB60FB6827
:1010B0003D4A93420BD0FB683C4A934207D04FF025
:1010C000FF3315223A493B4805F060FD69E0FB68B3
:1010D000354A934229D102210120FFF74FFC0346F4
:1010E000012B14D101210720FFF748FC0346012BF7
:1010F0000DD1314BBB61B869FFF70AF903469AB2CB
:101100004FF0FF33B9692B4805F040FD49E02B4B08
:101110007B617869FFF7FCF803469AB24FF0FF3322
:101120007969244805F032FD3BE0FB681F4A934291
:1011300037D102210320FFF721FC0346012B14D1F4
:1011400001210720FFF71AFC0346012B0DD11C4B90
:101150003B62386AFFF7DCF803469AB24FF0FF3380
:10116000396A144805F012FD1BE0164BFB61F86963
:10117000FFF7CEF803469AB24FF0FF33F9690D48F6
:1011800005F004FD0DE0104B7B62786AFFF7C0F8B4
:1011900003469AB24FF0FF33796A064805F0F6FC31
:1011A00000BF3037BD4680BD0000020800000608C1
:1011B00010620108940200242862010844620108B8
:1011C0005C62010878620108F860010880B5AEB081
:1011D00000AF78607B681B780133C7F8B430D7F86C
:1011E000B430043B19467868FFF7B2FAC7F8B0008C
:1011F000D7F8B430043B7A6813441B68C7F8A030B2
:10120000D7F8A030D7F8B0209A4210D01A4BC7F8C0
:10121000A430D7F8A400FFF77BF803469AB24FF04A
:10122000FF33D7F8A410154805F0B0FC20E0FFF715
:1012300049FBC7F8AC00FFF773FBC7F8A800D7F865
:10124000AC301A01D7F8A8301B0107F108000C498F
:1012500014F044FB07F108031846FFF759F803465A
:101260009AB207F108014FF0FF33044805F08EFCF5
:10127000B837BD4680BD00BFF86001089402002465
:101280009462010880B5E6B002AF07F5C873A3F514
:10129000C673186007F5C873A3F5C6731B681B787F
:1012A0000133C7F884310023C7F86831D7F8843197
:1012B000043B07F5C872A2F5C672126813441B6896
:1012C000C7F86831D7F884311A1F07F5C873A3F53A
:1012D000C67311461868FFF73BFAC7F88001D7F8C4
:1012E0006831D7F880219A4207D04FF0FF330E22A1
:1012F0009849994805F04AFC28E107F5C873A3F519
:10130000C6731B680233C7F87C310023C7F8643109
:10131000D7F87C311B68C7F864310023C7F8603107
:10132000D7F87C3104331B68C7F86031D7F87C31BB
:101330000833C7F87831D7F87C312833C7F87431CF
:1013400007F1D403184612F0FFF907F1D403002186
:10135000184612F017FAD7F86431E033C7F8643151
:101360000023C7F88C3117E0D7F86421D7F88C3107
:1013700013441A7807F5C873A3F281131A7007F1A2
:101380000F0107F1D4030122184613F0AFFFD7F87D
:101390008C310133C7F88C31D7F86031D7F88C2104
:1013A0009A42E1D307F5A07207F1D403114618461B
:1013B00014F011F807F1D403184612F0D2F907F52A
:1013C000A07320221946D7F8780114F0A9FA034631
:1013D000002B07D04FF0FF33152260495E4805F01F
:1013E000D5FBB3E007F1280318460CF06BFD07F1BD
:1013F0002803032118460FF085FF07F128038833DF
:1014000020225749184609F0A7FB564907F128033F
:1014100094332022184609F09FFB07F12803A033DC
:101420000121184609F004F907F11C03184608F0D9
:10143000BEFE07F11003184608F0B9FE07F11C03C1
:101440002022D7F87411184609F086FBD7F87431BA
:1014500003F1200107F110032022184609F07CFB5C
:1014600007F1280303F1880207F5A07107F12800AE
:1014700007F11003019307F11C0300931346202288
:101480000CF008FDC7F8700107F11C03184608F0BE
:10149000A1FE07F11003184608F09CFE07F128038F
:1014A00018460CF01AFDD7F87031002B07D04FF01A
:1014B000FF3321222C49284805F068FB46E001F063
:1014C000D7FE0023C7F888310023C7F86C31D7F85E
:1014D0006431264A934206D1254BC7F88831254B03
:1014E000C7F86C3115E0D7F86431234A934206D12E
:1014F000224BC7F88831224BC7F86C3109E04FF016
:10150000FF3318221F49144805F040FB01F0D2FEBA
:101510001CE01D4B1A46D7F88811012001F038FE57
:101520000346002B09D04FF0FF331A2217490A480F
:1015300005F02CFB01F0BEFE08E001F0BBFE4FF011
:10154000FF331F221249044805F020FB07F5C87736
:10155000BD4680BDEC62010894020024FC620108D3
:10156000486901086869010814630108E00002087D
:1015700000000E0800000C08E000060820000E081D
:1015800020000C083863010810000024546301088F
:1015900070630108B0B5ACB000AF78607B681B78B1
:1015A0000133C7F8A430D7F8A430043B1946786853
:1015B000FFF7CEF8C7F8A0000023C7F89830D7F897
:1015C000A430043B7A6813441B68C7F89830D7F8F6
:1015D0009830D7F8A0209A4252D1334BC7F8AC309C
:1015E000012387F8AB304FF0FF330F222F493048EB
:1015F00005F0CCFAD7F8AC301C685D6822462B4663
:10160000C7E92423D7E92423B3F1FF3F08BFB2F190
:10161000FF3F07D14FF0FF3305222649244805F04C
:10162000B5FA3DE0D7F89030C7F88C3097F8AB307A
:10163000002B06D14FF0FF3302221F491C4805F052
:10164000A5FAD7F88C2007F10C031C49184614F0B2
:1016500045F907F10C031846FEF75AFE03469AB205
:1016600007F10C014FF0FF33114805F08FFA00230A
:1016700087F8AB30D7F8AC302033C7F8AC30B9E7D7
:101680000F4BC7F89C30D7F89C00FEF741FE03468D
:101690009AB24FF0FF33D7F89C10054805F076FA60
:1016A00000BFB037BD46B0BD00000A089463010812
:1016B00094020024A4630108AC630108B06301082C
:1016C000BC63010880B586B000AF786072B600BF19
:1016D0007B681B687B617B6804331B683B617B69AB
:1016E000BB60BB6883F3088800BF054A7B689360D2
:1016F0003B69FB60FB68984700BF1837BD4680BD5B
:1017000000ED00E080B582B000AF78607B680F4AE2
:10171000934208D1FFF782F80346002B01D0012342
:101720000FE000230DE07B68094A934208D1FFF7E0
:101730009FF80346002B01D0012302E0002300E0C4
:10174000002318460837BD4680BD00BFE0000208F0
:10175000E000060880B485B000AF78607B68FB606D
:10176000FB681B68054A93420CBF01230023DBB2D0
:1017700018461437BD465DF8047B7047EFBEADDEFA
:10178000F0B5A3B000AF786007F18803803B1F334A
:101790005B095E017B68C7F88430D7F884305B68EA
:1017A000B3F1FF3F2ED17B68C7F880304FF0FF3395
:1017B0003364002373644022FF21304614F0DAF8CA
:1017C000354606F140040FCC0FC594E80F0085E8BC
:1017D0000F0001F04DFD33461A46D7F88010012066
:1017E00001F0D6FC0346002B06D04FF0FF33282231
:1017F0000849094805F0CAF901F05CFDD7F88030C6
:10180000C7F88430D7F884305B68DBB218468C3771
:10181000BD46F0BDD063010894020024F0B5A3B02A
:1018200000AF786007F18803803B1F335B095E01DE
:101830007B68B3F1FF3F07D14FF0FF3323221B49F1
:101840001B4805F0A3F92DE07B68C7F8843001211F
:101850000620FFF793F84FF0FF33336401237364DE
:101860004022FF21304614F085F8354606F1400449
:101870000FCC0FC594E80F0085E80F0001F0F8FCCD
:1018800033461A467968012001F082FC0346002B9A
:1018900006D04FF0FF331A220649054805F076F9C5
:1018A00001F008FD8C37BD46F0BD00BFF8630108AC
:1018B000940200241C64010880B483B000AF0023AC
:1018C0007B600A4B3B6005E07B6801337B603B68D3
:1018D00020333B603B681B68B3F1FF3FF4D17B686A
:1018E00018460C37BD465DF8047B704780760108CA
:1018F0002DE9F0438BB000AF6B461E465A4B7B621E
:10190000FFF7DAFFB861B9694B1E7B610A46002315
:10191000904699464FF000024FF000034FEA09232A
:1019200043EA18634FEA08220A46002314461D467C
:101930004FF000024FF000032B0243EA146322022F
:101940000B465B0118330733DB08DB00ADEB030DFF
:101950006B461F335B095B013B6100233B6211E077
:101960007A6A02F120037B623B6A591C3962396949
:101970005B010B441C4615460FCD0FC495E80F00C4
:1019800084E80F007B6A1B68B3F1FF3F08D07B6AD5
:101990005B68B3F1FF3F03D03A6ABB699A42DFDB71
:1019A0003B6A002B07D14FF0FF331C222F493048F0
:1019B00005F0ECF852E02F4BFB60FB681B682E4AE9
:1019C00093424AD03B6A013BFB613AE03A69FB69CA
:1019D0005B01134404331B68BB60284B7B60786851
:1019E000FFF7CEFE0346FB70B868FFF78BFE034699
:1019F000002B07D14FF0FF33292221491C4805F065
:101A0000C5F81BE0FB78002B0DD14FF0FF332922E6
:101A10001C49174805F0BAF87868FFF7FFFEB86868
:101A2000FFF750FE0AE07868FFF794FE0346002BAC
:101A300003D0B868FFF746FE10E000BFFB69013B2A
:101A4000FB61FB69002BC1DA4FF0FF3330220E49F6
:101A5000074805F09BF8B54601E000BFB5462C37B6
:101A6000BD46BDE8F08300BF8076010840640108F0
:101A70009402002400000A08EFBEADDE00000C084E
:101A80006064010880640108A864010880B582B020
:101A900000AF0023FB714FF4967200212E4813F023
:101AA00069FF4FF0FF3301222B492C4805F0FCF869
:101AB000294B1B78FB71FB799AB24FF0FF33284911
:101AC000264805F0F1F8244B5B78503B102BE2D808
:101AD00001A252F823F000BF1D1B0008251B0008BF
:101AE000971A00082D1B0008351B00083D1B000835
:101AF000971A0008971A0008451B0008971A000853
:101B0000971A0008971A0008971A0008971A0008F1
:101B1000971A0008971A00084D1B00080E48FEF798
:101B200089FF18E00C48FEF7D1FF14E00A48FFF7E0
:101B30004DFB10E00848FFF799FA0CE00648FEF765
:101B400049FF08E00448FFF79DFB04E00248FFF767
:101B500021FD00BF9FE79EE7C800002494020024F7
:101B6000C900002480B500AF00F086F800F0F8FB53
:101B700000F012F8FEF7FCFD00F0A8FA00F006FBFA
:101B800006F03AFFFFF7B4FE01210520FEF7F6FE4E
:101B9000FFF77CFF00BFFDE780B59CB000AF07F109
:101BA00024034C220021184613F0E4FE3B1D2022A2
:101BB0000021184613F0DEFE022001F07FFE002314
:101BC0003B602C4B9B692B4A23F440439361294B88
:101BD0009B6903F440433B603B6800BF254B9B6916
:101BE00003F40053B3F5005FF8D121237B624FF477
:101BF0008033BB620123FB630223BB640223FB64CB
:101C000001233B6544237B650123BB650B23FB65F7
:101C100002233B660C237B660023BB664FF4C05354
:101C2000FB6607F12403184601F082FE0346002BF1
:101C300001D000F087F83F237B600323BB600023C3
:101C4000FB6008233B6140237B614023BB614FF471
:101C50008063FB6140233B623B1D0321184602F079
:101C600041FA0346002B01D000F06CF800BF70373A
:101C7000BD4680BD0048025880B584B000AF3B46E9
:101C800000221A605A609A60DA6000F0A5FC012315
:101C90003B7000237B7000237B601F233B728723F4
:101CA0007B720023BB720023FB7201233B73012371
:101CB0007B730023BB730023FB733B46184600F085
:101CC000C3FC01237B704FF040537B6009233B72C0
:101CD00000237B720323FB7200233B7300237B737F
:101CE0000123FB733B46184600F0AEFC02237B70D9
:101CF0000A4B7B600D233B720123BB7201237B7374
:101D00000023FB733B46184600F09EFC042000F0C5
:101D10007BFC00BF1037BD4680BD00BF00400030D7
:101D200080B582B000AF78607B681B68044A93423C
:101D300001D100F051FB00BF0837BD4680BD00BF98
:101D40000000014080B400AF72B600BF00BFFDE7E5
:101D500080B483B000AF0A4BD3F8F430084A43F0A4
:101D60000203C2F8F430064BD3F8F43003F0020358
:101D70007B607B6800BF0C37BD465DF8047B704715
:101D80000044025880B58EB000AF78607B680F2B9E
:101D900044D800227968192000F0F6FB192000F0E1
:101DA0000DFC244A7B681360234BD3F8F030224AA1
:101DB00043F00103C2F8F0301F4BD3F8F03003F0CA
:101DC0000103BB60BB6807F10C0207F11003114669
:101DD000184602F013FD02F0FBFC03465B007B6338
:101DE0007B6B164AA2FB03239B0C013B3B63144B0A
:101DF000144A1A60124B40F2E732DA60104A3B6B29
:101E000053600F4B00221A610D4B00229A600C4860
:101E100004F0F8FA0346002B07D101E0012305E0A6
:101E2000074804F047FB034600E001231846383713
:101E3000BD4680BD380000240044025883DE1B43A9
:101E4000F80100240000014080B400AFBFF34F8FC1
:101E500000BF064BDB6803F4E0620449044B134304
:101E6000CB60BFF34F8F00BF00BFFDE700ED00E088
:101E70000400FA0580B400AF00BFFDE780B500AFF5
:101E8000FFF7E2FF80B400AF00BFFDE780B400AF12
:101E900000BFFDE780B400AF00BFFDE780B400AF36
:101EA00000BFBD465DF8047B704780B400AF00BF43
:101EB000BD465DF8047B704780B400AF00BFBD46EF
:101EC0005DF8047B704780B400AF00BFBD465DF88D
:101ED000047B704780B500AF024804F071FB00BF7F
:101EE00080BD00BFF801002480B500AF024804F0B7
:101EF000A3FF00BF80BD00BF9402002480B500AFE7
:101F0000024804F05DFB00BF80BD00BF4802002412
:101F100080B586B000AF7860144A154BD31A7B6148
:101F20007B693B61134B1B68002B02D1114B124A9A
:101F30001A60104B1A687B6813443A699A4207D2B8
:101F400013F030FD03460C221A604FF0FF3309E016
:101F5000084B1B68FB60074B1A687B681344054AF3
:101F60001360FB6818461837BD4680BD0000052485
:101F70000004000044020024E026002480B400AFE6
:101F80003E4BD3F888303D4A43F47003C2F88830A2
:101F90003B4B1B6803F00F03062B07D8384B1B681D
:101FA00023F00F03364A43F007031360354B1B68D9
:101FB000344A43F001031360324B00221A61314B63
:101FC0001A683049304B13400B602D4B1B6803F0EF
:101FD0000803002B07D02A4B1B6823F00F03284A65
:101FE00043F007031360274B00229A61254B002220
:101FF000DA61244B00221A62224B244A9A62214B56
:10200000234ADA621F4B234A1A631E4B00225A638B
:102010001C4B204A9A631B4B0022DA63194B1D4A62
:102020001A64184B00225A64164B1B68154A23F495
:1020300080231360134B00221A66124BD3F8D4305E
:1020400003F48053002B13D10E4BD3F8D4300D4A38
:1020500043F48053C2F8D4300F4B43F2D2021A60DB
:10206000084BD3F8D430074A23F48053C2F8D43055
:1020700000BFBD465DF8047B704700BF00ED00E087
:1020800000200052004402587FEDF6EA00020202EE
:102090000000FF01800201010040005280B400AF47
:1020A000094BDB68084A43F00203D36000BF064BCC
:1020B0005B6803F40053002BF9D000BF00BFBD469E
:1020C0005DF8047B704700BF0048025880B584B0BB
:1020D00000AF3B1D00221A605A609A60154B164AE9
:1020E0001A60144B4FF489725A60124B00229A60A6
:1020F000104B4FF6FF72DA600E4B80229A610D484A
:1021000004F080F90346002B01D0FFF71BFE0023EB
:102110007B600023FB603B1D1946064804F02CFC45
:102120000346002B01D0FFF70DFE00BF1037BD4660
:1021300080BD00BF480200240010004080B584B07C
:1021400000AF78607B681B680E4A934216D10E4B35
:10215000D3F8E8300C4A43F01003C2F8E8300A4BD9
:10216000D3F8E83003F01003FB60FB6800220F2176
:10217000362000F009FA362000F020FA00BF1037B0
:10218000BD4680BD001000400044025880B500AF3D
:10219000224B234A1A60214B4FF4E1325A601F4B05
:1021A00000229A601D4B0022DA601C4B00221A614B
:1021B0001A4B0C225A61194B00229A61174B0022CC
:1021C000DA61164B00221A62144B00225A62134B3A
:1021D00000229A62114804F089FC0346002B01D0CA
:1021E000FFF7B0FD00210D4806F03CFB0346002B35
:1021F00001D0FFF7A7FD0021084806F071FB034658
:10220000002B01D0FFF79EFD044806F0F2FA0346CA
:10221000002B01D0FFF796FD00BF80BD9402002483
:102220000010014080B5B8B000AF786007F1CC0372
:1022300000221A605A609A60DA601A6107F110038E
:10224000B8220021184613F095FB7B681B682B4AC7
:1022500093424ED14FF001024FF00003C7E904232F
:102260000023C7F8883007F11003184602F008FB76
:102270000346002B01D0FFF765FD214BD3F8F0306A
:102280001F4A43F01003C2F8F0301D4BD3F8F03072
:1022900003F01003FB60FB68194BD3F8E030184AD9
:1022A00043F00203C2F8E030154BD3F8E03003F0FE
:1022B0000203BB60BB684FF44043C7F8CC30022335
:1022C000C7F8D0300023C7F8D4300023C7F8D8307F
:1022D0000423C7F8DC3007F1CC031946094801F0A4
:1022E0002BF900220021252000F04EF9252000F0D6
:1022F00065F900BFE037BD4680BD00BF001001405A
:102300000044025800040258DFF838D0FFF7C6FE38
:10231000FFF734FE0C480D490D4A002302E0D45863
:10232000C4500433C4188C42F9D30A4A0A4C00231F
:1023300001E013600432A242FBD313F039FBFFF734
:1023400011FC70470000052400000024AC000024AC
:10235000D0730108AC000024E0260024FEE7000052
:1023600080B582B000AF032000F003F902F070F8EE
:102370000246154B9B691B0A03F00F031349CB5C04
:1023800003F01F0322FA03F37B600F4B9B6903F0FA
:102390000F030E4AD35C03F01F037A6822FA03F39B
:1023A0000B4A13600B4A7B6813600F20FFF7EAFCAF
:1023B0000346002B01D0012302E0FFF7C9FC0023F4
:1023C00018460837BD4680BD004402589869010888
:1023D000340000243000002480B400AF064B1B788A
:1023E0001A46064B1B681344044A136000BFBD46DF
:1023F0005DF8047B704700BF3C00002428030024E4
:1024000080B400AF034B1B681846BD465DF8047BE3
:10241000704700BF2803002480B485B000AF786007
:102420007B6803F00703FB600B4BDB68BB60BA689B
:102430004FF6FF031340BB60FB681A02BB681A43E8
:10244000064B1343BB60044ABB68D36000BF14371C
:10245000BD465DF8047B704700ED00E00000FA0522
:1024600080B400AF044BDB681B0A03F00703184677
:10247000BD465DF8047B704700ED00E080B483B09A
:1024800000AF0346FB80B7F90630002B0BDBFB885F
:1024900003F01F020749B7F906305B09012000FA73
:1024A00002F241F8232000BF0C37BD465DF8047BE3
:1024B000704700BF00E100E080B483B000AF034686
:1024C0003960FB80B7F90630002B0ADB3B68DAB2D3
:1024D0000C49B7F906301201D2B20B4483F800233D
:1024E0000AE03B68DAB20849FB8803F00F03043BBB
:1024F0001201D2B20B441A7600BF0C37BD465DF80C
:10250000047B704700E100E000ED00E080B489B09A
:1025100000AFF860B9607A60FB6803F00703FB6105
:10252000FB69C3F10703042B28BF0423BB61FB69CC
:102530000433062B02D9FB69033B00E000237B61D7
:102540004FF0FF32BB6902FA03F3DA43BB681A406B
:102550007B699A404FF0FF317B6901FA03F3D9435D
:102560007B680B40134318462437BD465DF8047B57
:10257000704780B582B000AF78607868FFF74CFF95
:1025800000BF0837BD4680BD80B586B000AF0346AA
:10259000B9607A60FB81FFF763FF78617A68B96898
:1025A0007869FFF7B3FF0246B7F90E3011461846B7
:1025B000FFF782FF00BF1837BD4680BD80B582B0EF
:1025C00000AF0346FB80B7F906301846FFF756FF09
:1025D00000BF0837BD4680BD80B400AFBFF35F8F3A
:1025E00000BF074B5B6A064A23F480335362054BF6
:1025F00000225A6000BFBD465DF8047B704700BFF3
:1026000000ED00E090ED00E080B483B000AF7860B2
:102610000B4A7B6843F0010353600A4B5B6A094A2B
:1026200043F480335362BFF34F8F00BFBFF36F8F0C
:1026300000BF00BF0C37BD465DF8047B704700BF8C
:1026400090ED00E000ED00E080B483B000AF786072
:102650007B685A781B4B9A601A4B1B69194A23F006
:1026600001031361174A7B685B68D3607B681B7B3F
:102670001A077B68DB7A1B061A437B689B7ADB04AC
:102680001A437B685B7B9B041A437B689B7B5B04E0
:102690001A437B68DB7B1B041A437B685B7A1B0253
:1026A0001A437B681B7A5B0013437A6812781146E1
:1026B000044A0B43136100BF0C37BD465DF8047B31
:1026C000704700BF90ED00E080B586B000AF786045
:1026D000FFF796FE38617B68002B01D10123DCE215
:1026E0007B6893F83530DBB2022B08D07B68802200
:1026F0005A657B68002283F834200123CDE27B6891
:102700001B68764A93424AD07B681B68744A93429E
:1027100045D07B681B68734A934240D07B681B6836
:10272000714A93423BD07B681B68704A934236D013
:102730007B681B686E4A934231D07B681B686D4A88
:1027400093422CD07B681B686B4A934227D07B68EE
:102750001B686A4A934222D07B681B68684A93428E
:102760001DD07B681B68674A934218D07B681B6842
:10277000654A934213D07B681B68644A93420ED02B
:102780007B681B68624A934209D07B681B68614A78
:10279000934204D07B681B685F4A934201D10123B6
:1027A00000E00023002B13D07B681B681A687B684D
:1027B0001B6822F01E021A607B681B685A697B68DE
:1027C0001B6822F080025A617B681B687B610AE00B
:1027D0007B681B681A687B681B6822F00E021A600F
:1027E0007B681B687B617B681B683C4A934272D0A4
:1027F0007B681B683A4A93426DD07B681B68394AF4
:10280000934268D07B681B68374A934263D07B68E9
:102810001B68364A93425ED07B681B68344A9342F9
:1028200059D07B681B68334A934254D07B681B683D
:10283000314A93424FD07B681B68304A93424AD05A
:102840007B681B682E4A934245D07B681B682D4AE3
:10285000934240D07B681B682B4A93423BD07B68F5
:102860001B682A4A934236D07B681B68284A9342E9
:1028700031D07B681B68274A93422CD07B681B6849
:10288000254A934227D07B681B68244A934222D072
:102890007B681B68224A93421DD07B681B68214AD3
:1028A000934218D07B681B681F4A934213D07B6801
:1028B0001B681E4A93420ED07B681B681C4A9342D9
:1028C00009D07B681B681B4A934204D07B681B6855
:1028D000194A934232D1012331E000BF1000024077
:1028E00028000240400002405800024070000240B0
:1028F00088000240A0000240B800024010040240DC
:10290000280402404004024058040240700402407F
:1029100088040240A0040240B8040240085402584F
:102920001C54025830540258445402585854025807
:102930006C54025880540258945402580023002BBF
:1029400007D07B681B6E1A687B681B6E22F480724E
:102950001A607B681B686D4A93424AD07B681B688B
:102960006B4A934245D07B681B686A4A934240D0C9
:102970007B681B68684A93423BD07B681B68674A48
:10298000934236D07B681B68654A934231D07B689E
:102990001B68644A93422CD07B681B68624A93424E
:1029A00027D07B681B68614A934222D07B681B68F2
:1029B0005F4A93421DD07B681B685E4A934218D0E1
:1029C0007B681B685C4A934213D07B681B685B4A38
:1029D00093420ED07B681B68594A934209D07B68AA
:1029E0001B68584A934204D07B681B68564A93423E
:1029F00008D17B681B681A687B681B6822F001029B
:102A00001A6007E07B681B681A687B681B6822F005
:102A100001021A6013E0FFF7F3FC02463B69D31A88
:102A2000052B0CD97B6820225A657B68032283F82A
:102A300035207B68002283F8342001232DE17B6957
:102A40001B6803F00103002BE5D17B681B682F4A4C
:102A500093424AD07B681B682D4A934245D07B68DD
:102A60001B682C4A934240D07B681B682A4A9342D9
:102A70003BD07B681B68294A934236D07B681B6831
:102A8000274A934231D07B681B68264A93422CD058
:102A90007B681B68244A934227D07B681B68234AC3
:102AA000934222D07B681B68214A93421DD07B68E9
:102AB0001B68204A934218D07B681B681E4A9342C9
:102AC00013D07B681B681D4A93420ED07B681B683D
:102AD0001B4A934209D07B681B681A4A934204D070
:102AE0007B681B68184A934201D1012300E0002350
:102AF000002B2BD07B689B6DBB607B68DB6D03F08C
:102B00001F033F229A40BB689A602AE010000240EF
:102B1000280002404000024058000240700002407D
:102B200088000240A0000240B800024010040240A9
:102B3000280402404004024058040240700402404D
:102B400088040240A0040240B80402407B689B6DE8
:102B5000FB607B68DB6D03F01F0301229A40FB687A
:102B60005A607B681B684F4A934272D07B681B682F
:102B70004D4A93426DD07B681B684C4A934268D0A3
:102B80007B681B684A4A934263D07B681B68494A4A
:102B900093425ED07B681B68474A934259D07B685A
:102BA0001B68464A934254D07B681B68444A934250
:102BB0004FD07B681B68434A93424AD07B681B68AE
:102BC000414A934245D07B681B68404A934240D0BB
:102BD0007B681B683E4A93423BD07B681B683D4A3A
:102BE000934236D07B681B683B4A934231D07B6866
:102BF0001B683A4A93422CD07B681B68384A934240
:102C000027D07B681B68374A934222D07B681B68B9
:102C1000354A93421DD07B681B68344A934218D0D2
:102C20007B681B68324A934213D07B681B68314A29
:102C300093420ED07B681B682F4A934209D07B6871
:102C40001B682E4A934204D07B681B682C4A93422F
:102C500001D1012300E00023002B15D07B685B6EBF
:102C60007A68926E5A607B68DB6E002B0CD07B68B2
:102C7000DB6E1A687B68DB6E22F480721A607B68F8
:102C80001B6F7A68526F5A607B68012283F8352087
:102C90007B68002283F83420002318461837BD468D
:102CA00080BD00BF100002402800024040000240EA
:102CB000580002407000024088000240A00002401C
:102CC000B8000240100402402804024040040240C0
:102CD000580402407004024088040240A0040240EC
:102CE000B8040240085402581C5402583054025888
:102CF00044540258585402586C5402588054025894
:102D00009454025880B584B000AF78607B68002B83
:102D100001D1012337E27B6893F83530DBB2022B17
:102D200004D07B6880225A6501232CE27B681B68F3
:102D30005C4A93424AD07B681B685B4A934245D009
:102D40007B681B68594A934240D07B681B68584A8D
:102D500093423BD07B681B68564A934236D07B68CF
:102D60001B68554A934231D07B681B68534A934293
:102D70002CD07B681B68524A934227D07B681B6823
:102D8000504A934222D07B681B684F4A93421DD021
:102D90007B681B684D4A934218D07B681B684C4A7D
:102DA000934213D07B681B684A4A93420ED07B68DB
:102DB0001B68494A934209D07B681B68474A934283
:102DC00004D07B681B68464A934201D1012300E08E
:102DD0000023002B00F086807B68042283F83520D6
:102DE0007B681B682F4A93424AD07B681B682E4A37
:102DF000934245D07B681B682C4A934240D07B6845
:102E00001B682B4A93423BD07B681B68294A93423C
:102E100036D07B681B68284A934231D07B681B6898
:102E2000264A93422CD07B681B68254A934227D0C0
:102E30007B681B68234A934222D07B681B68224A26
:102E400093421DD07B681B68204A934218D07B6850
:102E50001B681F4A934213D07B681B681D4A93422C
:102E60000ED07B681B681C4A934209D07B681B68A4
:102E70001A4A934204D07B681B68194A934208D1CE
:102E80007B681B681A687B681B6822F001021A6065
:102E900078E17B681B681A687B681B6822F0010276
:102EA0001A606FE11000024028000240400002401A
:102EB000580002407000024088000240A00002401A
:102EC000B8000240100402402804024040040240BE
:102ED000580402407004024088040240A0040240EA
:102EE000B80402407B681B681A687B681B6822F084
:102EF0000E021A607B681B686C4A93424AD07B685A
:102F00001B686B4A934245D07B681B68694A9342B1
:102F100040D07B681B68684A93423BD07B681B6843
:102F2000664A934236D07B681B68654A934231D02B
:102F30007B681B68634A93422CD07B681B68624A9B
:102F4000934227D07B681B68604A934222D07B68FB
:102F50001B685F4A93421DD07B681B685D4A9342A1
:102F600018D07B681B685C4A934213D07B681B684F
:102F70005A4A93420ED07B681B68594A934209D043
:102F80007B681B68574A934204D07B681B68564A8B
:102F9000934208D17B681B681A687B681B6822F023
:102FA00001021A6007E07B681B681A687B681B686F
:102FB00022F001021A607B681B683C4A934272D07F
:102FC0007B681B683A4A93426DD07B681B68394A1C
:102FD000934268D07B681B68374A934263D07B6812
:102FE0001B68364A93425ED07B681B68344A934222
:102FF00059D07B681B68334A934254D07B681B6866
:10300000314A93424FD07B681B68304A93424AD082
:103010007B681B682E4A934245D07B681B682D4A0B
:10302000934240D07B681B682B4A93423BD07B681D
:103030001B682A4A934236D07B681B68284A934211
:1030400031D07B681B68274A93422CD07B681B6871
:10305000254A934227D07B681B68244A934222D09A
:103060007B681B68224A93421DD07B681B68214AFB
:10307000934218D07B681B681F4A934213D07B6829
:103080001B681E4A93420ED07B681B681C4A934201
:1030900009D07B681B681B4A934204D07B681B687D
:1030A000194A934232D1012331E000BF100002409F
:1030B00028000240400002405800024070000240D8
:1030C00088000240A0000240B80002401004024004
:1030D00028040240400402405804024070040240A8
:1030E00088040240A0040240B80402400854025878
:1030F0001C54025830540258445402585854025830
:103100006C54025880540258945402580023002BE7
:1031100028D07B681B6E1A687B681B6E22F4807255
:103120001A607B689B6DFB607B68DB6D03F01F039F
:1031300001229A40FB685A607B685B6E7A68926EE7
:103140005A607B68DB6E002B0CD07B68DB6E1A68E4
:103150007B68DB6E22F480721A607B681B6F7A6872
:10316000526F5A607B68012283F835207B68002209
:1031700083F834207B681B6D002B03D07B681B6DAC
:1031800078689847002318461037BD4680BD00BFB9
:1031900080B58AB000AFF860B9607A60BB683B6206
:1031A0007B68FB610823FB762F4B1B7D012B01D134
:1031B000022354E02C4B01221A75BB68B3F1006F57
:1031C00016D3BB68B3F1016F12D201237B6100BF3C
:1031D000254B00229A6179694CF2503000F082F858
:1031E000034687F8273097F82730002B32D101E0CB
:1031F000012334E01D4BDB681C4A43F00203D3601B
:10320000BFF36F8F00BFBFF34F8F00BFFB691A681A
:103210003B6A1A603B6A04333B62FB690433FB611F
:10322000FB7E013BFB76FB7E002BEFD1BFF36F8F64
:1032300000BFBFF34F8F00BF79694CF2503000F0F0
:1032400051F8034687F82730084BDB68074A23F01C
:103250000203D360044B00221A7597F827301846F2
:103260002837BD4680BD00BF2C030024002000523B
:1032700080B400AF0C4BDB6803F00103002B0DD0D2
:10328000094B0A4A5A60084B094A5A60064BDB68E8
:1032900003F00103002B01D0012300E000231846B6
:1032A000BD465DF8047B704700200052230167454E
:1032B000AB89EFCD80B400AF094BDB68084A43F01F
:1032C0000103D360064BDB6803F00103002B01D13F
:1032D000012300E000231846BD465DF8047B7047DB
:1032E0000020005280B586B000AF786039600423BA
:1032F0003B6100237B61FFF783F8F86010E07B6897
:10330000B3F1FF3F0CD0FFF77BF80246FB68D31AFE
:103310007A689A4202D37B68002B01D103232DE007
:10332000184B1A693B6913403A699A42E7D03B68E7
:10333000012B04D1134B1A69134B13407B617B693A
:1033400023F00043002B0AD0104B9A697B6913438A
:103350000E4A93610B4A7B69536101230EE03B687F
:10336000012B0AD1074B1B6903F48033B3F5803F6F
:1033700003D1044B4FF480325A61002318461837AA
:10338000BD4680BD002000520000EE172C03002433
:1033900080B584B000AF786039600023FB733F4B89
:1033A0001B7D012B01D1022374E03C4B01221A75D5
:1033B0003A4B00229A617B685B6803F00103002BA3
:1033C00009D001214CF25030FFF78CFF0346002B4F
:1033D00001D00123FB73FB7B002B57D17B681B685B
:1033E000012B1ED17B681A697B685B681946104601
:1033F00000F05AF87B685B6803F00103002B45D0AE
:1034000001214CF25030FFF76DFF0346002B01D035
:103410000123FB73224BDB68214A23F00803D360AE
:1034200034E03B684FF0FF321A607B689B68BB60FA
:1034300024E07B6859687B681B691A46B86800F00D
:1034400057F87B685B6803F00103002B0CD0012167
:103450004CF25030FFF746FF0346FB73104BDA681F
:103460000F49104B1340CB60FB7B002B03D03B6814
:10347000BA681A600AE0BB680133BB607B68DA682F
:103480007B689B681344BA689A42D2D3034B0022EC
:103490001A75FB7B18461037BD4680BD2C030024EF
:1034A00000200052FBF8FFFF80B483B000AF7860CB
:1034B00039603B6803F00103002B11D00B4BDB6834
:1034C0000A4A23F03003D360084BDA6807497B6867
:1034D0001343CB60054BDB68044A43F08803D36099
:1034E00000BF0C37BD465DF8047B704700200052DA
:1034F00080B485B000AFF860B9607A60BB6803F053
:103500000103002B10D00B4BDB680A4A23F4E6635F
:10351000D360084BDA68FB6819027B680B431343DE
:10352000044A43F08403D36000BF1437BD465DF8FE
:10353000047B70470020005280B489B000AF7860EF
:1035400039600023FB61864B7B618CE13B681A6824
:103550000121FB6901FA03F313403B613B69002B36
:1035600000F07E813B685B6803F00303012B05D00C
:103570003B685B6803F00303022B30D17B689B68D8
:10358000BB61FB695B00032202FA03F3DB43BA6908
:103590001340BB613B68DA68FB695B0002FA03F326
:1035A000BA691343BB617B68BA699A607B685B68E0
:1035B000BB610122FB6902FA03F3DB43BA691340E2
:1035C000BB613B685B681B0903F00102FB6902FAFF
:1035D00003F3BA691343BB617B68BA695A603B68FD
:1035E0005B6803F00303032B17D07B68DB68BB61C8
:1035F000FB695B00032202FA03F3DB43BA69134061
:10360000BB613B689A68FB695B0002FA03F3BA6925
:103610001343BB617B68BA69DA603B685B6803F09F
:103620000303022B23D1FB69DA087B68083253F8C5
:103630002230BB61FB6903F007039B000F2202FAF3
:1036400003F3DB43BA691340BB613B681A69FB694A
:1036500003F007039B0002FA03F3BA691343BB614B
:10366000FB69DA087B680832B96943F822107B6885
:103670001B68BB61FB695B00032202FA03F3DB43B7
:10368000BA691340BB613B685B6803F00302FB69E6
:103690005B0002FA03F3BA691343BB617B68BA6942
:1036A0001A603B685B6803F44033002B00F0D8805D
:1036B0002C4BD3F8F4302B4A43F00203C2F8F43019
:1036C000284BD3F8F43003F00203FB60FB68264A72
:1036D000FB699B08023352F82330BB61FB6903F09E
:1036E00003039B000F2202FA03F3DB43BA69134082
:1036F000BB617B681D4A93424AD07B681C4A934257
:103700002BD07B681B4A934225D07B681A4A934290
:103710001FD07B68194A934219D07B68184A93429C
:1037200013D07B68174A93420DD07B68164A9342A8
:1037300007D07B68154A934201D1092329E00A2367
:1037400027E0072325E0062323E0052321E00423C7
:103750001FE003231DE002231BE0012319E000BF4B
:10376000800000580044025800040058000002582D
:103770000004025800080258000C025800100258B9
:103780000014025800180258001C02580024025865
:103790000023FA6902F0030292009340BA691343CE
:1037A000BB613849FB699B080233BA6941F82320A1
:1037B0004FF0B0431B68BB613B69DB43BA69134000
:1037C000BB613B685B6803F48013002B03D0BA69CC
:1037D0003B691343BB614FF0B042BB6913604FF0CC
:1037E000B0435B68BB613B69DB43BA691340BB61B3
:1037F0003B685B6803F40013002B03D0BA693B6994
:103800001343BB614FF0B042BB6953607B695B6897
:10381000BB613B69DB43BA691340BB613B685B68D2
:1038200003F40033002B03D0BA693B691343BB6137
:103830007B69BA695A607B691B68BB613B69DB4382
:10384000BA691340BB613B685B6803F48033002BAB
:1038500003D0BA693B691343BB617B69BA691A60DB
:10386000FB690133FB613B681A68FB6922FA03F3C9
:10387000002B7FF46BAE00BF00BF2437BD465DF860
:10388000047B70470004005880B483B000AF7860B8
:103890000B467B8013467B707B78002B03D07A88A5
:1038A0007B689A6103E07B881A047B689A6100BF99
:1038B0000C37BD465DF8047B7047000080B584B0CE
:1038C00000AF7860194BDB6803F00403042B0AD0C7
:1038D000164BDB6803F007037A689A4201D0012394
:1038E0001FE000231DE0114BDB6823F007020F49A6
:1038F0007B681343CB60FEF783FDF86009E0FEF7B9
:103900007FFD0246FB68D31AB3F57A7F01D9012304
:1039100007E0064B5B6803F40053B3F5005FEED19C
:10392000002318461037BD4680BD00BF004802582E
:1039300080B58CB000AF78607B68002B01D101238B
:10394000C8E37B681B6803F00103002B00F087804D
:10395000884B1B6903F03803FB62864B9B6ABB6292
:10396000FB6A102B07D0FB6A182B10D1BB6A03F03F
:103970000303022B0BD17F4B1B6803F40033002B96
:103980006CD07B685B68002B68D10123A2E37B6865
:103990005B68B3F5803F06D1764B1B68754A43F4EC
:1039A000803313602EE07B685B68002B0CD1714B79
:1039B0001B68704A23F4803313606E4B1B686D4A9A
:1039C00023F4802313601DE07B685B68B3F5A02FB0
:1039D0000CD1684B1B68674A43F480231360654B26
:1039E0001B68644A43F4803313600BE0614B1B682F
:1039F000604A23F4803313605E4B1B685D4A23F4F6
:103A0000802313607B685B68002B13D0FEF7F8FC03
:103A1000786208E0FEF7F4FC02467B6AD31A642B56
:103A200001D9032356E3534B1B6803F40033002BE7
:103A3000F0D014E0FEF7E4FC786208E0FEF7E0FC6A
:103A400002467B6AD31A642B01D9032342E3494B14
:103A50001B6803F40033002BF0D100E000BF7B684B
:103A60001B6803F00203002B00F08C80414B1B69A4
:103A700003F038033B623F4B9B6AFB613B6A002BC0
:103A800007D03B6A182B37D1FB6903F00303002BE7
:103A900032D1384B1B6803F00403002B05D07B6840
:103AA000DB68002B01D1012314E3324B1B6823F0A8
:103AB00019027B68DB682F4913430B60FEF7A0FCFB
:103AC000786208E0FEF79CFC02467B6AD31A022B60
:103AD00001D90323FEE2274B1B6803F00403002BEC
:103AE000F0D0244B5B6823F0FE427B681B691B0609
:103AF000204913434B6045E07B68DB68002B26D0F0
:103B00001C4B1B6823F019027B68DB6819491343BF
:103B10000B60FEF775FC786208E0FEF771FC024668
:103B20007B6AD31A022B01D90323D3E2114B1B6802
:103B300003F00403002BF0D00E4B5B6823F0FE4231
:103B40007B681B691B060B4913434B601AE0094B4A
:103B50001B68084A23F001031360FEF751FC7862EA
:103B60000AE0FEF74DFC02467B6AD31A022B03D90A
:103B70000323AFE200440258964B1B6803F0040392
:103B8000002BEED17B681B6803F01003002B6AD07A
:103B9000904B1B6903F03803BB618E4B9B6A7B61C2
:103BA000BB69082B07D0BB69182B1BD17B6903F0BD
:103BB0000303012B16D1874B1B6803F48073002B82
:103BC00005D07B68DB69802B01D0012382E2814B29
:103BD000DB6823F07C527B681B6A1B067D4913431C
:103BE000CB6040E07B68DB69002B23D0794B1B68FE
:103BF000784A43F080031360FEF702FC786208E025
:103C0000FEF7FEFB02467B6AD31A022B01D903237F
:103C100060E2704B1B6803F48073002BF0D06D4B97
:103C2000DB6823F07C527B681B6A1B0669491343DF
:103C3000CB6018E0674B1B68664A23F08003136073
:103C4000FEF7DEFB786208E0FEF7DAFB02467B6AED
:103C5000D31A022B01D903233CE25E4B1B6803F409
:103C60008073002BF0D17B681B6803F00803002BE6
:103C700036D07B685B69002B19D0564B5B6F554A79
:103C800043F001035367FEF7BBFB786208E0FEF7E1
:103C9000B7FB02467B6AD31A022B01D9032319E230
:103CA0004C4B5B6F03F00203002BF0D018E0494B44
:103CB0005B6F484A23F001035367FEF7A1FB78626C
:103CC00008E0FEF79DFB02467B6AD31A022B01D95E
:103CD0000323FFE13F4B5B6F03F00203002BF0D1A6
:103CE0007B681B6803F02003002B36D07B689B6940
:103CF000002B19D0374B1B68364A43F480531360AE
:103D0000FEF77EFB786208E0FEF77AFB02467B6AEC
:103D1000D31A022B01D90323DCE12E4B1B6803F4D9
:103D20000053002BF0D018E02A4B1B68294A23F4DB
:103D300080531360FEF764FB786208E0FEF760FBD7
:103D400002467B6AD31A022B01D90323C2E1214B1D
:103D50001B6803F40053002BF0D17B681B6803F051
:103D60000403002B00F086801B4B1B681A4A43F4A7
:103D700080731360FEF744FB786208E0FEF740FBB7
:103D800002467B6AD31A642B01D90323A2E1124BAA
:103D90001B6803F48073002BF0D07B689B68012BB9
:103DA00006D10C4B1B6F0B4A43F00103136732E043
:103DB0007B689B68002B11D1064B1B6F054A23F0D3
:103DC00001031367034B1B6F024A23F004031367BD
:103DD00021E000BF00440258004802587B689B68FD
:103DE000052B0CD1834B1B6F824A43F004031367EE
:103DF000804B1B6F7F4A43F0010313670BE07D4B41
:103E00001B6F7C4A23F0010313677A4B1B6F794ABF
:103E100023F0040313677B689B68002B15D0FEF723
:103E2000EFFA78620AE0FEF7EBFA02467B6AD31AF1
:103E300041F28832934201D903234BE16D4B1B6F52
:103E400003F00203002BEED014E0FEF7D9FA7862FB
:103E50000AE0FEF7D5FA02467B6AD31A41F28832AD
:103E6000934201D9032335E1624B1B6F03F0020338
:103E7000002BEED17B685B6A002B00F02A815D4B42
:103E80001B6903F03803182B00F0BA807B685B6A6B
:103E9000022B40F09580574B1B68564A23F08073E5
:103EA0001360FEF7ADFA786208E0FEF7A9FA024661
:103EB0007B6AD31A022B01D903230BE14D4B1B68FC
:103EC00003F00073002BF0D14A4B9A6A4A4B13401F
:103ED0007A68916A7A68D26A12010A4345491343A3
:103EE0008B627B681B6B013BC3F308027B685B6BD7
:103EF000013B5B029BB21A437B689B6B013B1B043B
:103F000003F4FE031A437B68DB6B013B1B0603F0E3
:103F1000FE43384913430B63364BDB6A354A23F0C3
:103F20000103D362334B5A6B344B13407A68926C63
:103F3000D200304913434B632E4BDB6A23F00C0253
:103F40007B681B6C2B491343CB622A4BDB6A23F043
:103F500002027B685B6C27491343CB62254BDB6A0B
:103F6000244A43F48033D362224BDB6A214A43F470
:103F70000033D3621F4BDB6A1E4A43F48023D362B3
:103F80001C4BDB6A1B4A43F00103D362194B1B68CD
:103F9000184A43F080731360FEF732FA786208E043
:103FA000FEF72EFA02467B6AD31A022B01D90323AD
:103FB00090E0104B1B6803F00073002BF0D088E0FA
:103FC0000C4B1B680B4A23F080731360FEF718FA42
:103FD000786208E0FEF714FA02467B6AD31A022BD5
:103FE00001D9032376E0034B1B6803F00073002B19
:103FF000F0D16EE0004402580CFCFFFF0700FFFF09
:10400000364B9B6A3B61354B1B6BFB607B685B6A85
:10401000012B31D03B6903F003027B689B6A9A4213
:104020002AD13B691B0903F03F027B68DB6A9A4295
:1040300022D1FB68C3F308027B681B6B013B9A42E9
:104040001AD1FB685B0A03F07F027B685B6B013B64
:104050009A4211D1FB681B0C03F07F027B689B6BBB
:10406000013B9A4208D1FB681B0E03F07F027B687C
:10407000DB6B013B9A4201D001232BE0174B5B6BBA
:10408000DB08C3F30C033B617B689B6C3A699A4283
:104090001FD0124BDB6A114A23F00103D362FEF7F3
:1040A000AFF9786200BFFEF7ABF902467B6A934234
:1040B000F9D00A4B5A6B0A4B13407A68926CD200C3
:1040C000064913434B63054BDB6A044A43F0010383
:1040D000D362002318463037BD4680BD00440258E5
:1040E0000700FFFF80B586B000AF786039607B685D
:1040F000002B01D101239CE18A4B1B6803F00F03C5
:104100003A689A4210D9874B1B6823F00F02854901
:104110003B6813430B60834B1B6803F00F033A6843
:104120009A4201D0012384E17B681B6803F00403F9
:10413000002B10D07B681A697B4B9B6903F07003DE
:104140009A4208D9784B9B6923F070027B681B69FF
:10415000754913438B617B681B6803F00803002BD0
:1041600010D07B685A69704BDB6903F070039A4288
:1041700008D96D4BDB6923F070027B685B696A4983
:104180001343CB617B681B6803F01003002B10D036
:104190007B689A69644BDB6903F4E0639A4208D94F
:1041A000614BDB6923F4E0627B689B695E491343E2
:1041B000CB617B681B6803F02003002B10D07B6869
:1041C000DA69594B1B6A03F070039A4208D9564BBF
:1041D0001B6A23F070027B68DB69534913430B624F
:1041E0007B681B6803F00203002B10D07B68DA6841
:1041F0004D4B9B6903F00F039A4208D94A4B9B69C8
:1042000023F00F027B68DB68474913438B617B68AF
:104210001B6803F00103002B55D0434B9B6923F42B
:1042200070627B689B68404913438B617B685B6865
:10423000022B07D13C4B1B6803F40033002B21D128
:104240000123F6E07B685B68032B07D1364B1B68C4
:1042500003F00073002B15D10123EAE07B685B6853
:10426000012B07D1304B1B6803F48073002B09D15D
:104270000123DEE02C4B1B6803F00403002B01D16B
:104280000123D6E0284B1B6923F007027B685B689B
:10429000254913430B61FEF7B3F878610AE0FEF796
:1042A000AFF802467B69D31A41F28832934201D9B2
:1042B0000323BEE01C4B1B6903F038027B685B687C
:1042C000DB009A42EBD17B681B6803F00203002BF2
:1042D00010D07B68DA68144B9B6903F00F039A4295
:1042E00008D2114B9B6923F00F027B68DB680E49F3
:1042F00013438B610B4B1B6803F00F033A689A4220
:1043000014D2084B1B6823F00F0206493B68134385
:104310000B60044B1B6803F00F033A689A4205D008
:10432000012386E000200052004402587B681B688D
:1043300003F00403002B10D07B681A693F4B9B6984
:1043400003F070039A4208D23C4B9B6923F0700241
:104350007B681B69394913438B617B681B6803F0D9
:104360000803002B10D07B685A69344BDB6903F0DB
:1043700070039A4208D2314BDB6923F070027B68EC
:104380005B692E491343CB617B681B6803F0100304
:10439000002B10D07B689A69284BDB6903F4E0633B
:1043A0009A4208D2254BDB6923F4E0627B689B6963
:1043B00022491343CB617B681B6803F02003002B69
:1043C00010D07B68DA691D4B1B6A03F070039A42B8
:1043D00008D21A4B1B6A23F070027B68DB6917490D
:1043E00013430B6200F034F80246144B9B691B0A1E
:1043F00003F00F031249CB5C03F01F0322FA03F30F
:104400003B610E4B9B6903F00F030D4AD35C03F035
:104410001F033A6922FA03F30A4A13600A4A3B6906
:1044200013600A4B1B681846FDF7ACFC0346FB7390
:10443000FB7B18461837BD4680BD00BF00440258BC
:10444000986901083400002430000024380000245A
:1044500080B489B000AFB34B1B6903F03803182B4D
:1044600000F2558101A252F823F000BFD1440008A8
:104470000F4700080F4700080F4700080F470008C4
:104480000F4700080F4700080F470008F7440008CF
:104490000F4700080F4700080F4700080F470008A4
:1044A0000F4700080F4700080F470008FD440008A9
:1044B0000F4700080F4700080F4700080F47000884
:1044C0000F4700080F4700080F4700080345000882
:1044D000944B1B6803F02003002B09D0914B1B6801
:1044E000DB0803F00303904A22FA03F3BB6111E1F6
:1044F0008D4BBB610EE18D4BBB610BE18C4BBB6106
:1045000008E1884B9B6A03F003037B61854B9B6A40
:104510001B0903F03F033B61824BDB6A03F001039D
:10452000FB60804B5B6BDB08C3F30C03FA6802FB98
:1045300003F307EE903AF8EE677AC7ED027A3B692B
:10454000002B00F0E1807B69022B00F083807B6907
:10455000022B00F2A1807B69002B03D07B69012B29
:1045600056D099E06F4B1B6803F02003002B2DD031
:104570006C4B1B68DB0803F003036B4A22FA03F35E
:104580007B607B6807EE903AF8EE676A3B6907EE5E
:10459000903AF8EE677A86EEA77A624B1B6BC3F30C
:1045A000080307EE903AF8EE676A97ED026ADFEDCE
:1045B000615AC6EE257A76EEA77AF7EE006A77EEB4
:1045C000A67A67EE277AC7ED077A87E03B6907EEA0
:1045D000903AF8EE677ADFED586A86EEA77A514B8B
:1045E0001B6BC3F3080307EE903AF8EE676A97ED8A
:1045F000026ADFED505AC6EE257A76EEA77AF7EE1C
:10460000006A77EEA67A67EE277AC7ED077A65E04B
:104610003B6907EE903AF8EE677ADFED486A86EE7E
:10462000A77A404B1B6BC3F3080307EE903AF8EEF2
:10463000676A97ED026ADFED3F5AC6EE257A76EE9D
:10464000A77AF7EE006A77EEA67A67EE277AC7EDCB
:10465000077A43E03B6907EE903AF8EE677ADFEDC0
:10466000386A86EEA77A2F4B1B6BC3F3080307EE5D
:10467000903AF8EE676A97ED026ADFED2E5AC6EEC1
:10468000257A76EEA77AF7EE006A77EEA67A67EEDD
:10469000277AC7ED077A21E03B6907EE903AF8EEFA
:1046A000677ADFED266A86EEA77A1E4B1B6BC3F393
:1046B000080307EE903AF8EE676A97ED026ADFEDBD
:1046C0001D5AC6EE257A76EEA77AF7EE006A77EEE7
:1046D000A67A67EE277AC7ED077A00BF114B1B6BEE
:1046E0005B0A03F07F0301333B603B6807EE903ABF
:1046F000B8EE677AD7ED076AC6EE877AFCEEE77AFE
:1047000017EE903ABB6105E00023BB6102E0074B66
:10471000BB6100BFBB6918462437BD465DF8047B0A
:10472000704700BF004402580090D00300093D00CC
:1047300000127A00000000460024744C0024744AE1
:104740000024F44A80B582B000AFFFF781FE024634
:10475000104B9B691B0A03F00F030F49CB5C03F05E
:104760001F0322FA03F37B600A4B9B6903F00F03DC
:10477000094AD35C03F01F037A6822FA03F3074A5D
:104780001360074A7B681360044B1B6818460837A0
:10479000BD4680BD004402589869010834000024D9
:1047A0003000002480B500AFFFF7CCFF0246064B77
:1047B000DB691B0903F007030449CB5C03F01F030B
:1047C00022FA03F3184680BD004402589869010894
:1047D00080B500AFFFF7B6FF0246064BDB691B0A48
:1047E00003F007030449CB5C03F01F0322FA03F331
:1047F000184680BD004402589869010880B483B00F
:1048000000AF786039607B683F221A601A4B1B69E1
:1048100003F007027B685A60174B9B6903F47062D0
:104820007B689A60144B9B6903F00F027B68DA6027
:10483000114B9B6903F070027B681A610E4BDB69B8
:1048400003F070027B685A610B4BDB6903F4E06292
:104850007B689A61084B1B6A03F070027B68DA611F
:10486000064B1B6803F00F023B681A6000BF0C3751
:10487000BD465DF8047B704700440258002000529A
:104880002DE9B04FC6B000AFC7F80401002387F888
:104890001731002387F81631D7F80431D3E9002304
:1048A00002F00064002554EA050349D0D7F804312A
:1048B0005B6EB3F5401F2FD0B3F5401F28D8B3F57A
:1048C000001F1AD0B3F5001F22D8002B03D0B3F578
:1048D000801F07D01CE0AB4BDB6AAA4A43F40033CD
:1048E000D3621AE0D7F8043108330221184601F0E8
:1048F00025FC034687F817310FE0D7F80431283339
:104900000221184601F0CCFC034687F8173104E079
:10491000012387F8173100E000BF97F81731002B0B
:104920000AD1984B1B6D23F44011D7F804315B6E0C
:10493000944A0B43136503E097F8173187F8163153
:10494000D7F80431D3E9002302F480784FF000094E
:1049500058EA090347D0D7F804319B6D042B2AD8B5
:1049600001A252F823F000BF7D4900088B490008DE
:10497000A1490008BF490008BF490008814BDB6A14
:10498000804A43F40033D3621AE0D7F80431083385
:104990000021184601F0D2FB034687F817310FE0DB
:1049A000D7F8043128330021184601F079FC03467A
:1049B00087F8173104E0012387F8173100E000BFC2
:1049C00097F81731002B0AD16E4B1B6D23F00701AE
:1049D000D7F804319B6D6B4A0B43136503E097F8DE
:1049E000173187F81631D7F80431D3E9002302F4E0
:1049F000806A4FF0000B5AEA0B035BD0D7F8043102
:104A0000D3F8A430B3F5200F3BD0B3F5200F34D842
:104A1000B3F5000F37D0B3F5000F2ED8B3F5C00FA4
:104A200033D0B3F5C00F28D8B3F5800F1AD0B3F543
:104A3000800F22D8002B03D0B3F5001F07D01CE055
:104A4000504BDB6A4F4A43F40033D3621EE0D7F881
:104A5000043108330021184601F070FB034687F843
:104A6000173113E0D7F8043128330021184601F03C
:104A700017FC034687F8173108E0012387F8173140
:104A800004E000BF02E000BF00E000BF97F817316C
:104A9000002B0BD13B4B9B6D23F46001D7F8043105
:104AA000D3F8A430374A0B43936503E097F81731E6
:104AB00087F81631D7F80431D3E9002302F40063F4
:104AC000C7F8F8300023C7F8FC30D7E93E120B4690
:104AD00013435DD0D7F80431D3F8A830B3F1A06FF9
:104AE0003BD0B3F1A06F34D8B3F1806F37D0B3F1BE
:104AF000806F2ED8B3F1407F33D0B3F1407F28D8F8
:104B0000B3F1007F1AD0B3F1007F22D8002B03D07D
:104B1000B3F1807F07D01CE01A4BDB6A194A43F4DB
:104B20000033D3621EE0D7F8043108330021184661
:104B300001F004FB034687F8173113E0D7F804317E
:104B400028330021184601F0ABFB034687F81731E4
:104B500008E0012387F8173104E000BF02E000BF3E
:104B600000E000BF97F81731002B0DD1054B9B6D6E
:104B700023F0E061D7F80431D3F8A830014A0B43A1
:104B8000936505E00044025897F8173187F816310D
:104B9000D7F80431D3E9002302F00073C7F8F030EE
:104BA0000023C7F8F430D7E93C120B4613433AD040
:104BB000D7F80431DB6C302B1FD0302B19D8202BC9
:104BC0000CD0202B15D8002B19D0102B11D1AA4BAB
:104BD000DB6AA94A43F40033D36211E0D7F8043109
:104BE00008330221184601F0A9FA034687F8173165
:104BF00006E0012387F8173102E000BF00E000BFA4
:104C000097F81731002B0AD19B4BDB6C23F0300156
:104C1000D7F80431DB6C984A0B43D36403E097F870
:104C2000173187F81631D7F80431D3E9002302F49D
:104C30008053C7F8E8300023C7F8EC30D7E93A12C0
:104C40000B46134351D0D7F80431DB6DB3F5804FD9
:104C500035D0B3F5804F2ED8B3F5405F31D0B3F5E2
:104C6000405F28D8B3F5005F1AD0B3F5005F22D8B3
:104C7000002B03D0B3F5805F07D01CE07E4BDB6ACE
:104C80007D4A43F40033D3621CE0D7F80431083383
:104C90000021184601F052FA034687F8173111E057
:104CA000D7F8043128330021184601F0F9FA0346F9
:104CB00087F8173106E0012387F8173102E000BFBB
:104CC00000E000BF97F81731002B0AD16A4B1B6D2B
:104CD00023F4E041D7F80431DB6D674A0B431365D9
:104CE00003E097F8173187F81631D7F80431D3E984
:104CF000002302F40053C7F8E0300023C7F8E43083
:104D0000D7E938120B46134353D0D7F804311B6E42
:104D1000B3F5A02F33D0B3F5A02F2CD8B3F5802F47
:104D20002FD0B3F5802F26D8B3F5403F2BD0B3F565
:104D3000403F20D8B3F5003F12D0B3F5003F1AD85A
:104D4000002B22D0B3F5803F15D1D7F804310833BA
:104D50000121184601F0F2F9034687F8173115E0F2
:104D6000D7F8043128330121184601F099FA034697
:104D700087F817310AE0012387F8173106E000BFF2
:104D800004E000BF02E000BF00E000BF97F8173169
:104D9000002B0AD1384B1B6D23F4E021D7F80431E6
:104DA0001B6E354A0B43136503E097F8173187F8FC
:104DB0001631D7F80431D3E9002302F48043C7F851
:104DC000D8300023C7F8DC30D7E936120B4613433E
:104DD00058D0D7F80431D3F8AC30B3F1A04F33D06A
:104DE000B3F1A04F2CD8B3F1804F2FD0B3F1804F47
:104DF00026D8B3F1405F2BD0B3F1405F20D8B3F198
:104E0000005F12D0B3F1005F1AD8002B22D0B3F1AB
:104E1000805F15D1D7F8043108330121184601F01D
:104E20008DF9034687F8173115E0D7F80431283398
:104E30000121184601F034FA034687F817310AE0D9
:104E4000012387F8173106E000BF04E000BF02E04D
:104E500000BF00E000BF97F81731002B0ED1064BC2
:104E60009B6D23F0E041D7F80431D3F8AC30024A0F
:104E70000B43936506E000BF0044025897F81731D2
:104E800087F81631D7F80431D3E9002302F4004340
:104E9000C7F8D0300023C7F8D430D7E934120B4616
:104EA000134337D0D7F80431DB6EB3F1005F0ED077
:104EB000B3F1005F16D8002B18D0B3F1805F11D189
:104EC000C44BDB6AC34A43F40033D3620FE0D7F824
:104ED000043108330121184601F030F9034687F800
:104EE000173104E0012387F8173100E000BF97F87D
:104EF0001731002B0AD1B74B1B6D23F04051D7F867
:104F00000431DB6EB34A0B43136503E097F81731A6
:104F100087F81631D7F80431D3E9002302F0807303
:104F2000C7F8C8300023C7F8CC30D7E932120B4697
:104F3000134339D0D7F804319B6C032B1CD801A242
:104F400052F823F0814F0008554F0008634F0008C6
:104F5000814F00089F4BDB6A9E4A43F40033D362C3
:104F60000FE0D7F8043108330221184601F0E6F8C3
:104F7000034687F8173104E0012387F8173100E072
:104F800000BF97F81731002B0AD1924BDB6C23F04E
:104F90000301D7F804319B6C8E4A0B43D36403E0C2
:104FA00097F8173187F81631D7F80431D3E9002381
:104FB00002F48003C7F8C0300023C7F8C430D7E933
:104FC00030120B46134300F09980834B1B68824AD2
:104FD00043F480731360FDF713FAC7F810010BE078
:104FE000FDF70EFA0246D7F81031D31A642B03D915
:104FF000032387F8173105E0774B1B6803F48073B0
:10500000002BEDD097F81731002B73D1714B1A6F2D
:10501000D7F80431D3F8B030534003F44073002B79
:1050200015D06C4B1B6F23F44073C7F80C31694BE0
:105030001B6F684A43F480331367664B1B6F654AE6
:1050400023F480331367634AD7F80C311367D7F81A
:105050000431D3F8B030B3F5807F18D1FDF7D0F923
:10506000C7F810010DE0FDF7CBF90246D7F8103173
:10507000D21A41F288339A4203D9032387F81731B1
:1050800005E0544B1B6F03F00203002BEBD097F8A5
:105090001731002B29D1D7F80431D3F8B03003F4FD
:1050A0004073B3F5407F0ED14A4B1B6923F47C510A
:1050B000D7F80431D3F8B0301A09484B1340454AA9
:1050C0000B43136105E0434B1B69424A23F47C53B5
:1050D0001361404B196FD7F80431D3F8B030C3F3E4
:1050E0000B033C4A0B43136708E097F8173187F826
:1050F000163103E097F8173187F81631D7F80431E5
:10510000D3E9002302F00103C7F8B8300023C7F841
:10511000BC30D7E92E120B46134300F08F80D7F82E
:1051200004319B6F282B71D801A252F823F000BFE5
:10513000155200080D5200080D5200080D520008CB
:105140000D5200080D5200080D5200080D520008C3
:10515000E15100080D5200080D5200080D520008E0
:105160000D5200080D5200080D5200080D520008A3
:10517000F75100080D5200080D5200080D520008AA
:105180000D5200080D5200080D5200080D52000883
:10519000155200080D5200080D5200080D5200086B
:1051A0000D5200080D5200080D5200080D52000863
:1051B000155200080D5200080D5200080D5200084B
:1051C0000D5200080D5200080D5200080D52000843
:1051D000155200080044025800480258CFFFFF0053
:1051E000D7F8043108330121184600F0A7FF034621
:1051F00087F817310FE0D7F804312833012118461A
:1052000001F04EF8034687F8173104E0012387F8D0
:10521000173100E000BF97F81731002B0AD1BF4BC0
:105220005B6D23F03801D7F804319B6FBB4A0B4309
:10523000536503E097F8173187F81631D7F8043132
:10524000D3E9002302F00203C7F8B0300023C7F807
:10525000B430D7E92C120B46134341D0D7F80431B0
:105260005B6F052B24D801A252F823F0B952000835
:10527000855200089B520008B9520008B952000834
:10528000B9520008D7F8043108330121184600F05C
:1052900055FF034687F817310FE0D7F8043128335C
:1052A0000121184600F0FCFF034687F8173104E09F
:1052B000012387F8173100E000BF97F81731002B62
:1052C0000AD1964B5B6D23F00701D7F804315B6F71
:1052D000924A0B43536503E097F8173187F816316C
:1052E000D7F80431D3E9002302F00403C7F8A8304B
:1052F0000023C7F8AC30D7E92A120B46134344D039
:10530000D7F80431D3F89030052B25D801A252F8F4
:1053100023F000BF615300082D53000843530008D9
:10532000615300086153000861530008D7F8043145
:1053300008330121184600F001FF034687F81731B2
:105340000FE0D7F8043128330121184600F0A8FFF8
:10535000034687F8173104E0012387F8173100E08E
:1053600000BF97F81731002B0BD16C4B9B6D23F0CE
:105370000701D7F80431D3F89030684A0B4393659E
:1053800003E097F8173187F81631D7F80431D3E9DD
:10539000002302F02003C7F8A0300023C7F8A43090
:1053A000D7E928120B46134355D0D7F80431D3F868
:1053B0008C30B3F1A04F33D0B3F1A04F2CD8B3F160
:1053C000804F2FD0B3F1804F26D8B3F1405F2BD060
:1053D000B3F1405F20D8B3F1005F12D0B3F1005FAA
:1053E0001AD8002B22D0B3F1805F15D1D7F8043141
:1053F00008330021184600F0A1FE034687F8173154
:1054000015E0D7F8043128330221184600F048FF90
:10541000034687F817310AE0012387F8173106E0C1
:1054200000BF04E000BF02E000BF00E000BF97F84B
:105430001731002B0BD1394B5B6D23F0E041D7F8CE
:105440000431D3F88C30354A0B43536503E097F8A9
:10545000173187F81631D7F80431D3E9002302F069
:105460004003C7F898300023C7F89C30D7E92612CC
:105470000B46134358D0D7F80431D3F89830B3F51E
:10548000A05F33D0B3F5A05F2CD8B3F5805F2FD0E9
:10549000B3F5805F26D8B3F5406F2BD0B3F5406FDE
:1054A00020D8B3F5006F12D0B3F5006F1AD8002BD7
:1054B00022D0B3F5806F15D1D7F80431083300211D
:1054C000184600F03BFE034687F8173115E0D7F881
:1054D000043128330221184600F0E2FE034687F823
:1054E00017310AE0012387F8173106E000BF04E016
:1054F00000BF02E000BF00E000BF97F81731002BAB
:105500000ED1064B9B6D23F4E051D7F80431D3F84C
:105510009830024A0B43936506E000BF00440258EE
:1055200097F8173187F81631D7F80431D3E90023FB
:1055300002F08003C7F890300023C7F89430D7E911
:1055400024120B46134355D0D7F80431D3F89C30BE
:10555000B3F5204F33D0B3F5204F2CD8B3F5004F1F
:105560002FD0B3F5004F26D8B3F5C04F2BD0B3F5ED
:10557000C04F20D8B3F5804F12D0B3F5804F1AD862
:10558000002B22D0B3F5005F15D1D7F804310833D2
:105590000021184600F0D2FD034687F8173115E0C8
:1055A000D7F8043128330221184600F079FE03466B
:1055B00087F817310AE0012387F8173106E000BFAA
:1055C00004E000BF02E000BF00E000BF97F8173121
:1055D000002B0BD1A04B9B6D23F46041D7F8043115
:1055E000D3F89C309C4A0B43936503E097F817313E
:1055F00087F81631D7F80431D3E9002302F0080305
:10560000C7F888300023C7F88C30D7E922120B4640
:1056100013431ED0D7F80431D3F88030B3F5805F40
:105620000CD1D7F8043128330221184600F038FE97
:105630000346002B02D0012387F81631864B5B6DA1
:1056400023F44051D7F80431D3F88030824A0B4319
:105650005365D7F80431D3E9002302F01003C7F8EB
:1056600080300023C7F88430D7E920120B4613435B
:105670001ED0D7F80431D3F89430B3F5807F0CD125
:10568000D7F8043128330221184600F009FE0346FA
:10569000002B02D0012387F816316F4B9B6D23F44A
:1056A0004071D7F80431D3F894306B4A0B439365BB
:1056B000D7F80431D3E9002302F40023BB670023A9
:1056C000FB67D7E91E120B4613433ED0D7F80431CF
:1056D000D3F8A030B3F5003F22D0B3F5003F1BD87C
:1056E000002B03D0B3F5803F0BD015E0D7F8043181
:1056F00008330021184600F021FD034687F81731D2
:105700000FE0D7F8043128330221184600F0C8FD15
:10571000034687F8173104E0012387F8173100E0CA
:1057200000BF97F81731002B0BD14B4B9B6D23F427
:105730004031D7F80431D3F8A030474A0B43936582
:1057400003E097F8173187F81631D7F80431D3E919
:10575000002302F480233B6700237B67D7E91C12F8
:105760000B4613433BD0D7F80431D3F88430B3F55C
:10577000401F1FD0B3F5401F18D8B3F5801F03D0CA
:10578000B3F5001F07D011E0334BDB6A324A43F414
:105790000033D3620FE0D7F80431283301211846D3
:1057A00000F07EFD034687F8173104E0012387F8F7
:1057B000173100E000BF97F81731002B0BD1264BB3
:1057C0005B6D23F44011D7F80431D3F88430224ABA
:1057D0000B43536503E097F8173187F81631D7F874
:1057E0000431D3E9002302F48033BB660023FB6657
:1057F000D7E91A120B46134334D0D7F804311B6D86
:10580000002B03D0B3F5803F07D011E0124BDB6AC9
:10581000114A43F40033D3620EE0D7F80431083361
:105820000221184600F08AFC034687F8173103E08E
:10583000012387F8173100BF97F81731002B0DD1DE
:10584000054BDB6C23F48031D7F804311B6D024A21
:105850000B43D36406E000BF0044025897F81731A9
:1058600087F81631D7F80431D3E9002302F000534A
:105870003B6600237B66D7E918120B4613430CD016
:10588000D7F8043128330221184600F009FD0346F9
:10589000002B02D0012387F81631D7F80431D3E961
:1058A000002302F40033BB650023FB65D7E9161221
:1058B0000B46134336D0D7F80431DB6FB3F5407F86
:1058C00018D0B3F5407F11D8B3F5007F14D0B3F5ED
:1058D000007F0BD8002B11D0B3F5807F06D1B74BDA
:1058E000DB6AB64A43F40033D36208E0012387F849
:1058F000173104E000BF02E000BF00E000BF97F8EE
:105900001731002B0AD1AD4B5B6D23F44071D7F8F2
:105910000431DB6FA94A0B43536503E097F8173155
:1059200087F81631D7F80431D3E9002302F4801345
:105930003B6500237B65D7E914120B46134309D05E
:105940009E4B1B6D23F00041D7F804311B6F9B4A1F
:105950000B431365D7F80431D3E9002302F4001395
:10596000BB640023FB64D7E912120B46134309D032
:10597000924B1B6D23F08071D7F804319B6E8F4AD8
:105980000B431365D7F80431D3E9002302F08043B9
:105990003B6400237B64D7E910120B4613430ED0FF
:1059A000864B1B69854A23F400431361834B1969B5
:1059B000D7F80431D3F8B430804A0B431361D7F8D9
:1059C0000431D3E9002302F00043BB630023FB63EF
:1059D000D7E90E120B46134309D0784BDB6C23F04A
:1059E0004051D7F804315B6D744A0B43D364D7F848
:1059F0000431D3E9002302F400033B6300237B63FB
:105A0000D7E90C120B4613430AD06C4B5B6D23F4A1
:105A10004001D7F80431D3F88830684A0B43536506
:105A2000D7F80431D3E900230021B96203F0010360
:105A3000FB62D7E90A120B46134311D0D7F80431A1
:105A400008330021184600F079FB034687F8173128
:105A500097F81731002B03D097F8173187F81631D4
:105A6000D7F80431D3E900230021396203F002039F
:105A70007B62D7E908120B46134311D0D7F80431E3
:105A800008330121184600F059FB034687F8173107
:105A900097F81731002B03D097F8173187F8163194
:105AA000D7F80431D3E900230021B96103F00403DE
:105AB000FB61D7E906120B46134311D0D7F8043126
:105AC00008330221184600F039FB034687F81731E6
:105AD00097F81731002B03D097F8173187F8163154
