:020000040806EC
:1000E00000000524ED0F06083D0E0608450E060823
:1000F0004D0E0608550E06085D0E060800000000AD
:10010000000000000000000000000000650E06086E
:10011000730E060800000000810E06088F0E060808
:100120004110060841100608411006084110060853
:100130004110060841100608411006084110060843
:100140004110060841100608411006084110060833
:100150004110060841100608411006084110060823
:100160004110060841100608411006084110060813
:100170004110060841100608411006084110060803
:1001800041100608411006084110060841100608F3
:1001900041100608411006084110060841100608E3
:1001A00041100608411006084110060841100608D3
:1001B00041100608411006084110060841100608C3
:1001C0004110060841100608000000004110060812
:1001D00041100608411006084110060841100608A3
:1001E0004110060841100608411006084110060893
:1001F0004110060841100608411006084110060883
:100200004110060841100608411006084110060872
:100210004110060841100608411006084110060862
:1002200000000000000000000000000000000000CE
:100230004110060841100608411006084110060842
:100240004110060841100608411006084110060832
:100250004110060841100608411006080000000081
:100260004110060841100608411006084110060812
:100270004110060841100608411006084110060802
:100280004110060841100608411006080000000051
:1002900041100608411006084110060841100608E2
:1002A0004110060841100608000000000000000090
:1002B00000000000000000004110060800000000DF
:1002C000000000000000000000000000000000002E
:1002D0000000000000000000411006084110060860
:1002E00041100608411006080000000041100608F1
:1002F0004110060841100608411006084110060882
:10030000411006080000000041100608000000002F
:1003100041100608411006080000000041100608C0
:100320004110060841100608411006084110060851
:100330004110060841100608411006084110060841
:100340004110060841100608411006084110060831
:100350004110060841100608411006080000000080
:100360004110060841100608411006084110060811
:1003700000000000411006084110060800000000BF
:100380000000000041100608411006084110060850
:1003900041100608411006084110060841100608E1
:0C03A00041100608411006084110060834
:1003AC0010B5054C237833B9044B13B10448AFF3A3
:1003BC0000800123237010BD1000002400000000F9
:1003CC00085D060808B5034B1BB103490348AFF39E
:1003DC00008008BD0000000014000024085D060821
:1003EC00034613F8012B002AFBD1181A0138704769
:1003FC0053B94AB9002908BF00281CBF4FF0FF3180
:10040C004FF0FF3000F088B9ADF1080C6DE904CE67
:10041C0000F006F8DDF804E0DDE9022304B07047D3
:10042C002DE9F047089D8E4604468846002B4AD19C
:10043C008A42174662D9B2FA82F64EB1C6F120034F
:10044C0001FA06F820FA03F3B74043EA0808B4406F
:10045C004FEA174E1FFA87FCB8FBFEF1230C0EFB7C
:10046C00118843EA084301FB0CF29A4209D9FB18A4
:10047C0001F1FF3080F0EA809A4240F2E7800239C5
:10048C003B449A1AA3B2B2FBFEF00EFB102243EAD5
:10049C00024300FB0CFC9C4509D9FB1800F1FF3210
:1004AC0080F0D6809C4540F2D3803B44023840EA31
:1004BC000140A3EB0C0300211DB1F3400022C5E960
:1004CC000032BDE8F0878B4205D90DB1C5E90001BA
:1004DC0000210846F5E7B3FA83F1002946D17345AC
:1004EC0002D3824200F20581841A6EEB03020120D2
:1004FC009046002DE5D0C5E90048E2E7002A00F05F
:10050C009080B2FA82F6002E40F0A4808A1A030C76
:10051C004FEA174E80B2BCB20121B2FBFEFC0EFBBF
:10052C001C2243EA024304FB0CF29A4207D9FB1843
:10053C000CF1FF3802D29A4200F2E080C4469B1ABA
:10054C00B3FBFEF20EFB123340EA034302FB04F44E
:10055C009C4207D9FB1802F1FF3002D29C4200F2F8
:10056C00CA8002461B1B42EA0C40A5E7C1F12006DB
:10057C008B4022FA06F71F430EFA01F420FA06F319
:10058C002EFA06FE4FEA1749234300FA01F81FFA28
:10059C0087FCBEFBF9F01C0C09FB10EE44EA0E4480
:1005AC0000FB0CFEA64502FA01F209D93C1900F138
:1005BC00FF3A80F09C80A64540F2998002383C447A
:1005CC00A4EB0E041FFA83FEB4FBF9F309FB1344EE
:1005DC004EEA044403FB0CFCA44508D93C1903F176
:1005EC00FF3E80F08280A4457FD9023B3C4443EA25
:1005FC000040A4EB0C04A0FB02EC64457346E146FE
:10060C0062D35FD05DB1B8EB030264EB090404FA6A
:10061C0006F622FA01F31E43CC40C5E90064002122
:10062C004FE7B1FBF2FC010C41EA0E4180B240EA0B
:10063C0001423B4638463C46B846BE462026B1FBF6
:10064C00F7F1A2EB080241EA0C4166E7014618E714
:10065C0010462CE7C6F120022EFA02F3B740B14047
:10066C0020FA02F24FEA174E0A43B3FBFEF8BCB273
:10067C000EFB1833110C41EA034108FB04F9B0409E
:10068C0089454FEA104380B23ED9791808F1FF3CF6
:10069C0001D289451FD8A1EB0901B1FBFEF909FB79
:1006AC0004F80EFB191192B242EA0142424529D2DA
:1006BC00BA1809F1FF31C4D24245C2D2A9F10201E4
:1006CC003A44BEE7F0459DD2BEEB02036CEB070C3F
:1006DC000138E14696E7A7EB09094944A8F1020C59
:1006EC00B1FBFEF909FB04F8DBE773467FE75046E4
:1006FC0066E70846FDE63B44023A33E7ACF1020CF0
:10070C003B441CE749469CE7A1EB0901C446B1FBFD
:10071C00FEF909FB04F8C4E7704700BF80B487B04A
:10072C0000AFF860B9607A60BB68002B01D1002380
:10073C001DE0FB68DB43FB6000237B6111E0BA68C2
:10074C007B6913441B781A46FB685340DBB20B4A97
:10075C0052F82320FB681B0A5340FB607B69013372
:10076C007B617A697B689A42E9D3FB68DB43184664
:10077C001C37BD465DF8047B704700BFE85D06087A
:10078C0080B582B000AF786039603A687968002033
:10079C00FFF7C4FF034618460837BD4680BD80B539
:1007AC0088B000AF03460A46FB711346BB7100F0DC
:1007BC00A1FE0023BB600023FB602023FB6101230F
:1007CC003B61FB797B61BB79BB6107F1080207F1E7
:1007DC000C031146184600F01DFF0346002B03D1F5
:1007EC0000F0AAFE012302E000F0A6FE002318464A
:1007FC002037BD4680BD000080B584B000AF72B616
:10080C0000BF4FF000631B68FB600D4B1B68BB60A7
:10081C00FB683B603B6883F3088800BF094B4FF0D3
:10082C0000629A60BFF34F8F00BFBFF36F8F00BFA2
:10083C00BB687B607B68984700BF1037BD4680BDA6
:10084C000400000800ED00E090B5A9B000AF07F17E
:10085C00A003A03B1F335B095C011D4BC7F89C3008
:10086C0001210620FFF79BFF236E1A4A93422BD0DF
:10087C00184B2364002363644022FF21204605F0BB
:10088C0011FAD4E91023C4E9002300F033FE234607
:10089C001A46D7F89C10012000F0BCFD0346002B33
:1008AC0009D04FF0FF3320220B490C4803F014FF02
:1008BC0000F042FE08E000F03FFE4FF0FF33202234
:1008CC000749064803F008FFA437BD4690BD00BF9A
:1008DC0000000C08EFBEADDE205D060858010024B8
:1008EC00445D060890B599B000AF07F16003603B1A
:1008FC001F335B095C01164BFB65164BBB65402235
:10090C00FF21204605F0CEF9BB6D236000F0F2FD0F
:10091C0023461A46F96D012000F07CFD0346002B9E
:10092C0009D04FF0FF3324220B490C4803F0D4FEBE
:10093C0000F002FE08E000F0FFFD4FF0FF3309224B
:10094C000749064803F0C8FE6437BD4690BD00BF9A
:10095C0000000A08EFBEADDE605D060858010024F9
:10096C00845D060880B588B000AF78607B681B7822
:10097C000133FB61FB69043B19467868FFF700FF04
:10098C00B8610023FB60FB69043B7A6813441B6865
:10099C00FB60FB68BA699A4211D1114B3B61386913
:1009AC00FFF71EFD03469AB24FF0FF3339690D482D
:1009BC0003F092FEFFF796FFFFF71EFF0CE00A4BC9
:1009CC007B617869FFF70CFD03469AB24FF0FF3359
:1009DC007969044803F080FE00BF2037BD4680BD16
:1009EC00905D060858010024B85D060880B582B0F9
:1009FC0000AF0023FB714FF4967200210F4805F0F5
:100A0C0051F94FF0FF3301220C490D4803F0F2FE6F
:100A1C000A4B1B78FB71FB799AB24FF0FF330949F3
:100A2C00074803F0E7FE054B5B78562B03D10348D0
:100A3C00FFF798FF00E000BFDDE700BF2C000024AB
:100A4C00580100242D00002480B582B000AF00F0C6
:100A5C0039F900F0F1FA00F023F800F0DDF800F0BD
:100A6C008FF80C4B7B607868FFF7BAFC03469AB2A0
:100A7C004FF0FF337968084803F02EFE4FF4004125
:100A8C00064801F05CF8FFF7DFFEFFF7AFFF00BF91
:100A9C00FDE700BFC85D060858010024000002589D
:100AAC0080B59CB000AF07F124034C2200211846FE
:100ABC0005F0F8F83B1D20220021184605F0F2F84D
:100ACC00022001F057F800233B602C4B9B692B4A0A
:100ADC0023F440439361294B9B6903F440433B60EF
:100AEC003B6800BF254B9B6903F40053B3F5005FD3
:100AFC00F8D102237B6201233B6340237B630223F7
:100B0C00BB640023FB6404233B6522237B65012328
:100B1C00BB650223FB6502233B660C237B6600232B
:100B2C00BB664FF44063FB6607F12403184601F0E3
:100B3C005BF80346002B01D000F0F0F83F237B60FC
:100B4C000323BB600023FB6008233B6140237B61D4
:100B5C004023BB614FF48063FB6140233B623B1D30
:100B6C000321184601F01AFC0346002B01D000F0BB
:100B7C00D5F800BF7037BD4680BD00BF0048025895
:100B8C0080B500AF224B234A1A60214B4FF4E1325F
:100B9C005A601F4B00229A601D4B0022DA601C4BDE
:100BAC0000221A611A4B0C225A61194B00229A61CD
:100BBC00174B0022DA61164B00221A62144B0022EA
:100BCC005A62134B00229A62114803F035FD03461A
:100BDC00002B01D000F0A2F800210D4804F097FF83
:100BEC000346002B01D000F099F80021084804F0CE
:100BFC00CCFF0346002B01D000F090F8044804F021
:100C0C004DFF0346002B01D000F088F800BF80BDDB
:100C1C00580100240010014080B588B000AF07F1E6
:100C2C000C0300221A605A609A60DA601A61234B36
:100C3C00D3F8E030214A43F08003C2F8E0301F4B78
:100C4C00D3F8E03003F08003BB60BB681B4BD3F8D8
:100C5C00E0301A4A43F00203C2F8E030174BD3F8E5
:100C6C00E03003F002037B607B68144BD3F8E03078
:100C7C00124A43F00103C2F8E030104BD3F8E030D5
:100C8C0003F001033B603B6800224FF400410C4829
:100C9C0000F03CFF4FF40043FB6001233B61002359
:100CAC007B610023BB6107F10C031946044800F07B
:100CBC0085FD00BF2037BD4680BD00BF00440258F3
:100CCC000000025880B584B000AF3B4600221A6089
:100CDC005A609A60DA6000F025FB01233B70002318
:100CEC007B7000237B601F233B7287237B72002366
:100CFC00BB720323FB7201233B7301237B73002321
:100D0C00BB730023FB733B46184600F043FB0420E7
:100D1C0000F020FB00BF1037BD4680BD80B400AF93
:100D2C0072B600BF00BFFDE780B483B000AF0A4BC2
:100D3C00D3F8F430084A43F00203C2F8F430064BFF
:100D4C00D3F8F43003F002037B607B6800BF0C37F0
:100D5C00BD465DF8047B70470044025880B5B8B0BE
:100D6C0000AF786007F1CC0300221A605A609A60D9
:100D7C00DA601A6107F11003B8220021184604F05A
:100D8C0091FF7B681B68274A934246D14FF00102C2
:100D9C004FF00003C7E904230023C7F8883007F19C
:100DAC001003184601F086FE0346002B01D0FFF716
:100DBC00B5FF1D4BD3F8F0301B4A43F01003C2F8BB
:100DCC00F030194BD3F8F03003F01003FB60FB68E4
:100DDC00154BD3F8E030144A43F00203C2F8E0306C
:100DEC00114BD3F8E03003F00203BB60BB684FF447
:100DFC004043C7F8CC300223C7F8D0300023C7F8E3
:100E0C00D4300023C7F8D8300423C7F8DC3007F1FE
:100E1C00CC031946054800F0D1FC00BFE037BD46B5
:100E2C0080BD00BF0010014000440258000402586D
:100E3C0080B400AF00BFFDE780B400AF00BFFDE79A
:100E4C0080B400AF00BFFDE780B400AF00BFFDE78A
:100E5C0080B400AF00BFFDE780B400AF00BFBD465B
:100E6C005DF8047B704780B400AF00BFBD465DF8F1
:100E7C00047B704780B400AF00BFBD465DF8047BB7
:100E8C00704780B500AF00F049F900BF80BD00008D
:100E9C0080B400AF3E4BD3F888303D4A43F4700326
:100EAC00C2F888303B4B1B6803F00F03062B07D8A6
:100EBC00384B1B6823F00F03364A43F007031360CB
:100ECC00354B1B68344A43F001031360324B00224C
:100EDC001A61314B1A683049304B13400B602D4B63
:100EEC001B6803F00803002B07D02A4B1B6823F068
:100EFC000F03284A43F007031360274B00229A6123
:100F0C00254B0022DA61244B00221A62224B244A20
:100F1C009A62214B234ADA621F4B234A1A631E4BF7
:100F2C0000225A631C4B204A9A631B4B0022DA6343
:100F3C00194B1D4A1A64184B00225A64164B1B6835
:100F4C00154A23F480231360134B00221A66124BAC
:100F5C00D3F8D43003F48053002B13D10E4BD3F8B9
:100F6C00D4300D4A43F48053C2F8D4300F4B43F2C3
:100F7C00D2021A60084BD3F8D430074A23F48053BA
:100F8C00C2F8D43000BFBD465DF8047B704700BF8B
:100F9C0000ED00E000200052004402587FEDF6EA1C
:100FAC00000202020000FF01800201010040005219
:100FBC0080B400AF094BDB68084A43F00203D360EE
:100FCC0000BF064B5B6803F40053002BF9D000BF45
:100FDC0000BFBD465DF8047B704700BF0048025857
:100FEC00DFF838D0FFF7E4FFFFF752FF0C480D494C
:100FFC000D4A002302E0D458C4500433C4188C4268
:10100C00F9D30A4A0A4C002301E013600432A242CD
:10101C00FBD304F04FFEFFF717FD704700000524CB
:10102C000000002410000024306206081000002488
:10103C000C020024FEE7000080B582B000AF032054
:10104C0000F03EF901F060FB0246154B9B691B0A50
:10105C0003F00F031349CB5C03F01F0322FA03F3D5
:10106C007B600F4B9B6903F00F030E4AD35C03F0BC
:10107C001F037A6822FA03F30B4A13600B4A7B684E
:10108C0013600F2000F014F80346002B01D001234D
:10109C0002E0FFF749FE002318460837BD4680BD25
:1010AC0000440258E86106080400002400000024F3
:1010BC0080B582B000AF7860154B1B78002B01D146
:1010CC00012321E0134B1A68114B1B7819464FF47E
:1010DC007A73B3FBF1F3B2FBF3F3184600F015F996
:1010EC000346002B01D001230EE07B680F2B0AD89E
:1010FC00002279684FF0FF3000F0EDF8064A7B686B
:10110C001360002300E0012318460837BD4680BD5C
:10111C000C000024000000240800002480B400AF60
:10112C00064B1B781A46064B1B681344044A136083
:10113C0000BFBD465DF8047B704700BF0C00002467
:10114C00EC01002480B400AF034B1B681846BD466D
:10115C005DF8047B704700BFEC01002480B485B0BF
:10116C0000AF78607B6803F00703FB600B4BDB6818
:10117C00BB60BA684FF6FF031340BB60FB681A02F2
:10118C00BB681A43064B1343BB60044ABB68D3606D
:10119C0000BF1437BD465DF8047B704700ED00E0DE
:1011AC000000FA0580B400AF044BDB681B0A03F0A7
:1011BC0007031846BD465DF8047B704700ED00E060
:1011CC0080B483B000AF03463960FB80B7F90630BA
:1011DC00002B0ADB3B68DAB20C49B7F90630120176
:1011EC00D2B20B4483F800230AE03B68DAB2084918
:1011FC00FB8803F00F03043B1201D2B20B441A76A6
:10120C0000BF0C37BD465DF8047B704700E100E081
:10121C0000ED00E080B489B000AFF860B9607A608E
:10122C00FB6803F00703FB61FB69C3F10703042BA5
:10123C0028BF0423BB61FB690433062B02D9FB696D
:10124C00033B00E000237B614FF0FF32BB6902FAE5
:10125C0003F3DA43BB681A407B699A404FF0FF31C5
:10126C007B6901FA03F3D9437B680B40134318469F
:10127C002437BD465DF8047B7047000080B582B012
:10128C0000AF78607B68013BB3F1807F01D3012311
:10129C000FE00A4A7B68013B53600F214FF0FF308F
:1012AC00FFF78EFF054B00229A60044B07221A6051
:1012BC00002318460837BD4680BD00BF10E000E093
:1012CC0080B582B000AF78607868FFF747FF00BF49
:1012DC000837BD4680BD80B586B000AF0346B96007
:1012EC007A60FB81FFF75EFF78617A68B96878698C
:1012FC00FFF790FF0246B7F90E3011461846FFF77C
:10130C005FFF00BF1837BD4680BD80B582B000AF0F
:10131C0078607868FFF7B2FF034618460837BD4679
:10132C0080BD000080B400AFBFF35F8F00BF074BE0
:10133C005B6A064A23F480335362054B00225A60E1
:10134C0000BFBD465DF8047B704700BF00ED00E0B8
:10135C0090ED00E080B483B000AF78600B4A7B68FE
:10136C0043F0010353600A4B5B6A094A43F4803330
:10137C005362BFF34F8F00BFBFF36F8F00BF00BF2F
:10138C000C37BD465DF8047B704700BF90ED00E064
:10139C0000ED00E080B483B000AF78607B685A78D1
:1013AC001B4B9A601A4B1B69194A23F001031361FA
:1013BC00174A7B685B68D3607B681B7B1A077B686A
:1013CC00DB7A1B061A437B689B7ADB041A437B6827
:1013DC005B7B9B041A437B689B7B5B041A437B6897
:1013EC00DB7B1B041A437B685B7A1B021A437B680A
:1013FC001B7A5B0013437A6812781146044A0B433C
:10140C00136100BF0C37BD465DF8047B704700BF0D
:10141C0090ED00E080B58AB000AFF860B9607A60FA
:10142C00BB683B627B68FB610823FB762F4B1B7D03
:10143C00012B01D1022354E02C4B01221A75BB68FD
:10144C00B3F1006F16D3BB68B3F1016F12D2012355
:10145C007B6100BF254B00229A6179694CF25030B8
:10146C0000F082F8034687F8273097F82730002BD6
:10147C0032D101E0012334E01D4BDB681C4A43F000
:10148C000203D360BFF36F8F00BFBFF34F8F00BF5A
:10149C00FB691A683B6A1A603B6A04333B62FB695E
:1014AC000433FB61FB7E013BFB76FB7E002BEFD113
:1014BC00BFF36F8F00BFBFF34F8F00BF79694CF242
:1014CC00503000F051F8034687F82730084BDB68A2
:1014DC00074A23F00203D360044B00221A7597F8D5
:1014EC00273018462837BD4680BD00BFF0010024C8
:1014FC000020005280B400AF0C4BDB6803F00103FA
:10150C00002B0DD0094B0A4A5A60084B094A5A6005
:10151C00064BDB6803F00103002B01D0012300E034
:10152C0000231846BD465DF8047B7047002000522E
:10153C0023016745AB89EFCD80B400AF094BDB6865
:10154C00084A43F00103D360064BDB6803F0010348
:10155C00002B01D1012300E000231846BD465DF8A5
:10156C00047B70470020005280B586B000AF7860D5
:10157C00396004233B6100237B61FFF7E3FDF860D6
:10158C0010E07B68B3F1FF3F0CD0FFF7DBFD0246A8
:10159C00FB68D31A7A689A4202D37B68002B01D17C
:1015AC0003232DE0184B1A693B6913403A699A42A0
:1015BC00E7D03B68012B04D1134B1A69134B134032
:1015CC007B617B6923F00043002B0AD0104B9A6996
:1015DC007B6913430E4A93610B4A7B695361012368
:1015EC000EE03B68012B0AD1074B1B6903F48033D7
:1015FC00B3F5803F03D1044B4FF480325A61002382
:10160C0018461837BD4680BD002000520000EE176A
:10161C00F001002480B584B000AF786039600023FD
:10162C00FB733F4B1B7D012B01D1022374E03C4B20
:10163C0001221A753A4B00229A617B685B6803F0B1
:10164C000103002B09D001214CF25030FFF78CFF25
:10165C000346002B01D00123FB73FB7B002B57D1DE
:10166C007B681B68012B1ED17B681A697B685B68E1
:10167C001946104600F05AF87B685B6803F00103CA
:10168C00002B45D001214CF25030FFF76DFF034683
:10169C00002B01D00123FB73224BDB68214A23F082
:1016AC000803D36034E03B684FF0FF321A607B686C
:1016BC009B68BB6024E07B6859687B681B691A4691
:1016CC00B86800F057F87B685B6803F00103002BE7
:1016DC000CD001214CF25030FFF746FF0346FB7350
:1016EC00104BDA680F49104B1340CB60FB7B002B7F
:1016FC0003D03B68BA681A600AE0BB680133BB6070
:10170C007B68DA687B689B681344BA689A42D2D3C8
:10171C00034B00221A75FB7B18461037BD4680BD63
:10172C00F001002400200052FBF8FFFF80B483B0CE
:10173C0000AF786039603B6803F00103002B11D0D7
:10174C000B4BDB680A4A23F03003D360084BDA6892
:10175C0007497B681343CB60054BDB68044A43F0B5
:10176C008803D36000BF0C37BD465DF8047B70471F
:10177C000020005280B485B000AFF860B9607A6088
:10178C00BB6803F00103002B10D00B4BDB680A4A3B
:10179C0023F4E663D360084BDA68FB6819027B68B4
:1017AC000B431343044A43F08403D36000BF143744
:1017BC00BD465DF8047B70470020005280B489B0B0
:1017CC0000AF786039600023FB61864B7B618CE154
:1017DC003B681A680121FB6901FA03F313403B6172
:1017EC003B69002B00F07E813B685B6803F00303D0
:1017FC00012B05D03B685B6803F00303022B30D14F
:10180C007B689B68BB61FB695B00032202FA03F3F4
:10181C00DB43BA691340BB613B68DA68FB695B0068
:10182C0002FA03F3BA691343BB617B68BA699A6025
:10183C007B685B68BB610122FB6902FA03F3DB4343
:10184C00BA691340BB613B685B681B0903F001027A
:10185C00FB6902FA03F3BA691343BB617B68BA698B
:10186C005A603B685B6803F00303032B17D07B685B
:10187C00DB68BB61FB695B00032202FA03F3DB4309
:10188C00BA691340BB613B689A68FB695B0002FA5A
:10189C0003F3BA691343BB617B68BA69DA603B68CE
:1018AC005B6803F00303022B23D1FB69DA087B6826
:1018BC00083253F82230BB61FB6903F007039B002D
:1018CC000F2202FA03F3DB43BA691340BB613B6896
:1018DC001A69FB6903F007039B0002FA03F3BA6968
:1018EC001343BB61FB69DA087B680832B96943F8BA
:1018FC0022107B681B68BB61FB695B00032202FA48
:10190C0003F3DB43BA691340BB613B685B6803F0CC
:10191C000302FB695B0002FA03F3BA691343BB6170
:10192C007B68BA691A603B685B6803F44033002B30
:10193C0000F0D8802C4BD3F8F4302B4A43F0020340
:10194C00C2F8F430284BD3F8F43003F00203FB60F8
:10195C00FB68264AFB699B08023352F82330BB61B3
:10196C00FB6903F003039B000F2202FA03F3DB4332
:10197C00BA691340BB617B681D4A93424AD07B68AD
:10198C001C4A93422BD07B681B4A934225D07B6820
:10199C001A4A93421FD07B68194A934219D07B682C
:1019AC00184A934213D07B68174A93420DD07B6838
:1019BC00164A934207D07B68154A934201D10923FA
:1019CC0029E00A2327E0072325E0062323E005234B
:1019DC0021E004231FE003231DE002231BE001236D
:1019EC0019E000BF80000058004402580004005861
:1019FC00000002580004025800080258000C02585B
:101A0C00001002580014025800180258001C02580A
:101A1C00002402580023FA6902F00302920093405A
:101A2C00BA691343BB613849FB699B080233BA6935
:101A3C0041F823204FF0B0431B68BB613B69DB438B
:101A4C00BA691340BB613B685B6803F48013002BDD
:101A5C0003D0BA693B691343BB614FF0B042BB6919
:101A6C0013604FF0B0435B68BB613B69DB43BA6901
:101A7C001340BB613B685B6803F40013002B03D07D
:101A8C00BA693B691343BB614FF0B042BB69536009
:101A9C007B695B68BB613B69DB43BA691340BB6123
:101AAC003B685B6803F40033002B03D0BA693B69D5
:101ABC001343BB617B69BA695A607B691B68BB6164
:101ACC003B69DB43BA691340BB613B685B6803F459
:101ADC008033002B03D0BA693B691343BB617B692C
:101AEC00BA691A60FB690133FB613B681A68FB69D0
:101AFC0022FA03F3002B7FF46BAE00BF00BF243738
:101B0C00BD465DF8047B70470004005880B483B078
:101B1C0000AF78600B467B8013467B707B78002B84
:101B2C0003D07A887B689A6103E07B881A047B680F
:101B3C009A6100BF0C37BD465DF8047B704780B4DA
:101B4C0085B000AF78600B467B807B685B69FB607F
:101B5C007A88FB6813401A04FB68D9437B880B40D6
:101B6C001A437B689A6100BF1437BD465DF8047B4D
:101B7C007047000080B584B000AF7860194BDB680B
:101B8C0003F00403042B0AD0164BDB6803F00703A5
:101B9C007A689A4201D001231FE000231DE0114B0B
:101BAC00DB6823F007020F497B681343CB60FFF718
:101BBC00C9FAF86009E0FFF7C5FA0246FB68D31AC8
:101BCC00B3F57A7F01D9012307E0064B5B6803F478
:101BDC000053B3F5005FEED1002318461037BD4615
:101BEC0080BD00BF0048025880B58CB000AF786053
:101BFC007B68002B01D10123C8E37B681B6803F0D1
:101C0C000103002B00F08780884B1B6903F038031D
:101C1C00FB62864B9B6ABB62FB6A102B07D0FB6A8C
:101C2C00182B10D1BB6A03F00303022B0BD17F4B93
:101C3C001B6803F40033002B6CD07B685B68002BB3
:101C4C0068D10123A2E37B685B68B3F5803F06D1C2
:101C5C00764B1B68754A43F4803313602EE07B6827
:101C6C005B68002B0CD1714B1B68704A23F48033DA
:101C7C0013606E4B1B686D4A23F4802313601DE0C8
:101C8C007B685B68B3F5A02F0CD1684B1B68674A67
:101C9C0043F480231360654B1B68644A43F4803320
:101CAC0013600BE0614B1B68604A23F480331360B4
:101CBC005E4B1B685D4A23F4802313607B685B6872
:101CCC00002B13D0FFF73EFA786208E0FFF73AFAE0
:101CDC0002467B6AD31A642B01D9032356E3534B78
:101CEC001B6803F40033002BF0D014E0FFF72AFA42
:101CFC00786208E0FFF726FA02467B6AD31A642B57
:101D0C0001D9032342E3494B1B6803F40033002B36
:101D1C00F0D100E000BF7B681B6803F00203002BCE
:101D2C0000F08C80414B1B6903F038033B623F4B46
:101D3C009B6AFB613B6A002B07D03B6A182B37D19F
:101D4C00FB6903F00303002B32D1384B1B6803F003
:101D5C000403002B05D07B68DB68002B01D1012329
:101D6C0014E3324B1B6823F019027B68DB682F49A4
:101D7C0013430B60FFF7E6F9786208E0FFF7E2F92E
:101D8C0002467B6AD31A022B01D90323FEE2274BAE
:101D9C001B6803F00403002BF0D0244B5B6823F08A
:101DAC00FE427B681B691B06204913434B6045E0D0
:101DBC007B68DB68002B26D01C4B1B6823F01902B8
:101DCC007B68DB68194913430B60FFF7BBF978623A
:101DDC0008E0FFF7B7F902467B6AD31A022B01D948
:101DEC000323D3E2114B1B6803F00403002BF0D048
:101DFC000E4B5B6823F0FE427B681B691B060B498C
:101E0C0013434B601AE0094B1B68084A23F001038B
:101E1C001360FFF797F978620AE0FFF793F902462F
:101E2C007B6AD31A022B03D90323AFE20044025876
:101E3C00964B1B6803F00403002BEED17B681B68E8
:101E4C0003F01003002B6AD0904B1B6903F038038E
:101E5C00BB618E4B9B6A7B61BB69082B07D0BB694E
:101E6C00182B1BD17B6903F00303012B16D1874B75
:101E7C001B6803F48073002B05D07B68DB69802B17
:101E8C0001D0012382E2814BDB6823F07C527B681A
:101E9C001B6A1B067D491343CB6040E07B68DB6902
:101EAC00002B23D0794B1B68784A43F080031360D6
:101EBC00FFF748F9786208E0FFF744F902467B6ABD
:101ECC00D31A022B01D9032360E2704B1B6803F475
:101EDC008073002BF0D06D4BDB6823F07C527B6859
:101EEC001B6A1B0669491343CB6018E0674B1B68E0
:101EFC00664A23F080031360FFF724F9786208E048
:101F0C00FFF720F902467B6AD31A022B01D903236F
:101F1C003CE25E4B1B6803F48073002BF0D17B68B2
:101F2C001B6803F00803002B36D07B685B69002B21
:101F3C0019D0564B5B6F554A43F001035367FFF7BB
:101F4C0001F9786208E0FFF7FDF802467B6AD31AC4
:101F5C00022B01D9032319E24C4B5B6F03F00203F4
:101F6C00002BF0D018E0494B5B6F484A23F001037B
:101F7C005367FFF7E7F8786208E0FFF7E3F80246EB
:101F8C007B6AD31A022B01D90323FFE13F4B5B6F12
:101F9C0003F00203002BF0D17B681B6803F02003D5
:101FAC00002B36D07B689B69002B19D0374B1B68F4
:101FBC00364A43F480531360FFF7C4F8786208E0A4
:101FCC00FFF7C0F802467B6AD31A022B01D9032310
:101FDC00DCE12E4B1B6803F40053002BF0D018E00F
:101FEC002A4B1B68294A23F480531360FFF7AAF885
:101FFC00786208E0FFF7A6F802467B6AD31A022B38
:10200C0001D90323C2E1214B1B6803F40053002BBD
:10201C00F0D17B681B6803F00403002B00F0868072
:10202C001B4B1B681A4A43F480731360FFF78AF842
:10203C00786208E0FFF786F802467B6AD31A642BB5
:10204C0001D90323A2E1124B1B6803F48073002B0C
:10205C00F0D07B689B68012B06D10C4B1B6F0B4A95
:10206C0043F00103136732E07B689B68002B11D1AE
:10207C00064B1B6F054A23F001031367034B1B6FC1
:10208C00024A23F00403136721E000BF0044025806
:10209C00004802587B689B68052B0CD1834B1B6F47
:1020AC00824A43F004031367804B1B6F7F4A43F053
:1020BC00010313670BE07D4B1B6F7C4A23F001037C
:1020CC0013677A4B1B6F794A23F0040313677B6801
:1020DC009B68002B15D0FFF735F878620AE0FFF704
:1020EC0031F802467B6AD31A41F28832934201D905
:1020FC0003234BE16D4B1B6F03F00203002BEED05F
:10210C0014E0FFF71FF878620AE0FFF71BF80246AD
:10211C007B6AD31A41F28832934201D9032335E109
:10212C00624B1B6F03F00203002BEED17B685B6AE2
:10213C00002B00F02A815D4B1B6903F03803182B30
:10214C0000F0BA807B685B6A022B40F09580574B9D
:10215C001B68564A23F080731360FEF7F3FF786216
:10216C0008E0FEF7EFFF02467B6AD31A022B01D977
:10217C0003230BE14D4B1B6803F00073002BF0D1D4
:10218C004A4B9A6A4A4B13407A68916A7A68D26AC7
:10219C0012010A43454913438B627B681B6B013B5D
:1021AC00C3F308027B685B6B013B5B029BB21A4377
:1021BC007B689B6B013B1B0403F4FE031A437B6897
:1021CC00DB6B013B1B0603F0FE43384913430B63E7
:1021DC00364BDB6A354A23F00103D362334B5A6B1F
:1021EC00344B13407A68926CD200304913434B63E2
:1021FC002E4BDB6A23F00C027B681B6C2B491343C0
:10220C00CB622A4BDB6A23F002027B685B6C2749AA
:10221C001343CB62254BDB6A244A43F48033D362ED
:10222C00224BDB6A214A43F40033D3621F4BDB6A37
:10223C001E4A43F48023D3621C4BDB6A1B4A43F0D7
:10224C000103D362194B1B68184A43F08073136067
:10225C00FEF778FF786208E0FEF774FF02467B6AAF
:10226C00D31A022B01D9032390E0104B1B6803F007
:10227C000073002BF0D088E00C4B1B680B4A23F04A
:10228C0080731360FEF75EFF786208E0FEF75AFF7A
:10229C0002467B6AD31A022B01D9032376E0034B47
:1022AC001B6803F00073002BF0D16EE00044025861
:1022BC000CFCFFFF0700FFFF364B9B6A3B61354B65
:1022CC001B6BFB607B685B6A012B31D03B6903F0B5
:1022DC0003027B689B6A9A422AD13B691B0903F073
:1022EC003F027B68DB6A9A4222D1FB68C3F3080287
:1022FC007B681B6B013B9A421AD1FB685B0A03F0AB
:10230C007F027B685B6B013B9A4211D1FB681B0C13
:10231C0003F07F027B689B6B013B9A4208D1FB6800
:10232C001B0E03F07F027B68DB6B013B9A4201D0F2
:10233C0001232BE0174B5B6BDB08C3F30C033B61F6
:10234C007B689B6C3A699A421FD0124BDB6A114A2C
:10235C0023F00103D362FEF7F5FE786200BFFEF7AF
:10236C00F1FE02467B6A9342F9D00A4B5A6B0A4B38
:10237C0013407A68926CD200064913434B63054BA9
:10238C00DB6A044A43F00103D3620023184630375A
:10239C00BD4680BD004402580700FFFF80B586B0E3
:1023AC0000AF786039607B68002B01D101239CE180
:1023BC008A4B1B6803F00F033A689A4210D9874B7B
:1023CC001B6823F00F0285493B6813430B60834B5A
:1023DC001B6803F00F033A689A4201D0012384E191
:1023EC007B681B6803F00403002B10D07B681A6910
:1023FC007B4B9B6903F070039A4208D9784B9B691D
:10240C0023F070027B681B69754913438B617B68F1
:10241C001B6803F00803002B10D07B685A69704BC3
:10242C00DB6903F070039A4208D96D4BDB6923F02A
:10243C0070027B685B696A491343CB617B681B68DC
:10244C0003F01003002B10D07B689A69644BDB6996
:10245C0003F4E0639A4208D9614BDB6923F4E06230
:10246C007B689B695E491343CB617B681B6803F0F7
:10247C002003002B10D07B68DA69594B1B6A03F0E0
:10248C0070039A4208D9564B1B6A23F070027B6882
:10249C00DB69534913430B627B681B6803F002032F
:1024AC00002B10D07B68DA684D4B9B6903F00F034F
:1024BC009A4208D94A4B9B6923F00F027B68DB6870
:1024CC00474913438B617B681B6803F00103002BA6
:1024DC0055D0434B9B6923F470627B689B684049E1
:1024EC0013438B617B685B68022B07D13C4B1B68E9
:1024FC0003F40033002B21D10123F6E07B685B68E9
:10250C00032B07D1364B1B6803F00073002B15D13E
:10251C000123EAE07B685B68012B07D1304B1B6819
:10252C0003F48073002B09D10123DEE02C4B1B68D4
:10253C0003F00403002B01D10123D6E0284B1B69C7
:10254C0023F007027B685B68254913430B61FEF798
:10255C00F9FD78610AE0FEF7F5FD02467B69D31AB6
:10256C0041F28832934201D90323BEE01C4B1B6914
:10257C0003F038027B685B68DB009A42EBD17B6826
:10258C001B6803F00203002B10D07B68DA68144B35
:10259C009B6903F00F039A4208D2114B9B6923F0FD
:1025AC000F027B68DB680E4913438B610B4B1B6876
:1025BC0003F00F033A689A4214D2084B1B6823F0BD
:1025CC000F0206493B6813430B60044B1B6803F076
:1025DC000F033A689A4205D0012386E0002000528E
:1025EC00004402587B681B6803F00403002B10D0D6
:1025FC007B681A693F4B9B6903F070039A4208D2BF
:10260C003C4B9B6923F070027B681B69394913436F
:10261C008B617B681B6803F00803002B10D07B6870
:10262C005A69344BDB6903F070039A4208D2314B80
:10263C00DB6923F070027B685B692E491343CB6125
:10264C007B681B6803F01003002B10D07B689A6921
:10265C00284BDB6903F4E0639A4208D2254BDB6913
:10266C0023F4E0627B689B6922491343CB617B684E
:10267C001B6803F02003002B10D07B68DA691D4B1C
:10268C001B6A03F070039A4208D21A4B1B6A23F0A0
:10269C0070027B68DB69174913430B6200F034F856
:1026AC000246144B9B691B0A03F00F031249CB5CC7
:1026BC0003F01F0322FA03F33B610E4B9B6903F0FB
:1026CC000F030D4AD35C03F01F033A6922FA03F39C
:1026DC000A4A13600A4A3B6913600A4B1B68184686
:1026EC00FEF7E6FC0346FB73FB7B18461837BD462A
:1026FC0080BD00BF00440258E861060804000024B5
:10270C00000000240800002480B489B000AFB34B53
:10271C001B6903F03803182B00F2558101A252F803
:10272C0023F000BF95270608D3290608D3290608ED
:10273C00D3290608D3290608D3290608D329060865
:10274C00D3290608BB270608D3290608D32906086F
:10275C00D3290608D3290608D3290608D329060845
:10276C00D3290608C1270608D3290608D329060849
:10277C00D3290608D3290608D3290608D329060825
:10278C00D3290608C7270608944B1B6803F02003BF
:10279C00002B09D0914B1B68DB0803F00303904A14
:1027AC0022FA03F3BB6111E18D4BBB610EE18D4B42
:1027BC00BB610BE18C4BBB6108E1884B9B6A03F05E
:1027CC0003037B61854B9B6A1B0903F03F033B6151
:1027DC00824BDB6A03F00103FB60804B5B6BDB0815
:1027EC00C3F30C03FA6802FB03F307EE903AF8EE1E
:1027FC00677AC7ED027A3B69002B00F0E1807B69B8
:10280C00022B00F083807B69022B00F2A1807B6994
:10281C00002B03D07B69012B56D099E06F4B1B68C2
:10282C0003F02003002B2DD06C4B1B68DB0803F04E
:10283C0003036B4A22FA03F37B607B6807EE903A42
:10284C00F8EE676A3B6907EE903AF8EE677A86EE27
:10285C00A77A624B1B6BC3F3080307EE903AF8EEB2
:10286C00676A97ED026ADFED615AC6EE257A76EE5D
:10287C00A77AF7EE006A77EEA67A67EE277AC7EDAD
:10288C00077A87E03B6907EE903AF8EE677ADFED5E
:10289C00586A86EEA77A514B1B6BC3F3080307EEFD
:1028AC00903AF8EE676A97ED026ADFED505AC6EE81
:1028BC00257A76EEA77AF7EE006A77EEA67A67EEBF
:1028CC00277AC7ED077A65E03B6907EE903AF8EE98
:1028DC00677ADFED486A86EEA77A404B1B6BC3F331
:1028EC00080307EE903AF8EE676A97ED026ADFED9F
:1028FC003F5AC6EE257A76EEA77AF7EE006A77EEA7
:10290C00A67A67EE277AC7ED077A43E03B6907EEB4
:10291C00903AF8EE677ADFED386A86EEA77A2F4B9D
:10292C001B6BC3F3080307EE903AF8EE676A97ED5A
:10293C00026ADFED2E5AC6EE257A76EEA77AF7EE0E
:10294C00006A77EEA67A67EE277AC7ED077A21E060
:10295C003B6907EE903AF8EE677ADFED266A86EE71
:10296C00A77A1E4B1B6BC3F3080307EE903AF8EEE5
:10297C00676A97ED026ADFED1D5AC6EE257A76EE90
:10298C00A77AF7EE006A77EEA67A67EE277AC7ED9C
:10299C00077A00BF114B1B6B5B0A03F07F030133FB
:1029AC003B603B6807EE903AB8EE677AD7ED076A62
:1029BC00C6EE877AFCEEE77A17EE903ABB6105E03B
:1029CC000023BB6102E0074BBB6100BFBB6918462B
:1029DC002437BD465DF8047B704700BF00440258A5
:1029EC000090D00300093D0040787D0100000046B6
:1029FC000024744C0024744A20BCBE4B80B582B0B9
:102A0C0000AFFFF781FE0246104B9B691B0A03F0D7
:102A1C000F030F49CB5C03F01F0322FA03F37B6017
:102A2C000A4B9B6903F00F03094AD35C03F01F03A5
:102A3C007A6822FA03F3074A1360074A7B6813602B
:102A4C00044B1B6818460837BD4680BD004402582D
:102A5C00E8610608040000240000002480B500AFE3
:102A6C00FFF7CCFF0246064BDB691B0903F007039B
:102A7C000449CB5C03F01F0322FA03F3184680BD14
:102A8C0000440258E861060880B500AFFFF7B6FFB6
:102A9C000246064BDB691B0A03F007030449CB5CB7
:102AAC0003F01F0322FA03F3184680BD00440258BA
:102ABC00E86106082DE9B04FC6B000AFC7F80401B5
:102ACC00002387F81731002387F81631D7F8043123
:102ADC00D3E9002302F00064002554EA050349D031
:102AEC00D7F804315B6EB3F5401F2FD0B3F5401F00
:102AFC0028D8B3F5001F1AD0B3F5001F22D8002B2D
:102B0C0003D0B3F5801F07D01CE0AB4BDB6AAA4A9D
:102B1C0043F40033D3621AE0D7F8043108330221AE
:102B2C00184601F025FC034687F817310FE0D7F85B
:102B3C00043128330221184601F0CCFC034687F8F7
:102B4C00173104E0012387F8173100E000BF97F834
:102B5C001731002B0AD1984B1B6D23F44011D7F879
:102B6C0004315B6E944A0B43136503E097F81731FD
:102B7C0087F81631D7F80431D3E9002302F48078B2
:102B8C004FF0000958EA090347D0D7F804319B6D80
:102B9C00042B2AD801A252F823F000BFBD2B060843
:102BAC00CB2B0608E12B0608FF2B0608FF2B06088B
:102BBC00814BDB6A804A43F40033D3621AE0D7F8C6
:102BCC00043108330021184601F0D2FB034687F884
:102BDC0017310FE0D7F8043128330021184601F0E3
:102BEC0079FC034687F8173104E0012387F8173185
:102BFC0000E000BF97F81731002B0AD16E4B1B6D0C
:102C0C0023F00701D7F804319B6D6B4A0B43136516
:102C1C0003E097F8173187F81631D7F80431D3E968
:102C2C00002302F4806A4FF0000B5AEA0B035BD0CE
:102C3C00D7F80431D3F8A430B3F5200F3BD0B3F55B
:102C4C00200F34D8B3F5000F37D0B3F5000F2ED8C2
:102C5C00B3F5C00F33D0B3F5C00F28D8B3F5800F40
:102C6C001AD0B3F5800F22D8002B03D0B3F5001F78
:102C7C0007D01CE0504BDB6A4F4A43F40033D3625D
:102C8C001EE0D7F8043108330021184601F070FB20
:102C9C00034687F8173113E0D7F8043128330021A5
:102CAC00184601F017FC034687F8173108E001239A
:102CBC0087F8173104E000BF02E000BF00E000BF5E
:102CCC0097F81731002B0BD13B4B9B6D23F4600114
:102CDC00D7F80431D3F8A430374A0B43936503E09B
:102CEC0097F8173187F81631D7F80431D3E9002358
:102CFC0002F40063C7F8F8300023C7F8FC30D7E9BA
:102D0C003E120B4613435DD0D7F80431D3F8A830EC
:102D1C00B3F1A06F3BD0B3F1A06F34D8B3F1806F97
:102D2C0037D0B3F1806F2ED8B3F1407F33D0B3F1ED
:102D3C00407F28D8B3F1007F1AD0B3F1007F22D89E
:102D4C00002B03D0B3F1807F07D01CE01A4BDB6A59
:102D5C00194A43F40033D3621EE0D7F80431083328
:102D6C000021184601F004FB034687F8173113E0E5
:102D7C00D7F8043128330021184601F0ABFB034689
:102D8C0087F8173108E0012387F8173104E000BFFA
:102D9C0002E000BF00E000BF97F81731002B0DD107
:102DAC00054B9B6D23F0E061D7F80431D3F8A830C4
:102DBC00014A0B43936505E00044025897F817311C
:102DCC0087F81631D7F80431D3E9002302F00073E9
:102DDC00C7F8F0300023C7F8F430D7E93C120B46A3
:102DEC0013433AD0D7F80431DB6C302B1FD0302B87
:102DFC0019D8202B0CD0202B15D8002B19D0102B28
:102E0C0011D1AA4BDB6AA94A43F40033D36211E017
:102E1C00D7F8043108330221184601F0A9FA034609
:102E2C0087F8173106E0012387F8173102E000BF5D
:102E3C0000E000BF97F81731002B0AD19B4BDB6CDD
:102E4C0023F03001D7F80431DB6C984A0B43D36480
:102E5C0003E097F8173187F81631D7F80431D3E926
:102E6C00002302F48053C7F8E8300023C7F8EC3095
:102E7C00D7E93A120B46134351D0D7F80431DB6D26
:102E8C00B3F5804F35D0B3F5804F2ED8B3F5405FF6
:102E9C0031D0B3F5405F28D8B3F5005F1AD0B3F545
:102EAC00005F22D8002B03D0B3F5805F07D01CE065
:102EBC007E4BDB6A7D4A43F40033D3621CE0D7F8C7
:102ECC00043108330021184601F052FA034687F802
:102EDC00173111E0D7F8043128330021184601F0DE
:102EEC00F9FA034687F8173106E0012387F8173102
:102EFC0002E000BF00E000BF97F81731002B0AD1A9
:102F0C006A4B1B6D23F4E041D7F80431DB6D674A43
:102F1C000B43136503E097F8173187F81631D7F890
:102F2C000431D3E9002302F40053C7F8E030002346
:102F3C00C7F8E430D7E938120B46134353D0D7F80F
:102F4C0004311B6EB3F5A02F33D0B3F5A02F2CD8C2
:102F5C00B3F5802F2FD0B3F5802F26D8B3F5403F93
:102F6C002BD0B3F5403F20D8B3F5003F12D0B3F5CA
:102F7C00003F1AD8002B22D0B3F5803F15D1D7F8DB
:102F8C00043108330121184601F0F2F9034687F8A1
:102F9C00173115E0D7F8043128330121184601F018
:102FAC0099FA034687F817310AE0012387F817319D
:102FBC0006E000BF04E000BF02E000BF00E000BF7D
:102FCC0097F81731002B0AD1384B1B6D23F4E021F5
:102FDC00D7F804311B6E354A0B43136503E097F8A1
:102FEC00173187F81631D7F80431D3E9002302F4EE
:102FFC008043C7F8D8300023C7F8DC30D7E9361245
:10300C000B46134358D0D7F80431D3F8AC30B3F196
:10301C00A04F33D0B3F1A04F2CD8B3F1804F2FD0A9
:10302C00B3F1804F26D8B3F1405F2BD0B3F1405FA2
:10303C0020D8B3F1005F12D0B3F1005F1AD8002B87
:10304C0022D0B3F1805F15D1D7F8043108330121B8
:10305C00184601F08DF9034687F8173115E0D7F8BB
:10306C00043128330121184601F034FA034687F85D
:10307C0017310AE0012387F8173106E000BF04E09E
:10308C0000BF02E000BF00E000BF97F81731002B33
:10309C000ED1064B9B6D23F0E041D7F80431D3F8E9
:1030AC00AC30024A0B43936506E000BF0044025863
:1030BC0097F8173187F81631D7F80431D3E9002384
:1030CC0002F40043C7F8D0300023C7F8D430D7E956
:1030DC0034120B46134337D0D7F80431DB6EB3F1FF
:1030EC00005F0ED0B3F1005F16D8002B18D0B3F1EF
:1030FC00805F11D1C44BDB6AC34A43F40033D36203
:10310C000FE0D7F8043108330121184601F030F9EB
:10311C00034687F8173104E0012387F8173100E0E4
:10312C0000BF97F81731002B0AD1B74B1B6D23F05A
:10313C004051D7F80431DB6EB34A0B43136503E0FF
:10314C0097F8173187F81631D7F80431D3E90023F3
:10315C0002F08073C7F8C8300023C7F8CC30D7E929
:10316C0032120B46134339D0D7F804319B6C032B26
:10317C001CD801A252F823F0C1310608953106087B
:10318C00A3310608C13106089F4BDB6A9E4A43F403
:10319C000033D3620FE0D7F804310833022118460C
:1031AC0001F0E6F8034687F8173104E0012387F8AD
:1031BC00173100E000BF97F81731002B0AD1924B62
:1031CC00DB6C23F00301D7F804319B6C8E4A0B4364
:1031DC00D36403E097F8173187F81631D7F8043128
:1031EC00D3E9002302F48003C7F8C0300023C7F8EA
:1031FC00C430D7E930120B46134300F09980834B4F
:10320C001B68824A43F480731360FDF79BFFC7F879
:10321C0010010BE0FDF796FF0246D7F81031D31AD8
:10322C00642B03D9032387F8173105E0774B1B6810
:10323C0003F48073002BEDD097F81731002B73D16A
:10324C00714B1A6FD7F80431D3F8B030534003F4F4
:10325C004073002B15D06C4B1B6F23F44073C7F8D5
:10326C000C31694B1B6F684A43F480331367664B10
:10327C001B6F654A23F480331367634AD7F80C310C
:10328C001367D7F80431D3F8B030B3F5807F18D179
:10329C00FDF758FFC7F810010DE0FDF753FF02468C
:1032AC00D7F81031D21A41F288339A4203D903234A
:1032BC0087F8173105E0544B1B6F03F00203002B0A
:1032CC00EBD097F81731002B29D1D7F80431D3F86C
:1032DC00B03003F44073B3F5407F0ED14A4B1B69F9
:1032EC0023F47C51D7F80431D3F8B0301A09484B89
:1032FC001340454A0B43136105E0434B1B69424A9B
:10330C0023F47C531361404B196FD7F80431D3F875
:10331C00B030C3F30B033C4A0B43136708E097F838
:10332C00173187F8163103E097F8173187F8163103
:10333C00D7F80431D3E9002302F00103C7F8B83001
:10334C000023C7F8BC30D7E92E120B46134300F00C
:10335C008F80D7F804319B6F282B71D801A252F8BB
:10336C0023F000BF553406084D3406084D340608CA
:10337C004D3406084D3406084D3406084D34060805
:10338C004D340608213406084D3406084D34060821
:10339C004D3406084D3406084D3406084D340608E5
:1033AC004D340608373406084D3406084D340608EB
:1033BC004D3406084D3406084D3406084D340608C5
:1033CC004D340608553406084D3406084D340608AD
:1033DC004D3406084D3406084D3406084D340608A5
:1033EC004D340608553406084D3406084D3406088D
:1033FC004D3406084D3406084D3406084D34060885
:10340C004D3406085534060800440258004802584A
:10341C00CFFFFF00D7F8043108330121184600F024
:10342C00A7FF034687F817310FE0D7F8043128338C
:10343C000121184601F04EF8034687F8173104E0D5
:10344C00012387F8173100E000BF97F81731002BE4
:10345C000AD1BF4B5B6D23F03801D7F804319B6F59
:10346C00BB4A0B43536503E097F8173187F81631C5
:10347C00D7F80431D3E9002302F00203C7F8B030C7
:10348C000023C7F8B430D7E92C120B46134341D0B4
:10349C00D7F804315B6F052B24D801A252F823F026
:1034AC00F9340608C5340608DB340608F934060876
:1034BC00F9340608F9340608D7F804310833012129
:1034CC00184600F055FF034687F817310FE0D7F880
:1034DC00043128330121184600F0FCFF034687F81D
:1034EC00173104E0012387F8173100E000BF97F88B
:1034FC001731002B0AD1964B5B6D23F00701D7F8DF
:10350C0004315B6F924A0B43536503E097F8173114
:10351C0087F81631D7F80431D3E9002302F00403FD
:10352C00C7F8A8300023C7F8AC30D7E92A120B46ED
:10353C00134344D0D7F80431D3F89030052B25D859
:10354C0001A252F823F000BFA13506086D3506081C
:10355C0083350608A1350608A1350608A1350608ED
:10356C00D7F8043108330121184600F001FF034657
:10357C0087F817310FE0D7F80431283301211846AA
:10358C0000F0A8FF034687F8173104E0012387F801
:10359C00173100E000BF97F81731002B0BD16C4BA3
:1035AC009B6D23F00701D7F80431D3F89030684AAB
:1035BC000B43936503E097F8173187F81631D7F86A
:1035CC000431D3E9002302F02003C7F8A030002314
:1035DC00C7F8A430D7E928120B46134355D0D7F8B7
:1035EC000431D3F88C30B3F1A04F33D0B3F1A04FEA
:1035FC002CD8B3F1804F2FD0B3F1804F26D8B3F134
:10360C00405F2BD0B3F1405F20D8B3F1005F12D0F4
:10361C00B3F1005F1AD8002B22D0B3F1805F15D123
:10362C00D7F8043108330021184600F0A1FE0346F8
:10363C0087F8173115E0D7F80431283302211846E2
:10364C0000F048FF034687F817310AE0012387F89A
:10365C00173106E000BF04E000BF02E000BF00E04D
:10366C0000BF97F81731002B0BD1394B5B6D23F052
:10367C00E041D7F80431D3F88C30354A0B4353650D
:10368C0003E097F8173187F81631D7F80431D3E9EE
:10369C00002302F04003C7F898300023C7F89C3091
:1036AC00D7E926120B46134358D0D7F80431D3F878
:1036BC009830B3F5A05F33D0B3F5A05F2CD8B3F539
:1036CC00805F2FD0B3F5805F26D8B3F5406F2BD039
:1036DC00B3F5406F20D8B3F5006F12D0B3F5006F7F
:1036EC001AD8002B22D0B3F5806F15D1D7F804313E
:1036FC0008330021184600F03BFE034687F81731CB
:10370C0015E0D7F8043128330221184600F0E2FE08
:10371C00034687F817310AE0012387F8173106E0D2
:10372C0000BF04E000BF02E000BF00E000BF97F85C
:10373C001731002B0ED1064B9B6D23F4E051D7F8BB
:10374C000431D3F89830024A0B43936506E000BF6E
:10375C000044025897F8173187F81631D7F804311E
:10376C00D3E9002302F08003C7F890300023C7F898
:10377C009430D7E924120B46134355D0D7F80431B3
:10378C00D3F89C30B3F5204F33D0B3F5204F2CD861
:10379C00B3F5004F2FD0B3F5004F26D8B3F5C04F7B
:1037AC002BD0B3F5C04F20D8B3F5804F12D0B3F562
:1037BC00804F1AD8002B22D0B3F5005F15D1D7F863
:1037CC00043108330021184600F0D2FD034687F877
:1037DC00173115E0D7F8043128330221184600F0D0
:1037EC0079FE034687F817310AE0012387F8173171
:1037FC0006E000BF04E000BF02E000BF00E000BF35
:10380C0097F81731002B0BD1A04B9B6D23F4604123
:10381C00D7F80431D3F89C309C4A0B43936503E0F2
:10382C0097F8173187F81631D7F80431D3E900230C
:10383C0002F00803C7F888300023C7F88C30D7E9AA
:10384C0022120B4613431ED0D7F80431D3F8803024
:10385C00B3F5805F0CD1D7F8043128330221184618
:10386C0000F038FE0346002B02D0012387F81631F6
:10387C00864B5B6D23F44051D7F80431D3F880307C
:10388C00824A0B435365D7F80431D3E9002302F085
:10389C001003C7F880300023C7F88430D7E9201212
:1038AC000B4613431ED0D7F80431D3F89430B3F53C
:1038BC00807F0CD1D7F8043128330221184600F050
:1038CC0009FE0346002B02D0012387F816316F4BFB
:1038DC009B6D23F44071D7F80431D3F894306B4AC4
:1038EC000B439365D7F80431D3E9002302F400238A
:1038FC00BB670023FB67D7E91E120B4613433ED070
:10390C00D7F80431D3F8A030B3F5003F22D0B3F58B
:10391C00003F1BD8002B03D0B3F5803F0BD015E034
:10392C00D7F8043108330021184600F021FD034676
:10393C0087F817310FE0D7F80431283302211846E5
:10394C0000F0C8FD034687F8173104E0012387F81F
:10395C00173100E000BF97F81731002B0BD14B4B00
:10396C009B6D23F44031D7F80431D3F8A030474A8B
:10397C000B43936503E097F8173187F81631D7F8A6
:10398C000431D3E9002302F480233B6700237B67D7
:10399C00D7E91C120B4613433BD0D7F80431D3F8AC
:1039AC008430B3F5401F1FD0B3F5401F18D8B3F5C2
:1039BC00801F03D0B3F5001F07D011E0334BDB6A37
:1039CC00324A43F40033D3620FE0D7F80431283382
:1039DC000121184600F07EFD034687F8173104E0FC
:1039EC00012387F8173100E000BF97F81731002B3F
:1039FC000BD1264B5B6D23F44011D7F80431D3F86F
:103A0C008430224A0B43536503E097F8173187F84B
:103A1C001631D7F80431D3E9002302F48033BB66A6
:103A2C000023FB66D7E91A120B46134334D0D7F8A0
:103A3C0004311B6D002B03D0B3F5803F07D011E090
:103A4C00124BDB6A114A43F40033D3620EE0D7F811
:103A5C00043108330221184600F08AFC034687F82B
:103A6C00173103E0012387F8173100BF97F817319E
:103A7C00002B0DD1054BDB6C23F48031D7F80431CE
:103A8C001B6D024A0B43D36406E000BF004402588E
:103A9C0097F8173187F81631D7F80431D3E900239A
:103AAC0002F000533B6600237B66D7E918120B46E5
:103ABC0013430CD0D7F8043128330221184600F0F8
:103ACC0009FD0346002B02D0012387F81631D7F8E5
:103ADC000431D3E9002302F40033BB650023FB65FA
:103AEC00D7E916120B46134336D0D7F80431DB6FE7
:103AFC00B3F5407F18D0B3F5407F11D8B3F5007FF4
:103B0C0014D0B3F5007F0BD8002B11D0B3F5807F08
:103B1C0006D1B74BDB6AB64A43F40033D36208E0F4
:103B2C00012387F8173104E000BF02E000BF00E07A
:103B3C0000BF97F81731002B0AD1AD4B5B6D23F406
:103B4C004071D7F80431DB6FA94A0B43536503E08E
:103B5C0097F8173187F81631D7F80431D3E90023D9
:103B6C0002F480133B6500237B65D7E914120B46E6
:103B7C00134309D09E4B1B6D23F00041D7F8043141
:103B8C001B6F9B4A0B431365D7F80431D3E9002311
:103B9C0002F40013BB640023FB64D7E912120B463A
:103BAC00134309D0924B1B6D23F08071D7F804316D
:103BBC009B6E8F4A0B431365D7F80431D3E900236E
:103BCC0002F080433B6400237B64D7E910120B4660
:103BDC0013430ED0864B1B69854A23F400431361B3
:103BEC00834B1969D7F80431D3F8B430804A0B43AE
:103BFC001361D7F80431D3E9002302F00043BB630F
:103C0C000023FB63D7E90E120B46134309D0784B04
:103C1C00DB6C23F04051D7F804315B6D744A0B43D5
:103C2C00D364D7F80431D3E9002302F400033B63D7
:103C3C0000237B63D7E90C120B4613430AD06C4B61
:103C4C005B6D23F44001D7F80431D3F88830684A0F
:103C5C000B435365D7F80431D3E900230021B96233
:103C6C0003F00103FB62D7E90A120B46134311D090
:103C7C00D7F8043108330021184600F079FB0346CD
:103C8C0087F8173197F81731002B03D097F81731B5
:103C9C0087F81631D7F80431D3E9002300213962B3
:103CAC0003F002037B62D7E908120B46134311D0D1
:103CBC00D7F8043108330121184600F059FB0346AC
:103CCC0087F8173197F81731002B03D097F8173175
:103CDC0087F81631D7F80431D3E900230021B961F4
:103CEC0003F00403FB61D7E906120B46134311D012
:103CFC00D7F8043108330221184600F039FB03468B
:103D0C0087F8173197F81731002B03D097F8173134
:103D1C0087F81631D7F80431D3E900230021396133
:103D2C0003F008037B61D7E904120B46134311D04F
:103D3C00D7F8043128330021184600F0CBFB03469A
:103D4C0087F8173197F81731002B03D097F81731F4
:103D5C0087F81631D7F80431D3E900230021B96074
:103D6C0003F01003FB60D7E902120B46134311D08A
:103D7C00D7F8043128330121184600F0ABFB034679
:103D8C0087F8173197F81731002B03D097F81731B4
:103D9C0087F81631D7F80431D3E9002300213960B4
:103DAC0003F020037B60D7E900120B46134311D0BC
:103DBC00D7F8043128330221184600F08BFB034658
:103DCC0087F8173197F81731002B03D097F8173174
:103DDC0087F8163197F81631002B01D1002300E03B
:103DEC000123184607F58C77BD46BDE8B08F00BFA0
:103DFC000044025880B500AFFEF700FE0246064BA9
:103E0C001B6A1B0903F007030449CB5C03F01F0377
:103E1C0022FA03F3184680BD00440258E8610608F4
:103E2C0080B489B000AF7860A14B9B6A03F00303A8
:103E3C00BB619F4B9B6A1B0B03F03F037B619C4B4D
:103E4C00DB6A1B0903F001033B61994BDB6BDB085D
:103E5C00C3F30C033A6902FB03F307EE903AF8EE56
:103E6C00677AC7ED037A7B69002B00F01181BB697F
:103E7C00022B00F08380BB69022B00F2A180BB698E
:103E8C00002B03D0BB69012B56D099E0884B1B68E3
:103E9C0003F02003002B2DD0854B1B68DB0803F0AF
:103EAC000303844A22FA03F3BB60BB6807EE903A23
:103EBC00F8EE676A7B6907EE903AF8EE677A86EE61
:103ECC00A77A7B4B9B6BC3F3080307EE903AF8EE93
:103EDC00676A97ED036ADFED785AC6EE257A76EEBF
:103EEC00A77AF7EE006A77EEA67A67EE277AC7ED27
:103EFC00077A87E07B6907EE903AF8EE677ADFED98
:103F0C006F6A86EEA77A6A4B9B6BC3F3080307EEC6
:103F1C00903AF8EE676A97ED036ADFED675AC6EEE2
:103F2C00257A76EEA77AF7EE006A77EEA67A67EE38
:103F3C00277AC7ED077A65E07B6907EE903AF8EED1
:103F4C00677ADFED5F6A86EEA77A594B9B6BC3F3FA
:103F5C00080307EE903AF8EE676A97ED036ADFED17
:103F6C00565AC6EE257A76EEA77AF7EE006A77EE09
:103F7C00A67A67EE277AC7ED077A43E07B6907EEEE
:103F8C00903AF8EE677ADFED4F6A86EEA77A484BE7
:103F9C009B6BC3F3080307EE903AF8EE676A97ED54
:103FAC00036ADFED455AC6EE257A76EEA77AF7EE70
:103FBC00006A77EEA67A67EE277AC7ED077A21E0DA
:103FCC007B6907EE903AF8EE677ADFED3D6A86EE94
:103FDC00A77A374B9B6BC3F3080307EE903AF8EEC6
:103FEC00676A97ED036ADFED345AC6EE257A76EEF2
:103FFC00A77AF7EE006A77EEA67A67EE277AC7ED16
:10400C00077A00BF2A4B9B6B5B0A03F07F0307EE1A
:10401C00903AF8EE677AB7EE007A37EE877AD7EDFA
:10402C00076AC6EE877AFCEEE77A17EE902A7B6871
:10403C001A601F4B9B6B1B0C03F07F0307EE903A2F
:10404C00F8EE677AB7EE007A37EE877AD7ED076A23
:10405C00C6EE877AFCEEE77A17EE902A7B685A60F8
:10406C00134B9B6B1B0E03F07F0307EE903AF8EE9D
:10407C00677AB7EE007A37EE877AD7ED076AC6EE25
:10408C00877AFCEEE77A17EE902A7B689A6008E054
:10409C007B6800221A607B6800225A607B680022D1
:1040AC009A6000BF2437BD465DF8047B704700BFA3
:1040BC00004402580090D003000000460024744CC9
:1040CC000024744A20BCBE4B80B489B000AF786029
:1040DC00A14B9B6A03F00303BB619F4B9B6A1B0DB7
:1040EC0003F03F037B619C4BDB6A1B0A03F001036B
:1040FC003B61994B5B6CDB08C3F30C033A6902FB25
:10410C0003F307EE903AF8EE677AC7ED037A7B6912
:10411C00002B00F01181BB69022B00F08380BB697E
:10412C00022B00F2A180BB69002B03D0BB69012BD1
:10413C0056D099E0884B1B6803F02003002B2DD040
:10414C00854B1B68DB0803F00303844A22FA03F354
:10415C00BB60BB6807EE903AF8EE676A7B6907EEC6
:10416C00903AF8EE677A86EEA77A7B4B1B6CC3F31A
:10417C00080307EE903AF8EE676A97ED036ADFEDF5
:10418C00785AC6EE257A76EEA77AF7EE006A77EEC5
:10419C00A67A67EE277AC7ED077A87E07B6907EE88
:1041AC00903AF8EE677ADFED6F6A86EEA77A6A4B83
:1041BC001B6CC3F3080307EE903AF8EE676A97EDB1
:1041CC00036ADFED675AC6EE257A76EEA77AF7EE2C
:1041DC00006A77EEA67A67EE277AC7ED077A65E074
:1041EC007B6907EE903AF8EE677ADFED5F6A86EE50
:1041FC00A77A594B1B6CC3F3080307EE903AF8EE01
:10420C00676A97ED036ADFED565AC6EE257A76EEAD
:10421C00A77AF7EE006A77EEA67A67EE277AC7EDF3
:10422C00077A43E07B6907EE903AF8EE677ADFEDA8
:10423C004F6A86EEA77A484B1B6CC3F3080307EE54
:10424C00903AF8EE676A97ED036ADFED455AC6EED1
:10425C00257A76EEA77AF7EE006A77EEA67A67EE05
:10426C00277AC7ED077A21E07B6907EE903AF8EEE2
:10427C00677ADFED3D6A86EEA77A374B1B6CC3F38A
:10428C00080307EE903AF8EE676A97ED036ADFEDE4
:10429C00345AC6EE257A76EEA77AF7EE006A77EEF8
:1042AC00A67A67EE277AC7ED077A00BF2A4B1B6CFC
:1042BC005B0A03F07F0307EE903AF8EE677AB7EEED
:1042CC00007A37EE877AD7ED076AC6EE877AFCEE6E
:1042DC00E77A17EE902A7B681A601F4B1B6C1B0C3D
:1042EC0003F07F0307EE903AF8EE677AB7EE007AA8
:1042FC0037EE877AD7ED076AC6EE877AFCEEE77A57
:10430C0017EE902A7B685A60134B1B6C1B0E03F044
:10431C007F0307EE903AF8EE677AB7EE007A37EE45
:10432C00877AD7ED076AC6EE877AFCEEE77A17EE46
:10433C00902A7B689A6008E07B6800221A607B6890
:10434C0000225A607B6800229A6000BF2437BD4669
:10435C005DF8047B704700BF004402580090D00306
:10436C00000000460024744C0024744A20BCBE4B50
:10437C0080B584B000AF786039600023FB73534B79
:10438C009B6A03F00303032B01D1012399E04F4BEC
:10439C001B684E4A23F080631360FCF7D3FEB860B1
:1043AC0008E0FCF7CFFE0246BB68D31A022B01D9FA
:1043BC00032386E0454B1B6803F00063002BF0D110
:1043CC00424B9B6A23F47C327B681B681B033F497E
:1043DC0013438B627B685B68013BC3F308027B6809
:1043EC009B68013B5B029BB21A437B68DB68013B19
:1043FC001B0403F4FE031A437B681B69013B1B0679
:10440C0003F0FE43314913438B63304BDB6A23F0DB
:10441C00C0027B685B692D491343CB622B4BDB6A73
:10442C0023F020027B689B6928491343CB62274BFE
:10443C00DB6A264A23F01003D362244BDA6B244B3D
:10444C0013407A68D269D20020491343CB631F4BC7
:10445C00DB6A1E4A43F01003D3623B68002B06D183
:10446C001A4BDB6A194A43F40023D3620FE03B6812
:10447C00012B06D1154BDB6A144A43F48013D3622B
:10448C0005E0124BDB6A114A43F40013D3620F4B65
:10449C001B680E4A43F080631360FCF753FEB86050
:1044AC0008E0FCF74FFE0246BB68D31A022B01D979
:1044BC00032306E0054B1B6803F00063002BF0D0D0
:1044CC00FB7B18461037BD4680BD00BF0044025828
:1044DC000700FFFF80B584B000AF7860396000231F
:1044EC00FB73534B9B6A03F00303032B01D1012392
:1044FC0099E04F4B1B684E4A23F080531360FCF736
:10450C0021FEB86008E0FCF71DFE0246BB68D31A1A
:10451C00022B01D9032386E0454B1B6803F00053A3
:10452C00002BF0D1424B9B6A23F07C727B681B689A
:10453C001B053F4913438B627B685B68013BC3F3EC
:10454C0008027B689B68013B5B029BB21A437B6849
:10455C00DB68013B1B0403F4FE031A437B681B69F5
:10456C00013B1B0603F0FE43314913430B64304BF4
:10457C00DB6A23F440627B685B692D491343CB6291
:10458C002B4BDB6A23F400727B689B69284913432D
:10459C00CB62274BDB6A264A23F48073D362244B0D
:1045AC005A6C244B13407A68D269D20020491343C9
:1045BC004B641F4BDB6A1E4A43F48073D3623B6827
:1045CC00002B06D11A4BDB6A194A43F48003D362E1
:1045DC000FE03B68012B06D1154BDB6A144A43F400
:1045EC000003D36205E0124BDB6A114A43F080737F
:1045FC00D3620F4B1B680E4A43F080531360FCF7D9
:10460C00A1FDB86008E0FCF79DFD0246BB68D31A1B
:10461C00022B01D9032306E0054B1B6803F0005362
:10462C00002BF0D0FB7B18461037BD4680BD00BF79
:10463C00004402580700FFFF80B582B000AF7860DD
:10464C007B68002B01D1012342E07B68D3F88830D2
:10465C00002B06D17B68002283F884207868FCF755
:10466C007DFB7B682422C3F888207B681B681A6852
:10467C007B681B6822F001021A607B689B6A002B26
:10468C0002D0786800F0EAFF786800F07BF9034606
:10469C00012B01D101231BE07B681B685A687B68E6
:1046AC001B6822F490425A607B681B689A687B688E
:1046BC001B6822F02A029A607B681B681A687B6868
:1046CC001B6842F001021A60786801F069F8034631
:1046DC0018460837BD4680BD80B58AB002AFF86079
:1046EC00B9603B601346FB80FB68D3F88830202B05
:1046FC007BD1BB68002B02D0FB88002B01D101239E
:10470C0074E0FB680022C3F89020FB682122C3F8F8
:10471C008820FCF717FD7861FB68FA88A3F8542011
:10472C00FB68FA88A3F85620FB689B68B3F5805F9A
:10473C0008D1FB681B69002B04D10023FB61BB680B
:10474C00BB6103E0BB68FB610023BB6130E03B68ED
:10475C0000937B6900228021F86801F0CBF80346B6
:10476C00002B05D0FB682022C3F8882003233DE0F2
:10477C00FB69002B0BD1BB691B881A46FB681B68B5
:10478C00C2F308029A62BB690233BB6107E0FB69A2
:10479C001A78FB681B689A62FB690133FB61FB6842
:1047AC00B3F856309BB2013B9AB2FB68A3F8562083
:1047BC00FB68B3F856309BB2002BC8D13B68009312
:1047CC007B6900224021F86801F094F80346002B25
:1047DC0005D0FB682022C3F88820032306E0FB6881
:1047EC002022C3F88820002300E00223184620373B
:1047FC00BD4680BD80B58AB002AFF860B9603B6041
:10480C001346FB80FB68D3F88C30202B40F0B5802E
:10481C00BB68002B02D0FB88002B01D10123ADE03B
:10482C00FB680022C3F89020FB682222C3F88C207E
:10483C00FB680022DA66FCF785FC7861FB68FA8875
:10484C00A3F85C20FB68FA88A3F85E20FB689B68E1
:10485C00B3F5805F0ED1FB681B69002B05D1FB689B
:10486C0040F2FF12A3F860202DE0FB68FF22A3F8B2
:10487C00602028E0FB689B68002B0DD1FB681B694E
:10488C00002B04D1FB68FF22A3F860201BE0FB681F
:10489C007F22A3F8602016E0FB689B68B3F1805F71
:1048AC000DD1FB681B69002B04D1FB687F22A3F898
:1048BC00602008E0FB683F22A3F8602003E0FB685F
:1048CC000022A3F86020FB68B3F860307B82FB68A1
:1048DC009B68B3F5805F08D1FB681B69002B04D182
:1048EC000023FB61BB68BB6103E0BB68FB61002379
:1048FC00BB6136E03B6800937B6900222021F8689D
:10490C0000F0F8FF0346002B05D0FB682022C3F80B
:10491C008C20032332E0FB69002B0CD1FB681B6855
:10492C005B6A9AB27B8A13409AB2BB691A80BB69E4
:10493C000233BB610CE0FB681B685B6ADAB27B8AF2
:10494C00DBB21340DAB2FB691A70FB690133FB610D
:10495C00FB68B3F85E309BB2013B9AB2FB68A3F8DC
:10496C005E20FB68B3F85E309BB2002BC2D1FB68B3
:10497C002022C3F88C20002300E0022318462037A5
:10498C00BD4680BD2DE9B04F92B000AF78610023D9
:10499C0087F842307B699A687B691B691A437B698B
:1049AC005B691A437B69DB6913437B647B691B6816
:1049BC001A68BE4B13407A691268796C0B4313600A
:1049CC007B691B685B6823F440517B69DA687B69FF
:1049DC001B680A435A607B699B697B647B691B6813
:1049EC00B34A934204D07B691B6A7A6C13437B6491
:1049FC007B691B689A68AF4B13407A691268796CB3
:104A0C000B4393607B691B68DB6A23F00F017B69A6
:104A1C005A6A7B691B680A43DA627B691B68A64A7F
:104A2C00934277D1A54B5B6D03F03803282B6DD8DF
:104A3C0001A252F823F000BFE94A0608194B0608F8
:104A4C00194B0608194B0608194B0608194B060892
:104A5C00194B0608194B0608F14A0608194B0608AB
:104A6C00194B0608194B0608194B0608194B060872
:104A7C00194B0608194B0608F94A0608194B060883
:104A8C00194B0608194B0608194B0608194B060852
:104A9C00194B0608194B0608014B0608194B06085A
:104AAC00194B0608194B0608194B0608194B060832
:104ABC00194B0608194B0608094B0608194B060832
:104ACC00194B0608194B0608194B0608194B060812
:104ADC00194B0608194B0608114B0608012387F8D9
:104AEC00433026E3042387F8433022E3082387F876
:104AFC0043301EE3102387F843301AE3202387F852
:104B0C00433016E3402387F8433012E3802387F8C1
:104B1C0043300EE37B691B68694A934230D1674B83
:104B2C005B6D03F00703052B26D801A252F823F086
:104B3C00554B06085D4B0608654B06086D4B060881
:104B4C00754B06087D4B0608002387F84330F0E2CE
:104B5C00042387F84330ECE2082387F84330E8E27B
:104B6C00102387F84330E4E2202387F84330E0E257
:104B7C00402387F84330DCE2802387F84330D8E2C7
:104B8C007B691B684F4A934230D14C4B5B6D03F0F1
:104B9C000703052B26D801A252F823F0C14B0608B7
:104BAC00C94B0608D14B0608D94B0608E14B060841
:104BBC00E94B0608002387F84330BAE2042387F850
:104BCC004330B6E2082387F84330B2E2102387F86B
:104BDC004330AEE2202387F84330AAE2402387F823
:104BEC004330A6E2802387F84330A2E27B691B683E
:104BFC00354A934230D1314B5B6D03F00703052BE3
:104C0C0026D801A252F823F02D4C0608354C060884
:104C1C003D4C0608454C06084D4C0608554C0608FC
:104C2C00002387F8433084E2042387F8433080E282
:104C3C00082387F843307CE2102387F8433078E26E
:104C4C00202387F8433074E2402387F8433070E226
:104C5C00802387F843306CE27B691B681B4A9342C4
:104C6C0042D1164B5B6D03F00703052B38D801A21C
:104C7C0052F823F0994C0608A14C0608A94C0608DA
:104C8C00B14C0608DD4C0608E54C0608002387F8F5
:104C9C0043304EE2042387F843304AE2082387F876
:104CAC00433046E2102387F8433042E2F369FFCFEA
:104CBC00000C0058FFF4FF11001001400044025892
:104CCC000044004000480040004C004000500040B0
:104CDC00202387F843302CE2402387F8433028E226
:104CEC00802387F8433024E27B691B68B14A9342E6
:104CFC0076D1B14B5B6D03F03803282B6CD801A235
:104D0C0052F823F0B54D0608E54D0608E54D0608AA
:104D1C00E54D0608E54D0608E54D0608E54D060887
:104D2C00E54D0608BD4D0608E54D0608E54D06089F
:104D3C00E54D0608E54D0608E54D0608E54D060867
:104D4C00E54D0608C54D0608E54D0608E54D060877
:104D5C00E54D0608E54D0608E54D0608E54D060847
:104D6C00E54D0608CD4D0608E54D0608E54D06084F
:104D7C00E54D0608E54D0608E54D0608E54D060827
:104D8C00E54D0608D54D0608E54D0608E54D060827
:104D9C00E54D0608E54D0608E54D0608E54D060807
:104DAC00E54D0608DD4D0608012387F84330C0E1C8
:104DBC00042387F84330BCE1082387F84330B8E17B
:104DCC00102387F84330B4E1202387F84330B0E157
:104DDC00402387F84330ACE1802387F84330A8E1C7
:104DEC007B691B68754A934230D1734B5B6D03F042
:104DFC000703052B26D801A252F823F0214E0608F2
:104E0C00294E0608314E0608394E0608414E060852
:104E1C00494E0608002387F843308AE1042387F8BB
:104E2C00433086E1082387F8433082E1102387F86A
:104E3C0043307EE1202387F843307AE1402387F822
:104E4C00433076E1802387F8433072E17B691B683D
:104E5C005B4A934230D1584B5B6D03F00703052B33
:104E6C0026D801A252F823F08D4E0608954E06085E
:104E7C009D4E0608A54E0608AD4E0608B54E060812
:104E8C00002387F8433054E1042387F8433050E182
:104E9C00082387F843304CE1102387F8433048E16E
:104EAC00202387F8433044E1402387F8433040E126
:104EBC00802387F843303CE17B691B68414A93426D
:104ECC0040F082803C4B5B6D03F03803282B6DD88F
:104EDC0001A252F823F000BF894F0608B94F06080B
:104EEC00B94F0608B94F0608B94F0608B94F06085E
:104EFC00B94F0608B94F0608914F0608B94F060876
:104F0C00B94F0608B94F0608B94F0608B94F06083D
:104F1C00B94F0608B94F0608994F0608B94F06084D
:104F2C00B94F0608B94F0608B94F0608B94F06081D
:104F3C00B94F0608B94F0608A14F0608B94F060825
:104F4C00B94F0608B94F0608B94F0608B94F0608FD
:104F5C00B94F0608B94F0608A94F0608B94F0608FD
:104F6C00B94F0608B94F0608B94F0608B94F0608DD
:104F7C00B94F0608B94F0608B14F0608012387F848
:104F8C004330D6E0042387F84330D2E0082387F877
:104F9C004330CEE0102387F84330CAE0202387F853
:104FAC004330C6E0402387F84330C2E0802387F8C3
:104FBC004330BEE000140140004402580078004029
:104FCC00007C0040001801407B691B68AD4A93428D
:104FDC0076D1AD4B5B6D03F03803282B6CD801A256
:104FEC0052F823F095500608C5500608C55006081F
:104FFC00C5500608C5500608C5500608C550060819
:10500C00C55006089D500608C5500608C550060830
:10501C00C5500608C5500608C5500608C5500608F8
:10502C00C5500608A5500608C5500608C550060808
:10503C00C5500608C5500608C5500608C5500608D8
:10504C00C5500608AD500608C5500608C5500608E0
:10505C00C5500608C5500608C5500608C5500608B8
:10506C00C5500608B5500608C5500608C5500608B8
:10507C00C5500608C5500608C5500608C550060898
:10508C00C5500608BD500608012387F8433050E090
:10509C00042387F843304CE0082387F8433048E07A
:1050AC00102387F8433044E0202387F8433040E056
:1050BC00402387F843303CE0802387F8433038E0C6
:1050CC007B691B68714A934230D16F4B9B6D03F027
:1050DC000703052B26D801A252F823F0015106082C
:1050EC0009510608115106081951060821510608E4
:1050FC0029510608022387F843301AE0042387F865
:10510C00433016E0082387F8433012E0102387F869
:10511C0043300EE0202387F843300AE0402387F821
:10512C00433006E0802387F8433002E0802387F881
:10513C0043307B691B68554A934240F0F88097F8DE
:10514C004330202B46DC022B75DB023B1E2B72D826
:10515C0001A252F823F000BFE7510608435206089B
:10516C00EF510608435206084352060843520608FC
:10517C00FF510608435206084352060843520608DC
:10518C004352060843520608435206084352060887
:10519C000F520608435206084352060843520608AB
:1051AC004352060843520608435206084352060867
:1051BC004352060843520608435206084352060857
:1051CC004352060843520608435206084352060847
:1051DC0035520608402B2AD02DE0FEF70BFEF86363
:1051EC002FE007F124031846FEF71AFEBB6AFB6397
:1051FC0027E007F118031846FEF766FFFB69FB630F
:10520C001FE0214B1B6803F02003002B09D01E4B21
:10521C001B68DB0803F003031D4A22FA03F3FB634C
:10522C000FE01B4BFB630CE01A4BFB6309E04FF4E4
:10523C000043FB6305E00023FB63012387F8423046
:10524C0000BFFB6B002B00F0EE817B695B6A124A9E
:10525C0032F813301A46FB6BB3FBF2F33B637B69FA
:10526C005A6813465B0013443A6B9A4205D37B6928
:10527C005B681B033A6B9A4210D9012387F84230C2
:10528C00D1E100BF001C014000440258000C005842
:10529C000090D00300093D00F8610608FB6B00226A
:1052AC00BB60FA607B695B6AC04A32F813309BB210
:1052BC0000223B607A60D7E90023D7E90201FBF7B3
:1052CC0097F802460B46104619464FF000024FF075
:1052DC0000030B0243EA106302027969496849082A
:1052EC0000200C46054612EB040843EB05097B69CC
:1052FC005B6800229A46934652465B4640464946B6
:10530C00FBF776F802460B461346BB63BB6BB3F553
:10531C00407F08D3BB6BB3F5801F04D27B691B683D
:10532C00BA6BDA607FE1012387F842307BE17B695D
:10533C00DB69B3F5004F40F0BD8097F84330202B6C
:10534C0048DC002B7BDB202B79D801A252F823F010
:10535C00E7530608EF5306084B5406084B5406084F
:10536C00F75306084B5406084B5406084B540608D2
:10537C00075406084B5406084B5406084B540608B1
:10538C004B5406084B5406084B5406084B5406085D
:10539C00175406084B5406084B5406084B54060881
:1053AC004B5406084B5406084B5406084B5406083D
:1053BC004B5406084B5406084B5406084B5406082D
:1053CC004B5406084B5406084B5406084B5406081D
:1053DC003D540608402B2ED031E0FDF73FFBF8631F
:1053EC0033E0FDF751FBF8632FE007F12403184677
:1053FC00FEF716FDBB6AFB6327E007F1180318469E
:10540C00FEF762FEFB69FB631FE0694B1B6803F050
:10541C002003002B09D0664B1B68DB0803F0030349
:10542C00644A22FA03F3FB630FE0624BFB630CE06C
:10543C00614BFB6309E04FF40043FB6305E0002381
:10544C00FB63012387F8423000BFFB6B002B00F09D
:10545C00EA807B695B6A554A32F813301A46FB6B5B
:10546C00B3FBF2F35A007B695B685B081A447B69F7
:10547C005B68B2FBF3F3BB63BB6B0F2B16D9BB6B37
:10548C00B3F5803F12D2BB6B9BB223F00F03FB86AC
:10549C00BB6B5B089BB203F007039AB2FB8E134302
:1054AC00FB867B691B68FA8EDA60BCE0012387F807
:1054BC004230B8E097F84330202B4BDC002BC0F285
:1054CC008780202B00F2848001A252F823F000BFC9
:1054DC00675506086F550608DD550608DD550608A4
:1054EC0077550608DD550608DD550608DD55060816
:1054FC0087550608DD550608DD550608DD550608F6
:10550C00DD550608DD550608DD550608DD5506088F
:10551C0097550608DD550608DD550608DD550608C5
:10552C00DD550608DD550608DD550608DD5506086F
:10553C00DD550608DD550608DD550608DD5506085F
:10554C00DD550608DD550608DD550608DD5506084F
:10555C00CF550608402B37D03AE0FDF77FFAF863B9
:10556C003CE0FDF791FAF86338E007F124031846A4
:10557C00FEF756FCBB6AFB6330E007F118031846D4
:10558C00FEF7A2FDFB69FB6328E0094B1B6803F0E7
:10559C002003002B12D0064B1B68DB0803F003031F
:1055AC00044A22FA03F3FB6318E000BFF861060813
:1055BC00004402580090D00300093D00244BFB63CB
:1055CC000CE0244BFB6309E04FF40043FB6305E064
:1055DC000023FB63012387F8423000BFFB6B002BD9
:1055EC0021D07B695B6A1C4A32F813301A46FB6B7C
:1055FC00B3FBF2F27B695B685B081A447B695B68FE
:10560C00B2FBF3F3BB63BB6B0F2B09D9BB6BB3F5CD
:10561C00803F05D2BB6B9AB27B691B68DA6002E0F3
:10562C00012387F842307B690122A3F86A207B6949
:10563C000122A3F868207B6900225A677B6900224B
:10564C009A6797F8423018464837BD46BDE8B08F88
:10565C000090D00300093D00F861060880B483B0C7
:10566C0000AF78607B689B6A03F00803002B0AD0BC
:10567C007B681B685B6823F400417B689A6B7B68D2
:10568C001B680A435A607B689B6A03F00103002B7A
:10569C000AD07B681B685B6823F400317B68DA6A8C
:1056AC007B681B680A435A607B689B6A03F00203A1
:1056BC00002B0AD07B681B685B6823F480317B6805
:1056CC001A6B7B681B680A435A607B689B6A03F001
:1056DC000403002B0AD07B681B685B6823F48021D1
:1056EC007B685A6B7B681B680A435A607B689B6AB1
:1056FC0003F01003002B0AD07B681B689B6823F413
:10570C0080517B68DA6B7B681B680A439A607B6804
:10571C009B6A03F02003002B0AD07B681B689B68F4
:10572C0023F400517B681A6C7B681B680A439A60EF
:10573C007B689B6A03F04003002B1AD07B681B68C4
:10574C005B6823F480117B685A6C7B681B680A4386
:10575C005A607B685B6CB3F5801F0AD17B681B6851
:10576C005B6823F4C0017B689A6C7B681B680A43F6
:10577C005A607B689B6A03F08003002B0AD07B681D
:10578C001B685B6823F400217B68DA6C7B681B6800
:10579C000A435A6000BF0C37BD465DF8047B704766
:1057AC0080B598B002AF78607B680022C3F8902077
:1057BC00FBF7C8FC78657B681B681B6803F0080363
:1057CC00082B2FD16FF07E4300937B6D00224FF49A
:1057DC000011786800F08EF80346002B22D07B680D
:1057EC001B68BB63BB6B53E8003F7B637B6B23F095
:1057FC0080033B657B681B681A463B6D7B643A648F
:10580C00396C7A6C41E80023FB63FB6B002BE6D10F
:10581C007B682022C3F888207B68002283F88420D0
:10582C00032363E07B681B681B6803F00403042BF1
:10583C0049D16FF07E4300937B6D00224FF48001C1
:10584C00786800F057F80346002B3CD07B681B6847
:10585C007B627B6A53E8003F3B623B6A23F49073A4
:10586C00FB647B681B681A46FB6C3B63FA62F96A43
:10587C003A6B41E80023BB62BB6A002BE6D17B6824
:10588C001B6808333B613B6953E8003FFB60FB68D6
:10589C0023F00103BB647B681B680833BA6CFA61A4
:1058AC00BB61B969FA6941E800237B617B69002B14
:1058BC00E5D17B682022C3F88C207B68002283F81A
:1058CC008420032312E07B682022C3F888207B68A5
:1058DC002022C3F88C207B680022DA667B680022C9
:1058EC001A677B68002283F88420002318465837F7
:1058FC00BD4680BD80B584B000AFF860B9603B6038
:10590C001346FB714FE0BB69B3F1FF3F4BD0FBF784
:10591C0019FC02463B68D31ABA699A4202D3BB6996
:10592C00002B01D103234EE0FB681B681B6803F0BE
:10593C000403002B37D0BB68802B34D0BB68402BC2
:10594C0031D0FB681B68DB6903F00803082B10D10E
:10595C00FB681B6808221A62F86800F039F8FB68CB
:10596C000822C3F89020FB68002283F884200123CE
:10597C0029E0FB681B68DB6903F40063B3F5006F77
:10598C0011D1FB681B684FF400621A62F86800F0D2
:10599C001FF8FB682022C3F89020FB68002283F8D4
:1059AC00842003230FE0FB681B68DA69BB68134093
:1059BC00BA689A420CBF01230023DBB21A46FB796A
:1059CC009A42A0D0002318461037BD4680BD000077
:1059DC0080B495B000AF78607B681B687B637B6B91
:1059EC0053E8003F3B633B6B23F49073FB647B6891
:1059FC001B681A46FB6C3B64FA63F96B3A6C41E822
:105A0C000023BB63BB6B002BE6D17B681B680833A0
:105A1C003B623B6A53E8003FFB61FA691E4B134043
:105A2C00BB647B681B680833BA6CFA62BB62B96AE8
:105A3C00FA6A41E800237B627B6A002BE5D17B6824
:105A4C00DB6E012B18D17B681B68FB60FB6853E88D
:105A5C00003FBB60BB6823F010037B647B681B6852
:105A6C001A467B6CBB617A617969BA6941E800239B
:105A7C003B613B69002BE6D17B682022C3F88C206C
:105A8C007B680022DA667B6800225A6700BF5437B5
:105A9C00BD465DF8047B7047FEFFFFEF80B485B018
:105AAC0000AF78607B6893F88430012B01D102231E
:105ABC0027E07B68012283F884207B682422C3F8CA
:105ACC0088207B681B681B68FB607B681B681A68F6
:105ADC007B681B6822F001021A60FB6823F00053FC
:105AEC00FB607B6800225A667B681B68FA681A6048
:105AFC007B682022C3F888207B68002283F88420EE
:105B0C00002318461437BD465DF8047B704780B5FA
:105B1C0084B000AF786039607B6893F88430012BD7
:105B2C0001D102232DE07B68012283F884207B685D
:105B3C002422C3F888207B681B681B68FB607B6889
:105B4C001B681A687B681B6822F001021A607B686C
:105B5C001B689B6823F060417B681B683A680A43AA
:105B6C009A60786800F050F87B681B68FA681A60D5
:105B7C007B682022C3F888207B68002283F884206D
:105B8C00002318461037BD4680BD80B584B000AFE9
:105B9C00786039607B6893F88430012B01D1022343
:105BAC002DE07B68012283F884207B682422C3F8D3
